{"abi":[{"type":"constructor","inputs":[],"stateMutability":"nonpayable"},{"type":"function","name":"AUTHORIZED_CALLER_ADMIN_ROLE","inputs":[],"outputs":[{"name":"","type":"bytes32","internalType":"bytes32"}],"stateMutability":"view"},{"type":"function","name":"BOND_MATURITY_SECONDS","inputs":[],"outputs":[{"name":"","type":"uint256","internalType":"uint256"}],"stateMutability":"view"},{"type":"function","name":"DEFAULT_ADMIN_ROLE","inputs":[],"outputs":[{"name":"","type":"bytes32","internalType":"bytes32"}],"stateMutability":"view"},{"type":"function","name":"MIN_REDEEM_PRICE","inputs":[],"outputs":[{"name":"","type":"uint256","internalType":"uint256"}],"stateMutability":"view"},{"type":"function","name":"SAFETY_FACTOR_BPS","inputs":[],"outputs":[{"name":"","type":"uint256","internalType":"uint256"}],"stateMutability":"view"},{"type":"function","name":"UPGRADE_INTERFACE_VERSION","inputs":[],"outputs":[{"name":"","type":"string","internalType":"string"}],"stateMutability":"view"},{"type":"function","name":"authorizedCallers","inputs":[{"name":"","type":"address","internalType":"address"}],"outputs":[{"name":"","type":"bool","internalType":"bool"}],"stateMutability":"view"},{"type":"function","name":"availableCapacityUSD","inputs":[],"outputs":[{"name":"","type":"uint256","internalType":"uint256"}],"stateMutability":"view"},{"type":"function","name":"burnFromReserves","inputs":[{"name":"amount","type":"uint256","internalType":"uint256"}],"outputs":[],"stateMutability":"nonpayable"},{"type":"function","name":"claimBond","inputs":[],"outputs":[{"name":"","type":"address","internalType":"contract IClaimBond"}],"stateMutability":"view"},{"type":"function","name":"commitReservation","inputs":[{"name":"amount","type":"uint256","internalType":"uint256"}],"outputs":[],"stateMutability":"nonpayable"},{"type":"function","name":"decreaseObligations","inputs":[{"name":"amount","type":"uint256","internalType":"uint256"}],"outputs":[],"stateMutability":"nonpayable"},{"type":"function","name":"getRoleAdmin","inputs":[{"name":"role","type":"bytes32","internalType":"bytes32"}],"outputs":[{"name":"","type":"bytes32","internalType":"bytes32"}],"stateMutability":"view"},{"type":"function","name":"getStatus","inputs":[],"outputs":[{"name":"reserveBalance","type":"uint256","internalType":"uint256"},{"name":"reserveValueUSD","type":"uint256","internalType":"uint256"},{"name":"committed","type":"uint256","internalType":"uint256"},{"name":"availableUSD","type":"uint256","internalType":"uint256"},{"name":"currentPrice","type":"uint256","internalType":"uint256"}],"stateMutability":"view"},{"type":"function","name":"grantRole","inputs":[{"name":"role","type":"bytes32","internalType":"bytes32"},{"name":"account","type":"address","internalType":"address"}],"outputs":[],"stateMutability":"nonpayable"},{"type":"function","name":"hasRole","inputs":[{"name":"role","type":"bytes32","internalType":"bytes32"},{"name":"account","type":"address","internalType":"address"}],"outputs":[{"name":"","type":"bool","internalType":"bool"}],"stateMutability":"view"},{"type":"function","name":"initialize","inputs":[{"name":"_lumina","type":"address","internalType":"address"},{"name":"_claimBond","type":"address","internalType":"address"},{"name":"_priceOracle","type":"address","internalType":"address"},{"name":"_policyManager","type":"address","internalType":"address"}],"outputs":[],"stateMutability":"nonpayable"},{"type":"function","name":"issueBond","inputs":[{"name":"to","type":"address","internalType":"address"},{"name":"usdPayout","type":"uint256","internalType":"uint256"}],"outputs":[],"stateMutability":"nonpayable"},{"type":"function","name":"lumina","inputs":[],"outputs":[{"name":"","type":"address","internalType":"contract IERC20"}],"stateMutability":"view"},{"type":"function","name":"policyManager","inputs":[],"outputs":[{"name":"","type":"address","internalType":"address"}],"stateMutability":"view"},{"type":"function","name":"previewRedemption","inputs":[{"name":"usdAmount","type":"uint256","internalType":"uint256"}],"outputs":[{"name":"luminaAmount","type":"uint256","internalType":"uint256"}],"stateMutability":"view"},{"type":"function","name":"priceOracle","inputs":[],"outputs":[{"name":"","type":"address","internalType":"contract IPriceOracle"}],"stateMutability":"view"},{"type":"function","name":"proxiableUUID","inputs":[],"outputs":[{"name":"","type":"bytes32","internalType":"bytes32"}],"stateMutability":"view"},{"type":"function","name":"recoverERC1155","inputs":[{"name":"token","type":"address","internalType":"address"},{"name":"id","type":"uint256","internalType":"uint256"},{"name":"amount","type":"uint256","internalType":"uint256"},{"name":"to","type":"address","internalType":"address"}],"outputs":[],"stateMutability":"nonpayable"},{"type":"function","name":"recoverToken","inputs":[{"name":"token","type":"address","internalType":"address"},{"name":"amount","type":"uint256","internalType":"uint256"},{"name":"to","type":"address","internalType":"address"}],"outputs":[],"stateMutability":"nonpayable"},{"type":"function","name":"redeemBond","inputs":[{"name":"epochId","type":"uint256","internalType":"uint256"},{"name":"usdAmount","type":"uint256","internalType":"uint256"}],"outputs":[],"stateMutability":"nonpayable"},{"type":"function","name":"releaseReservation","inputs":[{"name":"amount","type":"uint256","internalType":"uint256"}],"outputs":[],"stateMutability":"nonpayable"},{"type":"function","name":"renounceRole","inputs":[{"name":"role","type":"bytes32","internalType":"bytes32"},{"name":"callerConfirmation","type":"address","internalType":"address"}],"outputs":[],"stateMutability":"nonpayable"},{"type":"function","name":"reserveCapacity","inputs":[{"name":"amount","type":"uint256","internalType":"uint256"}],"outputs":[],"stateMutability":"nonpayable"},{"type":"function","name":"revokeRole","inputs":[{"name":"role","type":"bytes32","internalType":"bytes32"},{"name":"account","type":"address","internalType":"address"}],"outputs":[],"stateMutability":"nonpayable"},{"type":"function","name":"setAuthorizedCaller","inputs":[{"name":"caller","type":"address","internalType":"address"},{"name":"authorized","type":"bool","internalType":"bool"}],"outputs":[],"stateMutability":"nonpayable"},{"type":"function","name":"setPolicyManager","inputs":[{"name":"_pm","type":"address","internalType":"address"}],"outputs":[],"stateMutability":"nonpayable"},{"type":"function","name":"supportsInterface","inputs":[{"name":"interfaceId","type":"bytes4","internalType":"bytes4"}],"outputs":[{"name":"","type":"bool","internalType":"bool"}],"stateMutability":"view"},{"type":"function","name":"totalCommittedUSD","inputs":[],"outputs":[{"name":"","type":"uint256","internalType":"uint256"}],"stateMutability":"view"},{"type":"function","name":"totalReservedUSD","inputs":[],"outputs":[{"name":"","type":"uint256","internalType":"uint256"}],"stateMutability":"view"},{"type":"function","name":"upgradeToAndCall","inputs":[{"name":"newImplementation","type":"address","internalType":"address"},{"name":"data","type":"bytes","internalType":"bytes"}],"outputs":[],"stateMutability":"payable"},{"type":"event","name":"AuthorizedCallerUpdated","inputs":[{"name":"caller","type":"address","indexed":true,"internalType":"address"},{"name":"authorized","type":"bool","indexed":false,"internalType":"bool"}],"anonymous":false},{"type":"event","name":"BondIssued","inputs":[{"name":"to","type":"address","indexed":true,"internalType":"address"},{"name":"epochId","type":"uint256","indexed":true,"internalType":"uint256"},{"name":"usdAmount","type":"uint256","indexed":false,"internalType":"uint256"}],"anonymous":false},{"type":"event","name":"BondRedeemed","inputs":[{"name":"holder","type":"address","indexed":true,"internalType":"address"},{"name":"epochId","type":"uint256","indexed":true,"internalType":"uint256"},{"name":"usdAmount","type":"uint256","indexed":false,"internalType":"uint256"},{"name":"luminaAmount","type":"uint256","indexed":false,"internalType":"uint256"},{"name":"priceUsed","type":"uint256","indexed":false,"internalType":"uint256"}],"anonymous":false},{"type":"event","name":"CapacityReserved","inputs":[{"name":"amount","type":"uint256","indexed":false,"internalType":"uint256"},{"name":"newTotalReserved","type":"uint256","indexed":false,"internalType":"uint256"}],"anonymous":false},{"type":"event","name":"Initialized","inputs":[{"name":"version","type":"uint64","indexed":false,"internalType":"uint64"}],"anonymous":false},{"type":"event","name":"ObligationsDecreased","inputs":[{"name":"caller","type":"address","indexed":true,"internalType":"address"},{"name":"amount","type":"uint256","indexed":false,"internalType":"uint256"},{"name":"newTotal","type":"uint256","indexed":false,"internalType":"uint256"}],"anonymous":false},{"type":"event","name":"PolicyManagerSet","inputs":[{"name":"policyManager","type":"address","indexed":true,"internalType":"address"}],"anonymous":false},{"type":"event","name":"ReservationCommitted","inputs":[{"name":"amount","type":"uint256","indexed":false,"internalType":"uint256"},{"name":"newTotalReserved","type":"uint256","indexed":false,"internalType":"uint256"}],"anonymous":false},{"type":"event","name":"ReservationReleased","inputs":[{"name":"amount","type":"uint256","indexed":false,"internalType":"uint256"},{"name":"newTotalReserved","type":"uint256","indexed":false,"internalType":"uint256"}],"anonymous":false},{"type":"event","name":"ReservesBurned","inputs":[{"name":"caller","type":"address","indexed":true,"internalType":"address"},{"name":"amount","type":"uint256","indexed":false,"internalType":"uint256"},{"name":"newBalance","type":"uint256","indexed":false,"internalType":"uint256"}],"anonymous":false},{"type":"event","name":"RoleAdminChanged","inputs":[{"name":"role","type":"bytes32","indexed":true,"internalType":"bytes32"},{"name":"previousAdminRole","type":"bytes32","indexed":true,"internalType":"bytes32"},{"name":"newAdminRole","type":"bytes32","indexed":true,"internalType":"bytes32"}],"anonymous":false},{"type":"event","name":"RoleGranted","inputs":[{"name":"role","type":"bytes32","indexed":true,"internalType":"bytes32"},{"name":"account","type":"address","indexed":true,"internalType":"address"},{"name":"sender","type":"address","indexed":true,"internalType":"address"}],"anonymous":false},{"type":"event","name":"RoleRevoked","inputs":[{"name":"role","type":"bytes32","indexed":true,"internalType":"bytes32"},{"name":"account","type":"address","indexed":true,"internalType":"address"},{"name":"sender","type":"address","indexed":true,"internalType":"address"}],"anonymous":false},{"type":"event","name":"TokenRecovered","inputs":[{"name":"token","type":"address","indexed":true,"internalType":"address"},{"name":"amount","type":"uint256","indexed":false,"internalType":"uint256"},{"name":"to","type":"address","indexed":true,"internalType":"address"}],"anonymous":false},{"type":"event","name":"Upgraded","inputs":[{"name":"implementation","type":"address","indexed":true,"internalType":"address"}],"anonymous":false},{"type":"error","name":"AccessControlBadConfirmation","inputs":[]},{"type":"error","name":"AccessControlUnauthorizedAccount","inputs":[{"name":"account","type":"address","internalType":"address"},{"name":"neededRole","type":"bytes32","internalType":"bytes32"}]},{"type":"error","name":"AddressEmptyCode","inputs":[{"name":"target","type":"address","internalType":"address"}]},{"type":"error","name":"AddressInsufficientBalance","inputs":[{"name":"account","type":"address","internalType":"address"}]},{"type":"error","name":"CoreTokenProtected","inputs":[{"name":"token","type":"address","internalType":"address"}]},{"type":"error","name":"ERC1967InvalidImplementation","inputs":[{"name":"implementation","type":"address","internalType":"address"}]},{"type":"error","name":"ERC1967NonPayable","inputs":[]},{"type":"error","name":"FailedInnerCall","inputs":[]},{"type":"error","name":"InvalidInitialization","inputs":[]},{"type":"error","name":"NotInitializing","inputs":[]},{"type":"error","name":"RecoverAmountZero","inputs":[]},{"type":"error","name":"ReentrancyGuardReentrantCall","inputs":[]},{"type":"error","name":"SafeERC20FailedOperation","inputs":[{"name":"token","type":"address","internalType":"address"}]},{"type":"error","name":"UUPSUnauthorizedCallContext","inputs":[]},{"type":"error","name":"UUPSUnsupportedProxiableUUID","inputs":[{"name":"slot","type":"bytes32","internalType":"bytes32"}]},{"type":"error","name":"ZeroAddressNotAllowed","inputs":[]}],"bytecode":{"object":"0x60a080604052346100cc57306080527ff0c57e16840df040f15088dc2f81fe391c3923bec73e23a9662efc9c229c6a009081549060ff8260401c166100bd57506001600160401b036002600160401b031982821601610078575b60405161265b90816100d28239608051818181610fee01526110ce0152f35b6001600160401b031990911681179091556040519081527fc7f505b2f371ae2175ee4913f4499e1f2633a7b5936321eed1cdaeb6115181d290602090a1388080610059565b63f92ee8a960e01b8152600490fd5b600080fdfe608060408181526004918236101561001657600080fd5b600092833560e01c91826301ffc9a714611d31575081630b33c0c914611d1457816310495bde146118df578163186c72ab1461189357816322c5e38614611876578163248a9ca31461183e5781632630c12f146118155781632f2ff15d146117eb57816336568abe146117a55781633bba374914611742578163454bbd2914611653578163470c1351146113ee57816349d4bebc146113b35781634e69d560146112895781634f1ef2861461105257816352d1902d14610fd9578163536fff6c14610f9b5781636b5a7fde14610c1857816391d1485414610bc55781639b06d17414610b5c578163a217fddf14610b41578163a976853e14610b1f578163ab3dbf3b14610af6578163ad3cb1cc14610a58578163adde41e114610952578163bd1882cb14610933578163be228060146108b2578163c7cf748414610889578163cd6b8e4d14610861578163d04323c5146106fb578163d547741f146106ae578163eb4ab61214610552578163eea1f9e71461048a578163f02def621461046b578163f8c8765e146101d2575063feeb5d22146101b157600080fd5b346101ce57816003193601126101ce576020906006549051908152f35b5080fd5b905034610467576080366003190112610467576101ed611d9a565b906101f6611d84565b906101ff611db0565b90610208611dc6565b927ff0c57e16840df040f15088dc2f81fe391c3923bec73e23a9662efc9c229c6a009485549460ff86891c16159467ffffffffffffffff871696871580610460575b60018099149081610456575b15908161044d575b5061043d5767ffffffffffffffff198116881789558661041e575b506102826121ce565b61028a6121ce565b86600080516020612606833981519152556102a36121ce565b6102ab6121ce565b6001600160a01b039283169384156103ed5783169081156103b9578316908115610388576bffffffffffffffffffffffff60a01b943386885416178755858c5416178b558488541617875583600254161760025561030833611ecf565b5061031233611f6f565b50169081610367575b505050610326578380f35b7fc7f505b2f371ae2175ee4913f4499e1f2633a7b5936321eed1cdaeb6115181d29260209268ff000000000000000019815416905551908152a13880808380f35b6003541617600355600160a01b60ff60a01b1982541617905538808061031b565b895162461bcd60e51b8152602081880152600b60248201526a5a65726f206f7261636c6560a81b6044820152606490fd5b895162461bcd60e51b8152602081880152600e60248201526d16995c9bc818db185a5b509bdb9960921b6044820152606490fd5b895162461bcd60e51b8152602081880152600b60248201526a5a65726f206c756d696e6160a81b6044820152606490fd5b68ffffffffffffffffff19166801000000000000000117885538610279565b895163f92ee8a960e01b81528690fd5b9050153861025e565b303b159150610256565b508661024a565b8280fd5b5050346101ce57816003193601126101ce576020906005549051908152f35b919050346104675760203660031901126104675781359133845260076020526104b860ff8386205416612530565b6104c383151561257b565b6005549083821061050f5750906104fb837f0303c47454dea2a6a4ec91d7ce1210f137f74dc0e4ad68d951b7aa93cf958e1293612334565b80600555815193845260208401523392a280f35b606490602084519162461bcd60e51b8352820152601860248201527f416d6f756e74206578636565647320636f6d6d697474656400000000000000006044820152fd5b9050346104675760803660031901126104675761056d611d9a565b916044359061057a611dc6565b92610583611e44565b61058b612374565b6001600160a01b0385811694851561069e571694851561068f578315610680576105b4906125bc565b61066b578590843b156101ce57825190637921219560e11b82523090820152856024820152602435604482015283606482015260a060848201528160a4820152818160c48183895af1801561066157610649575b50507f25cf8d26509ef33d03d7d79115a9acdd514856bbe6793a7af3f42f635e1e11249160209151908152a360016000805160206126068339815191525580f35b61065290611ddc565b61065d578438610608565b8480fd5b83513d84823e3d90fd5b83602492519163fd7c092b60e01b8352820152fd5b509051630a2f379360e41b8152fd5b5090516342bcdf7f60e11b8152fd5b83516342bcdf7f60e11b81528390fd5b919050346104675780600319360112610467576106f791356106f260016106d3611d84565b938387526000805160206125e683398151915260205286200154611e9c565b6120b8565b5080f35b90503461046757606036600319011261046757610716611d9a565b9160243590610723611db0565b9261072c611e44565b610734612374565b6001600160a01b038581169490851561069e57811695861561069e5784156108515761075f906125bc565b61083b57825163a9059cbb60e01b602082019081526001600160a01b03929092166024820152604480820186905281526107b89188918291906107a3606482611e06565b519082895af16107b161213b565b908661216b565b8051908115159182610820575b505061080b57507f25cf8d26509ef33d03d7d79115a9acdd514856bbe6793a7af3f42f635e1e11249160209151908152a360016000805160206126068339815191525580f35b836024925191635274afe760e01b8352820152fd5b61083392506020809183010191016123a4565b1538806107c5565b5083602492519163fd7c092b60e01b8352820152fd5b8351630a2f379360e41b81528390fd5b5050346101ce57816003193601126101ce57905490516001600160a01b039091168152602090f35b5050346101ce57816003193601126101ce5760015490516001600160a01b039091168152602090f35b91905034610467576020366003190112610467577f852eed94fca40d0c4b98dd86696b98fdf79db3c98e3055519bc241206ea6ce0f91356108fe60018060a01b0360035416331461224a565b61090981151561228b565b6109218160065461091c828210156122e8565b612334565b8060065582519182526020820152a180f35b5050346101ce57816003193601126101ce57602090516303c267008152f35b9050346104675760203660031901126104675761096d611d9a565b8154926001600160a01b0391908285163303610a265760ff8560a01c166109e45750169161099c83151561220f565b600380546001600160a01b0319168417905560ff60a01b1916600160a01b1790557f7459f7f9aac6fc4ca8cf3734456a89022a8afccd59e1789f17777ec2012f21ed8280a280f35b5162461bcd60e51b8152602081850152601960248201527f506f6c6963794d616e6167657220616c726561647920736574000000000000006044820152606490fd5b5162461bcd60e51b8152602081850152600d60248201526c27b7363c903232b83637bcb2b960991b6044820152606490fd5b9050346104675782600319360112610467578151908282019082821067ffffffffffffffff831117610ae15750825260058152602090640352e302e360dc1b8282015282519382859384528251928382860152825b848110610acb57505050828201840152601f01601f19168101030190f35b8181018301518882018801528795508201610aad565b604190634e487b7160e01b6000525260246000fd5b5050346101ce57816003193601126101ce5760035490516001600160a01b039091168152602090f35b5050346101ce57816003193601126101ce576020905166038d7ea4c680008152f35b5050346101ce57816003193601126101ce5751908152602090f35b828434610bc2576020366003190112610bc2578235610b796124a8565b916ec097ce7bc90715b34b9f100000000091828102928184041490151715610baf57602084610ba88585612354565b9051908152f35b634e487b7160e01b815260118552602490fd5b80fd5b90503461046757816003193601126104675781602093610be3611d84565b923581526000805160206125e68339815191528552209060018060a01b0316600052825260ff81600020541690519015158152f35b91905034610467578060031936011261046757610c33611d9a565b906024928335610c41612374565b6003546001600160a01b039290610c5b908416331461224a565b82851694610c6a86151561220f565b8215610f6b5783600254169385518095634d9ad68760e11b8252818560209889935afa908115610f61578a91610f34575b508886838c54168951928380926370a0823160e01b8252308a8301525afa908115610f2a578b91610ef8575b50610cdc670de0b6b3a7640000928392612341565b0498611388998a81029a818c041490151715610ee757600554998287029287840403610e71576127109004610d11838c6122c5565b11610eb3576303c267004201804211610e7157636955b9008110610e83574263659351ff1901908111610e71576228207290046107ea90600c81048201809211610e5f57600c90066001019182600111610e4e57606482029180830460641490151715610e4e575091610d8b610d91928d979695946122c5565b9a6122c5565b6005556001541691823b15610e4a578651630ab714fb60e11b81526001600160a01b0390921690820190815260208101899052604081018590529091839183919082908490829060600103925af18015610e4057610e28575b50507fc7f101cd893547ed94b213df84d6f6c162b79d94f012e0939358b1e2aabbb0f19251908152a360016000805160206126068339815191525580f35b610e3190611ddc565b610e3c578538610dea565b8580fd5b85513d84823e3d90fd5b8380fd5b634e487b7160e01b8d52601187528cfd5b634e487b7160e01b8d5260118752828dfd5b50634e487b7160e01b8b52601185528afd5b885162461bcd60e51b8152808701899052600b818401526a4265666f7265206261736560a81b6044820152606490fd5b846010606492898b519362461bcd60e51b85528401528201526f4578636565647320636170616369747960801b6044820152fd5b634e487b7160e01b8b52601185528afd5b90508681813d8311610f23575b610f0f8183611e06565b81010312610f1e575138610cc7565b600080fd5b503d610f05565b88513d8d823e3d90fd5b90508581813d8311610f5a575b610f4b8183611e06565b81010312610f1e575138610c9b565b503d610f41565b87513d8c823e3d90fd5b845162461bcd60e51b8152602081840152600b818901526a16995c9bc81c185e5bdd5d60aa1b6044820152606490fd5b5050346101ce5760203660031901126101ce5760209160ff9082906001600160a01b03610fc6611d9a565b1681526007855220541690519015158152f35b828434610bc25780600319360112610bc257507f00000000000000000000000000000000000000000000000000000000000000006001600160a01b0316300361104557602090517f360894a13ba1a3210667c828492db98dca3e2076cc3735a920a3ca505d382bbc8152f35b5163703e46dd60e11b8152fd5b9180915060031936011261046757611068611d9a565b90602493843567ffffffffffffffff81116101ce57366023820112156101ce57808501359361109685611e28565b6110a285519182611e06565b85815260209586820193368a8383010111610e3c578186928b8a93018737830101526001600160a01b037f0000000000000000000000000000000000000000000000000000000000000000811630811490811561125b575b5061124b57611107611e44565b85516352d1902d60e01b81529083169680828a818b5afa918291879361121b575b50506111445750505050505191634c9c8ce360e01b8352820152fd5b86899689927f360894a13ba1a3210667c828492db98dca3e2076cc3735a920a3ca505d382bbc908181036112065750853b156111f15780546001600160a01b0319168317905551869392917fbc7cd75a20ee27fd9adebab32041f755214dbc6bffa90cc0225b39da2e5c2d3b8580a28251156111d55750506106f79382915190845af46111cf61213b565b9161216b565b935093505050346111e557505080f35b63b398979f60e01b8152fd5b5051634c9c8ce360e01b815291820152859150fd5b848a91845191632a87526960e21b8352820152fd5b9080929350813d8311611244575b6112338183611e06565b81010312610e3c5751903880611128565b503d611229565b855163703e46dd60e11b81528890fd5b9050817f360894a13ba1a3210667c828492db98dca3e2076cc3735a920a3ca505d382bbc54161415386110fa565b91905034610467578260031936011261046757602491926112a86124a8565b815483516370a0823160e01b815230878201529491939160209186919082906001600160a01b03165afa9384156113a8578294611375575b50670de0b6b3a7640000806112f58587612341565b04926113888085029085820414851517156113625760a09750612710839104918160055493611326600654866122c5565b90818111156113595761133a929350612334565b04945b8451978852046020870152049084015260608301526080820152f35b5050509461133d565b634e487b7160e01b825260118852602482fd5b9093506020813d82116113a0575b8161139060209383611e06565b81010312610f1e575192386112e0565b3d9150611383565b5051903d90823e3d90fd5b5050346101ce57816003193601126101ce57602090517fd33e77f2109ae0635eb5763fb764c26e390aa83c6d868962a532a53aea5baad88152f35b8383346101ce57602080600319360112610467578335913384526007825261141b60ff8286205416612530565b61142683151561257b565b835481516370a0823160e01b80825230828901526001600160a01b0392831697909492909160249190848184818d5afa90811561164957899161161c575b508781106115e2576005810290808204600514901517156115d057606490048711611597578888993b1561159357888091848851809c8193630852cd8d60e31b83528d8a8401525af198891561158757859697989961156a575b5054169585519687938492835230908301525afa908115611560578591611511575b7f92e6c3eee2b2d65fd9fa7e10446e7740b00e11b0356db961f36034654e098c08935082519485528401523392a280f35b80915083813d8311611559575b6115288183611e06565b81010312610f1e577f92e6c3eee2b2d65fd9fa7e10446e7740b00e11b0356db961f36034654e098c089251906114e0565b503d61151e565b82513d87823e3d90fd5b61157691929550611ddc565b611583578392888a6114be565b8780fd5b508551903d90823e3d90fd5b8880fd5b5060159192606494519362461bcd60e51b855284015282015274045786365656473203525207065722d74782063617605c1b6044820152fd5b634e487b7160e01b8952601184528289fd5b855162461bcd60e51b815280850186905260158185015274496e73756666696369656e7420726573657276657360581b6044820152606490fd5b90508481813d8311611642575b6116338183611e06565b81010312610f1e57518a611464565b503d611629565b86513d8b823e3d90fd5b90503461046757816003193601126104675761166d611d9a565b6024359182151580930361065d577fd33e77f2109ae0635eb5763fb764c26e390aa83c6d868962a532a53aea5baad8806000526000805160206125e6833981519152602052846000203360005260205260ff856000205416156117255750506001600160a01b0316917fad857fa38c9319cb80848f1ef2f924383b90297eb5d71755738ff037d100faa19160209161170685151561220f565b8486526007835280862060ff1981541660ff841617905551908152a280f35b6044925084519163e2517d3f60e01b835233908301526024820152fd5b91905034610467576020366003190112610467577fe2f1be42e4c6602771c469fa05b3700a4054b8fdd959fb56162a1077f732a3d1913561178e60018060a01b0360035416331461224a565b61179981151561228b565b610921816006546122c5565b8383346101ce57806003193601126101ce576117bf611d84565b90336001600160a01b038316036117dc57506106f79192356120b8565b5163334bd91960e11b81528390fd5b919050346104675780600319360112610467576106f7913561181060016106d3611d84565b612031565b5050346101ce57816003193601126101ce5760025490516001600160a01b039091168152602090f35b90503461046757602036600319011261046757816020936001923581526000805160206125e683398151915285522001549051908152f35b5050346101ce57816003193601126101ce57602090516113888152f35b91905034610467576020366003190112610467577f3d6c4b4e7704bb9fb401f7970a6db63d1f8fd8ce03678b366989eae39b9e345c91356108fe60018060a01b0360035416331461224a565b91905034610467578060031936011261046757813591602491823592611903612374565b831590611910821561228b565b6001548351630631089960e41b81528086018890526001600160a01b0395602093909290919087169084818481855afa908115611b8f578b91611cf7575b5015611cc8578551627eeac760e11b815233848201908152602081018b9052909185918391908290819060400103915afa908115611b72579088918b91611c93575b5010611c5e5761199e6124a8565b9566038d7ea4c680008710611c2d576ec097ce7bc90715b34b9f10000000008089029089820414861715611ba357876119d691612354565b948285838d54168951928380926370a0823160e01b8252308a8301525afa908115611c23579087918d91611bee575b5010611bb557670de0b6b3a764000090818a02918a8304141715611ba3576005548111611b9957611a3890600554612334565b6005555b80600154168a813b15610bc2578751637a94c56560e11b815233868201908152602081018d9052604081018c90529092839182908490829060600103925af18015611b8f57611b7c575b508954865163a9059cbb60e01b815233858201908152602081018890529092869284928390036040019183918f91165af1908115611b72578a91611b45575b5015611b1357505082519485528401528201527f6846a1f0e04c811f2446839115afaec39ebe19cda47f10f2d3c58699c7eca29e60603392a360016000805160206126068339815191525580f35b600f9060649386519362461bcd60e51b85528401528201526e151c985b9cd9995c8819985a5b1959608a1b6044820152fd5b611b659150843d8611611b6b575b611b5d8183611e06565b8101906123a4565b38611ac5565b503d611b53565b86513d8c823e3d90fd5b611b88909a919a611ddc565b9838611a86565b87513d8d823e3d90fd5b5089600555611a3c565b634e487b7160e01b8b5260118452828bfd5b865162461bcd60e51b815280850186905260148185015273496e73756666696369656e74207265736572766560601b6044820152606490fd5b809250878092503d8311611c1c575b611c078183611e06565b81010312611c185786905138611a05565b8b80fd5b503d611bfd565b88513d8e823e3d90fd5b50600d9060649386519362461bcd60e51b85528401528201526c507269636520746f6f206c6f7760981b6044820152fd5b60129060649386519362461bcd60e51b855284015282015271496e73756666696369656e7420626f6e647360701b6044820152fd5b809250858092503d8311611cc1575b611cac8183611e06565b81010312611cbd5787905138611990565b8980fd5b503d611ca2565b50600b9060649386519362461bcd60e51b85528401528201526a139bdd081b585d1d5c995960aa1b6044820152fd5b611d0e9150853d8711611b6b57611b5d8183611e06565b3861194e565b5050346101ce57816003193601126101ce57602090610ba86123bc565b849134610467576020366003190112610467573563ffffffff60e01b81168091036104675760209250637965db0b60e01b8114908115611d73575b5015158152f35b6301ffc9a760e01b14905083611d6c565b602435906001600160a01b0382168203610f1e57565b600435906001600160a01b0382168203610f1e57565b604435906001600160a01b0382168203610f1e57565b606435906001600160a01b0382168203610f1e57565b67ffffffffffffffff8111611df057604052565b634e487b7160e01b600052604160045260246000fd5b90601f8019910116810190811067ffffffffffffffff821117611df057604052565b67ffffffffffffffff8111611df057601f01601f191660200190565b3360009081527fb7db2dd08fcb62d0c9e08c51941cae53c267786a0b75803fb7960902fc8ef97d602052604081205460ff1615611e7e5750565b6044906040519063e2517d3f60e01b82523360048301526024820152fd5b806000526000805160206125e683398151915260205260406000203360005260205260ff6040600020541615611e7e5750565b6001600160a01b031660008181527fb7db2dd08fcb62d0c9e08c51941cae53c267786a0b75803fb7960902fc8ef97d60205260408120549091906000805160206125e68339815191529060ff16611f6a578280526020526040822081835260205260408220600160ff1982541617905533917f2f8788117e7eff1d82e926ec794901d17c78024a50270940304540a733656f0d8180a4600190565b505090565b6001600160a01b031660008181527f2ec8facb1581ddae3747f53366813eb597fa4430a52fca8b4d4b10c862d236bf60205260408120549091907fd33e77f2109ae0635eb5763fb764c26e390aa83c6d868962a532a53aea5baad8906000805160206125e68339815191529060ff1661202b578184526020526040832082845260205260408320600160ff198254161790557f2f8788117e7eff1d82e926ec794901d17c78024a50270940304540a733656f0d339380a4600190565b50505090565b906000918083526000805160206125e683398151915280602052604084209260018060a01b03169283855260205260ff6040852054161560001461202b578184526020526040832082845260205260408320600160ff198254161790557f2f8788117e7eff1d82e926ec794901d17c78024a50270940304540a733656f0d339380a4600190565b906000918083526000805160206125e683398151915280602052604084209260018060a01b03169283855260205260ff60408520541660001461202b57818452602052604083208284526020526040832060ff1981541690557ff6391f5c32d9c69d2a47ea670b442974b53935d1edc7fd64eb21e047a839171b339380a4600190565b3d15612166573d9061214c82611e28565b9161215a6040519384611e06565b82523d6000602084013e565b606090565b90612192575080511561218057805190602001fd5b604051630a12f52160e11b8152600490fd5b815115806121c5575b6121a3575090565b604051639996b31560e01b81526001600160a01b039091166004820152602490fd5b50803b1561219b565b60ff7ff0c57e16840df040f15088dc2f81fe391c3923bec73e23a9662efc9c229c6a005460401c16156121fd57565b604051631afcd79f60e31b8152600490fd5b1561221657565b60405162461bcd60e51b815260206004820152600c60248201526b5a65726f206164647265737360a01b6044820152606490fd5b1561225157565b60405162461bcd60e51b815260206004820152601260248201527127b7363c902837b634b1bca6b0b730b3b2b960711b6044820152606490fd5b1561229257565b60405162461bcd60e51b815260206004820152600b60248201526a16995c9bc8185b5bdd5b9d60aa1b6044820152606490fd5b919082018092116122d257565b634e487b7160e01b600052601160045260246000fd5b156122ef57565b60405162461bcd60e51b815260206004820152601860248201527f496e73756666696369656e74207265736572766174696f6e00000000000000006044820152606490fd5b919082039182116122d257565b818102929181159184041417156122d257565b811561235e570490565b634e487b7160e01b600052601260045260246000fd5b60008051602061260683398151915260028154146123925760029055565b604051633ee5aeb560e01b8152600490fd5b90816020910312610f1e57518015158103610f1e5790565b6123c46124a8565b600080546040516370a0823160e01b815230600482015291929190602090829060249082906001600160a01b03165afa90811561249d57839161246c575b50612417670de0b6b3a7640000928392612341565b0461138890818102918183041490151715612458576127109004612440600554600654906122c5565b908181111561202b57612454929350612334565b0490565b634e487b7160e01b83526011600452602483fd5b90506020813d8211612495575b8161248660209383611e06565b81010312610467575138612402565b3d9150612479565b6040513d85823e3d90fd5b600254604051634d9ad68760e11b815290602090829060049082906001600160a01b03165afa600091816124fd575b506124e8575066038d7ea4c6800090565b80156124f15790565b5066038d7ea4c6800090565b90916020823d8211612528575b8161251760209383611e06565b81010312610bc257505190386124d7565b3d915061250a565b1561253757565b606460405162461bcd60e51b815260206004820152602060248201527f426f6e645661756c743a2063616c6c6572206e6f7420617574686f72697a65646044820152fd5b1561258257565b60405162461bcd60e51b81526020600482015260126024820152710416d6f756e74206d757374206265203e20360741b6044820152606490fd5b6000546001600160a01b0391821690821681149182156125db57505090565b600154161491905056fe02dd7bc7dec4dceedda775e58dd541e08a116c6c53815c0bd028192f7b6268009b779b17422d0df92223018b32b4d1fa46e071723d6817e2486d003becc55f00a26469706673582212209394e025b258d576458e472899512a138af99f668d5c16754b3c14c255b3a14a64736f6c63430008140033","linkReferences":{}},"methodIdentifiers":{"AUTHORIZED_CALLER_ADMIN_ROLE()":"49d4bebc","BOND_MATURITY_SECONDS()":"bd1882cb","DEFAULT_ADMIN_ROLE()":"a217fddf","MIN_REDEEM_PRICE()":"a976853e","SAFETY_FACTOR_BPS()":"22c5e386","UPGRADE_INTERFACE_VERSION()":"ad3cb1cc","authorizedCallers(address)":"536fff6c","availableCapacityUSD()":"0b33c0c9","burnFromReserves(uint256)":"470c1351","claimBond()":"c7cf7484","commitReservation(uint256)":"be228060","decreaseObligations(uint256)":"eea1f9e7","getRoleAdmin(bytes32)":"248a9ca3","getStatus()":"4e69d560","grantRole(bytes32,address)":"2f2ff15d","hasRole(bytes32,address)":"91d14854","initialize(address,address,address,address)":"f8c8765e","issueBond(address,uint256)":"6b5a7fde","lumina()":"cd6b8e4d","policyManager()":"ab3dbf3b","previewRedemption(uint256)":"9b06d174","priceOracle()":"2630c12f","proxiableUUID()":"52d1902d","recoverERC1155(address,uint256,uint256,address)":"eb4ab612","recoverToken(address,uint256,address)":"d04323c5","redeemBond(uint256,uint256)":"10495bde","releaseReservation(uint256)":"186c72ab","renounceRole(bytes32,address)":"36568abe","reserveCapacity(uint256)":"3bba3749","revokeRole(bytes32,address)":"d547741f","setAuthorizedCaller(address,bool)":"454bbd29","setPolicyManager(address)":"adde41e1","supportsInterface(bytes4)":"01ffc9a7","totalCommittedUSD()":"f02def62","totalReservedUSD()":"feeb5d22","upgradeToAndCall(address,bytes)":"4f1ef286"},"id":73}