{"abi":[{"type":"constructor","inputs":[],"stateMutability":"nonpayable"},{"type":"function","name":"MIN_PRICE_FOR_NEW_POLICIES","inputs":[],"outputs":[{"name":"","type":"uint256","internalType":"uint256"}],"stateMutability":"view"},{"type":"function","name":"RESET_PRICE_FOR_NEW_POLICIES","inputs":[],"outputs":[{"name":"","type":"uint256","internalType":"uint256"}],"stateMutability":"view"},{"type":"function","name":"UPGRADE_INTERFACE_VERSION","inputs":[],"outputs":[{"name":"","type":"string","internalType":"string"}],"stateMutability":"view"},{"type":"function","name":"authorizedRelayers","inputs":[{"name":"","type":"address","internalType":"address"}],"outputs":[{"name":"","type":"bool","internalType":"bool"}],"stateMutability":"view"},{"type":"function","name":"autoPausedOnce","inputs":[],"outputs":[{"name":"","type":"bool","internalType":"bool"}],"stateMutability":"view"},{"type":"function","name":"capacityOracle","inputs":[],"outputs":[{"name":"","type":"address","internalType":"contract IPriceOracleForRouter"}],"stateMutability":"view"},{"type":"function","name":"configureProduct","inputs":[{"name":"_productId","type":"bytes32","internalType":"bytes32"},{"name":"_payoutRatioBps","type":"uint256","internalType":"uint256"},{"name":"_triggerProbBps","type":"uint256","internalType":"uint256"},{"name":"_marginBps","type":"uint256","internalType":"uint256"},{"name":"_durationSeconds","type":"uint32","internalType":"uint32"},{"name":"_active","type":"bool","internalType":"bool"}],"outputs":[],"stateMutability":"nonpayable"},{"type":"function","name":"getProductConfig","inputs":[{"name":"productId","type":"bytes32","internalType":"bytes32"}],"outputs":[{"name":"","type":"tuple","internalType":"struct CoverRouterV2.ProductConfig","components":[{"name":"productId","type":"bytes32","internalType":"bytes32"},{"name":"payoutRatioBps","type":"uint256","internalType":"uint256"},{"name":"triggerProbBps","type":"uint256","internalType":"uint256"},{"name":"marginBps","type":"uint256","internalType":"uint256"},{"name":"durationSeconds","type":"uint32","internalType":"uint32"},{"name":"active","type":"bool","internalType":"bool"}]}],"stateMutability":"view"},{"type":"function","name":"getProductCount","inputs":[],"outputs":[{"name":"","type":"uint256","internalType":"uint256"}],"stateMutability":"view"},{"type":"function","name":"initialize","inputs":[{"name":"_usdc","type":"address","internalType":"address"},{"name":"_policyManager","type":"address","internalType":"address"},{"name":"_twapBurner","type":"address","internalType":"address"}],"outputs":[],"stateMutability":"nonpayable"},{"type":"function","name":"isProtocolAutoPaused","inputs":[],"outputs":[{"name":"","type":"bool","internalType":"bool"}],"stateMutability":"view"},{"type":"function","name":"owner","inputs":[],"outputs":[{"name":"","type":"address","internalType":"address"}],"stateMutability":"view"},{"type":"function","name":"paused","inputs":[],"outputs":[{"name":"","type":"bool","internalType":"bool"}],"stateMutability":"view"},{"type":"function","name":"policyManager","inputs":[],"outputs":[{"name":"","type":"address","internalType":"contract IPolicyManagerV2"}],"stateMutability":"view"},{"type":"function","name":"productList","inputs":[{"name":"","type":"uint256","internalType":"uint256"}],"outputs":[{"name":"","type":"bytes32","internalType":"bytes32"}],"stateMutability":"view"},{"type":"function","name":"products","inputs":[{"name":"","type":"bytes32","internalType":"bytes32"}],"outputs":[{"name":"productId","type":"bytes32","internalType":"bytes32"},{"name":"payoutRatioBps","type":"uint256","internalType":"uint256"},{"name":"triggerProbBps","type":"uint256","internalType":"uint256"},{"name":"marginBps","type":"uint256","internalType":"uint256"},{"name":"durationSeconds","type":"uint32","internalType":"uint32"},{"name":"active","type":"bool","internalType":"bool"}],"stateMutability":"view"},{"type":"function","name":"proxiableUUID","inputs":[],"outputs":[{"name":"","type":"bytes32","internalType":"bytes32"}],"stateMutability":"view"},{"type":"function","name":"purchasePolicy","inputs":[{"name":"productId","type":"bytes32","internalType":"bytes32"},{"name":"coverageAmount","type":"uint256","internalType":"uint256"},{"name":"asset","type":"bytes32","internalType":"bytes32"}],"outputs":[{"name":"policyId","type":"uint256","internalType":"uint256"}],"stateMutability":"nonpayable"},{"type":"function","name":"purchasePolicyFor","inputs":[{"name":"productId","type":"bytes32","internalType":"bytes32"},{"name":"coverageAmount","type":"uint256","internalType":"uint256"},{"name":"asset","type":"bytes32","internalType":"bytes32"},{"name":"buyer","type":"address","internalType":"address"}],"outputs":[{"name":"policyId","type":"uint256","internalType":"uint256"}],"stateMutability":"nonpayable"},{"type":"function","name":"quotePremium","inputs":[{"name":"productId","type":"bytes32","internalType":"bytes32"},{"name":"coverageAmount","type":"uint256","internalType":"uint256"}],"outputs":[{"name":"premium","type":"uint256","internalType":"uint256"},{"name":"payout","type":"uint256","internalType":"uint256"}],"stateMutability":"view"},{"type":"function","name":"recoverToken","inputs":[{"name":"token","type":"address","internalType":"address"},{"name":"amount","type":"uint256","internalType":"uint256"},{"name":"to","type":"address","internalType":"address"}],"outputs":[],"stateMutability":"nonpayable"},{"type":"function","name":"renounceOwnership","inputs":[],"outputs":[],"stateMutability":"nonpayable"},{"type":"function","name":"setCapacityOracle","inputs":[{"name":"_oracle","type":"address","internalType":"address"}],"outputs":[],"stateMutability":"nonpayable"},{"type":"function","name":"setPaused","inputs":[{"name":"_paused","type":"bool","internalType":"bool"}],"outputs":[],"stateMutability":"nonpayable"},{"type":"function","name":"setPolicyManager","inputs":[{"name":"_pm","type":"address","internalType":"address"}],"outputs":[],"stateMutability":"nonpayable"},{"type":"function","name":"setRelayer","inputs":[{"name":"relayer","type":"address","internalType":"address"},{"name":"authorized","type":"bool","internalType":"bool"}],"outputs":[],"stateMutability":"nonpayable"},{"type":"function","name":"setTwapBurner","inputs":[{"name":"_burner","type":"address","internalType":"address"}],"outputs":[],"stateMutability":"nonpayable"},{"type":"function","name":"submitTrigger","inputs":[{"name":"productId","type":"bytes32","internalType":"bytes32"},{"name":"policyId","type":"uint256","internalType":"uint256"},{"name":"oracleProof","type":"bytes","internalType":"bytes"}],"outputs":[],"stateMutability":"nonpayable"},{"type":"function","name":"syncCircuitBreaker","inputs":[],"outputs":[],"stateMutability":"nonpayable"},{"type":"function","name":"transferOwnership","inputs":[{"name":"newOwner","type":"address","internalType":"address"}],"outputs":[],"stateMutability":"nonpayable"},{"type":"function","name":"twapBurner","inputs":[],"outputs":[{"name":"","type":"address","internalType":"contract ITWAPBurner"}],"stateMutability":"view"},{"type":"function","name":"upgradeToAndCall","inputs":[{"name":"newImplementation","type":"address","internalType":"address"},{"name":"data","type":"bytes","internalType":"bytes"}],"outputs":[],"stateMutability":"payable"},{"type":"function","name":"usdc","inputs":[],"outputs":[{"name":"","type":"address","internalType":"contract IERC20"}],"stateMutability":"view"},{"type":"event","name":"AutoPauseActivated","inputs":[{"name":"priceWei","type":"uint256","indexed":false,"internalType":"uint256"}],"anonymous":false},{"type":"event","name":"AutoPauseDeactivated","inputs":[{"name":"priceWei","type":"uint256","indexed":false,"internalType":"uint256"}],"anonymous":false},{"type":"event","name":"CapacityOracleUpdated","inputs":[{"name":"oldOracle","type":"address","indexed":true,"internalType":"address"},{"name":"newOracle","type":"address","indexed":true,"internalType":"address"}],"anonymous":false},{"type":"event","name":"Initialized","inputs":[{"name":"version","type":"uint64","indexed":false,"internalType":"uint64"}],"anonymous":false},{"type":"event","name":"OwnershipTransferred","inputs":[{"name":"previousOwner","type":"address","indexed":true,"internalType":"address"},{"name":"newOwner","type":"address","indexed":true,"internalType":"address"}],"anonymous":false},{"type":"event","name":"Paused","inputs":[{"name":"state","type":"bool","indexed":false,"internalType":"bool"}],"anonymous":false},{"type":"event","name":"PolicyManagerUpdated","inputs":[{"name":"oldPM","type":"address","indexed":true,"internalType":"address"},{"name":"newPM","type":"address","indexed":true,"internalType":"address"}],"anonymous":false},{"type":"event","name":"PolicyPurchased","inputs":[{"name":"productId","type":"bytes32","indexed":true,"internalType":"bytes32"},{"name":"policyId","type":"uint256","indexed":true,"internalType":"uint256"},{"name":"buyer","type":"address","indexed":true,"internalType":"address"},{"name":"coverage","type":"uint256","indexed":false,"internalType":"uint256"},{"name":"premium","type":"uint256","indexed":false,"internalType":"uint256"},{"name":"payout","type":"uint256","indexed":false,"internalType":"uint256"},{"name":"paidBy","type":"address","indexed":false,"internalType":"address"}],"anonymous":false},{"type":"event","name":"ProductConfigured","inputs":[{"name":"productId","type":"bytes32","indexed":true,"internalType":"bytes32"}],"anonymous":false},{"type":"event","name":"RelayerUpdated","inputs":[{"name":"relayer","type":"address","indexed":false,"internalType":"address"},{"name":"authorized","type":"bool","indexed":false,"internalType":"bool"}],"anonymous":false},{"type":"event","name":"TokenRecovered","inputs":[{"name":"token","type":"address","indexed":true,"internalType":"address"},{"name":"amount","type":"uint256","indexed":false,"internalType":"uint256"},{"name":"to","type":"address","indexed":true,"internalType":"address"}],"anonymous":false},{"type":"event","name":"TriggerSubmitted","inputs":[{"name":"productId","type":"bytes32","indexed":true,"internalType":"bytes32"},{"name":"policyId","type":"uint256","indexed":true,"internalType":"uint256"},{"name":"submitter","type":"address","indexed":false,"internalType":"address"}],"anonymous":false},{"type":"event","name":"TwapBurnerUpdated","inputs":[{"name":"oldTB","type":"address","indexed":true,"internalType":"address"},{"name":"newTB","type":"address","indexed":true,"internalType":"address"}],"anonymous":false},{"type":"event","name":"Upgraded","inputs":[{"name":"implementation","type":"address","indexed":true,"internalType":"address"}],"anonymous":false},{"type":"error","name":"AddressEmptyCode","inputs":[{"name":"target","type":"address","internalType":"address"}]},{"type":"error","name":"AddressInsufficientBalance","inputs":[{"name":"account","type":"address","internalType":"address"}]},{"type":"error","name":"ContractPaused","inputs":[]},{"type":"error","name":"CoreTokenProtected","inputs":[{"name":"token","type":"address","internalType":"address"}]},{"type":"error","name":"ERC1967InvalidImplementation","inputs":[{"name":"implementation","type":"address","internalType":"address"}]},{"type":"error","name":"ERC1967NonPayable","inputs":[]},{"type":"error","name":"FailedInnerCall","inputs":[]},{"type":"error","name":"InvalidCoverage","inputs":[{"name":"amount","type":"uint256","internalType":"uint256"}]},{"type":"error","name":"InvalidInitialization","inputs":[]},{"type":"error","name":"NotAuthorizedRelayer","inputs":[{"name":"caller","type":"address","internalType":"address"}]},{"type":"error","name":"NotInitializing","inputs":[]},{"type":"error","name":"OwnableInvalidOwner","inputs":[{"name":"owner","type":"address","internalType":"address"}]},{"type":"error","name":"OwnableUnauthorizedAccount","inputs":[{"name":"account","type":"address","internalType":"address"}]},{"type":"error","name":"PremiumMismatch","inputs":[{"name":"expected","type":"uint256","internalType":"uint256"},{"name":"provided","type":"uint256","internalType":"uint256"}]},{"type":"error","name":"ProductInactive","inputs":[{"name":"productId","type":"bytes32","internalType":"bytes32"}]},{"type":"error","name":"ProductNotConfigured","inputs":[{"name":"productId","type":"bytes32","internalType":"bytes32"}]},{"type":"error","name":"RecoverAmountZero","inputs":[]},{"type":"error","name":"ReentrancyGuardReentrantCall","inputs":[]},{"type":"error","name":"SafeERC20FailedOperation","inputs":[{"name":"token","type":"address","internalType":"address"}]},{"type":"error","name":"UUPSUnauthorizedCallContext","inputs":[]},{"type":"error","name":"UUPSUnsupportedProxiableUUID","inputs":[{"name":"slot","type":"bytes32","internalType":"bytes32"}]},{"type":"error","name":"ZeroAddressNotAllowed","inputs":[]}],"bytecode":{"object":"0x60a080604052346100cc57306080527ff0c57e16840df040f15088dc2f81fe391c3923bec73e23a9662efc9c229c6a009081549060ff8260401c166100bd57506001600160401b036002600160401b031982821601610078575b604051611e0c90816100d28239608051818181610d6a0152610eac0152f35b6001600160401b031990911681179091556040519081527fc7f505b2f371ae2175ee4913f4499e1f2633a7b5936321eed1cdaeb6115181d290602090a1388080610059565b63f92ee8a960e01b8152600490fd5b600080fdfe608060409080825260048036101561001657600080fd5b600092833560e01c9283630e27e635146112bb5750826316c38b3c1461124e57826328e01961146112015782632919b8151461118b57826329e295c51461114e5782633e413bee146111265782633fe3fd8e1461110057826345e48f551461108a5782634a348da91461106b5782634f1ef28614610e3057826351abb0c214610e07578263528c87d214610dce57826352d1902d14610d565782635c975abb14610d2f578263715018a614610cc55782637905439114610c5d5782638899c49214610c445782638da5cb5b14610c0e5782639fe8af4014610b42578263ab3dbf3b14610b19578263ad3cb1cc14610a7d578263adde41e114610a07578263b41fe1211461087b578263b5a5418814610852578263bb0bec2a14610775578263c0c53b8b14610527578263d04323c5146103fe578263d3de49ae146103dc578263d3ff498c14610294578263d5e38a4b14610272578263eadb30791461024a578263ecd8dc3a146101c057505063f2fde38b1461019157600080fd5b346101bd5760203660031901126101bd576101ba6101ad611387565b6101b5611484565b6114bd565b80f35b80fd5b909150346102465780600319360112610246576101db611387565b91602435801515809103610241577f4b36b2e66f38ed349bec532105790177f1283bcbc094e6cd48565195d3033c4393610213611484565b6001600160a01b03168086526020928352838620805460ff191660ff8416179055835190815291820152a180f35b600080fd5b8280fd5b83903461026e578160031936011261026e5760209060ff6007541690519015158152f35b5080fd5b83903461026e578160031936011261026e57602090516611c37937e080008152f35b909150346102465760603660031901126102465781359060243592846044359167ffffffffffffffff80841161024657366023850112156102465783820135908111610246573660248286010111610246576102ee611605565b6001546001600160a01b031690813b156103d8578360848994838a9460248b519a8b998a988996634967e72f60e11b8852870152828601526060604486015282606486015201848401378181018301849052601f01601f191681010301925af180156103ce57610398575b5060207fb9941a33a7dfeed58ee760175fe7f3feb9a3c4ead44931ca29d39abaca6eb5e39151338152a36001600080516020611db78339815191525580f35b7fb9941a33a7dfeed58ee760175fe7f3feb9a3c4ead44931ca29d39abaca6eb5e391946103c66020926113e5565b949150610359565b82513d87823e3d90fd5b8380fd5b83903461026e578160031936011261026e5760209051661c6bf5263400008152f35b91503461024657606036600319011261024657610419611387565b916024359061042661139d565b61042e611484565b610436611605565b6001600160a01b039485169384156105195785821695861561050a5784156104fb5787541685146104e45750815163a9059cbb60e01b6020808301919091526001600160a01b03929092166024820152604480820185905281527f25cf8d26509ef33d03d7d79115a9acdd514856bbe6793a7af3f42f635e1e1124939192906104ca906104c46064826113f9565b86611b42565b51908152a36001600080516020611db78339815191525580f35b825163fd7c092b60e01b8152908101859052602490fd5b508251630a2f379360e41b8152fd5b5082516342bcdf7f60e11b8152fd5b82516342bcdf7f60e11b8152fd5b91503461024657606036600319011261024657610542611387565b6024356001600160a01b03818116939092918490036107715761056361139d565b7ff0c57e16840df040f15088dc2f81fe391c3923bec73e23a9662efc9c229c6a009485549460ff86891c16159467ffffffffffffffff87169687158061076a575b60018099149081610760575b159081610757575b506107475767ffffffffffffffff1981168817895582919087610728575b506105df6115c4565b6105e76115c4565b6105f0336114bd565b6105f86115c4565b6106006115c4565b87600080516020611db7833981519152556106196115c4565b169283156106f95782156106cc571692831561069b57506001600160601b0360a01b918289541617885581855416178455600254161760025561065a578380f35b7fc7f505b2f371ae2175ee4913f4499e1f2633a7b5936321eed1cdaeb6115181d29260209268ff000000000000000019815416905551908152a13880808380f35b606490602089519162461bcd60e51b8352820152600b60248201526a2d32b93790313ab93732b960a91b6044820152fd5b885162461bcd60e51b815260208187015260076024820152665a65726f20504d60c81b6044820152606490fd5b885162461bcd60e51b815260208187015260096024820152685a65726f205553444360b81b6044820152606490fd5b68ffffffffffffffffff191668010000000000000001178955386105d6565b895163f92ee8a960e01b81528690fd5b905015386105b8565b303b1591506105b0565b50866105a4565b8580fd5b9083346101bd5760803660031901126101bd57606435906001600160a01b038216908183036101bd576107a6611605565b60ff60035460a01c16610842578460ff91338152856020522054161561082c57156107fc57602092916107e391339160443590602435903561165e565b906001600080516020611db78339815191525551908152f35b506020606492519162461bcd60e51b8352820152600a6024820152692d32b93790313abcb2b960b11b6044820152fd5b835163acf5282560e01b81523381850152602490fd5b845163ab35696f60e01b81528490fd5b83903461026e578160031936011261026e5760025490516001600160a01b039091168152602090f35b9150346102465760c0366003190112610246578035916084359163ffffffff908184168094036107715760a43592831515809403610a03576108bb611484565b84156109c9578587526005602052828282892001541615610978575b8051906108e3826113b3565b868252602082016024358152818301906044358252606084019260643584526080850198895260a08501978852898b5260056020528a20935184555160018401555160028301555160038201550192511664ff0000000083549251151560201b169164ffffffffff1916171790557f479c4c41d6d766cbbaae667a7bd2da94dc40729edaaa883c4905003f2fd270f98280a280f35b600654680100000000000000008110156109b65780600161099c9201600655611437565b81549060031b9088821b91600019901b19161790556108d7565b634e487b7160e01b885260418352602488fd5b906020606492519162461bcd60e51b8352820152601460248201527304475726174696f6e206d757374206265203e20360641b6044820152fd5b8680fd5b83346101bd5760203660031901126101bd57610a21611387565b610a29611484565b6001600160a01b0390811690610a40821515611bb4565b600154826001600160601b0360a01b821617600155167f8db82d3061f259c28cee172c5d954c7be330a7ee1d949d6fc6e29b7e4c12447e8380a380f35b9150346102465782600319360112610246578151908282019082821067ffffffffffffffff831117610b065750825260058152602090640352e302e360dc1b8282015282519382859384528251928382860152825b848110610af057505050828201840152601f01601f19168101030190f35b8181018301518882018801528795508201610ad2565b634e487b7160e01b855260419052602484fd5b83903461026e578160031936011261026e5760015490516001600160a01b039091168152602090f35b83823461026e578260031936011261026e578260243592823581526005602052209063ffffffff818301541615610bd2575064e8d4a51000610ba66001830154926003610b9d610b928688611635565b600284015490611635565b91015490611635565b04918215610bc9575b61271091610bbc91611635565b0482519182526020820152f35b60019250610baf565b606490602085519162461bcd60e51b83528201526016602482015275141c9bd91d58dd081b9bdd0818dbdb999a59dd5c995960521b6044820152fd5b83903461026e578160031936011261026e57600080516020611d978339815191525490516001600160a01b039091168152602090f35b83346101bd57806003193601126101bd576101ba611c8b565b90915034610246576020366003190112610246578060ff9160c0948435815260056020522080549360018201549260028301549160038401549301549381519687526020870152850152606084015263ffffffff8116608084015260201c16151560a0820152f35b83346101bd57806003193601126101bd57610cde611484565b600080516020611d9783398151915280546001600160a01b0319811690915581906001600160a01b03167f8be0079c531659141344cd1fd0a4f28419497f9722a3daafe3b4186f6b6457e08280a380f35b83903461026e578160031936011261026e5760209060ff60035460a01c1690519015158152f35b83346101bd57806003193601126101bd57507f00000000000000000000000000000000000000000000000000000000000000006001600160a01b03163003610dc157602090517f360894a13ba1a3210667c828492db98dca3e2076cc3735a920a3ca505d382bbc8152f35b5163703e46dd60e11b8152fd5b9150346102465760203660031901126102465735916006548310156101bd5750610df9602092611437565b91905490519160031b1c8152f35b83903461026e578160031936011261026e5760035490516001600160a01b039091168152602090f35b8091925060031936011261024657610e46611387565b90602493843567ffffffffffffffff811161026e573660238201121561026e578085013593610e748561141b565b610e80855191826113f9565b85815260209586820193368a8383010111610771578186928b8a93018737830101526001600160a01b037f0000000000000000000000000000000000000000000000000000000000000000811630811490811561103d575b5061102d57610ee5611484565b85516352d1902d60e01b81529083169680828a818b5afa9182918793610ffd575b5050610f225750505050505191634c9c8ce360e01b8352820152fd5b86899689927f360894a13ba1a3210667c828492db98dca3e2076cc3735a920a3ca505d382bbc90818103610fe85750853b15610fd35780546001600160a01b0319168317905551869392917fbc7cd75a20ee27fd9adebab32041f755214dbc6bffa90cc0225b39da2e5c2d3b8580a2825115610fb7575050610fb39382915190845af4610fad611531565b91611561565b5080f35b93509350505034610fc757505080f35b63b398979f60e01b8152fd5b5051634c9c8ce360e01b815291820152859150fd5b848a91845191632a87526960e21b8352820152fd5b9080929350813d8311611026575b61101581836113f9565b810103126107715751903880610f06565b503d61100b565b855163703e46dd60e11b81528890fd5b9050817f360894a13ba1a3210667c828492db98dca3e2076cc3735a920a3ca505d382bbc5416141538610ed8565b83903461026e578160031936011261026e576020906006549051908152f35b83346101bd5760203660031901126101bd576110a4611387565b6110ac611484565b6001600160a01b03908116906110c3821515611bb4565b600254826001600160601b0360a01b821617600255167f20db48d1d9e1c795bd22d03f2a1d0c513eb0c0d996a526011a2c4f742f5214088380a380f35b83903461026e578160031936011261026e5760209061111d611be6565b90519015158152f35b83903461026e578160031936011261026e57905490516001600160a01b039091168152602090f35b9150346102465760203660031901126102465760209260ff918391906001600160a01b0361117a611387565b168252855220541690519015158152f35b83346101bd5760203660031901126101bd576111a5611387565b6111ad611484565b6001600160a01b03908116906111c4821515611bb4565b600354826001600160601b0360a01b821617600355167fcfd00f3b14a1cfab44a87ccbb641c1b5cc61c428245ef196cc0bea1208a373c68380a380f35b83346101bd5760603660031901126101bd575061121c611605565b60ff60035460a01c16611241576107e36020923390339060443590602435903561165e565b5163ab35696f60e01b8152fd5b915034610246576020366003190112610246573590811515809203610246577f0e2fb031ee032dc02d8011dc50b816eb450cf856abd8261680dac74f72165bd29160209161129a611484565b6003805460ff60a01b191660a084901b60ff60a01b1617905551908152a180f35b8492346103d85760209182600319360112611383578460c09560a0836112e188956113b3565b82815282878201528285820152826060820152826080820152015282358152600584522090835191611312836113b3565b80549485845260018201549285850193845260028301549082860191825260038401549360608701948552015495608086019460ff60a063ffffffff98898b1689520198831c16151588528351988952519088015251908601525160608501525116608083015251151560a0820152f35b8480fd5b600435906001600160a01b038216820361024157565b604435906001600160a01b038216820361024157565b60c0810190811067ffffffffffffffff8211176113cf57604052565b634e487b7160e01b600052604160045260246000fd5b67ffffffffffffffff81116113cf57604052565b90601f8019910116810190811067ffffffffffffffff8211176113cf57604052565b67ffffffffffffffff81116113cf57601f01601f191660200190565b60065481101561146e5760066000527ff652222313e28459528d920b65115c16c04f3efc82aaedc97be59f3f377c0d3f0190600090565b634e487b7160e01b600052603260045260246000fd5b600080516020611d97833981519152546001600160a01b031633036114a557565b60405163118cdaa760e01b8152336004820152602490fd5b6001600160a01b0390811690811561151857600080516020611d9783398151915280546001600160a01b031981168417909155167f8be0079c531659141344cd1fd0a4f28419497f9722a3daafe3b4186f6b6457e0600080a3565b604051631e4fbdf760e01b815260006004820152602490fd5b3d1561155c573d906115428261141b565b9161155060405193846113f9565b82523d6000602084013e565b606090565b90611588575080511561157657805190602001fd5b604051630a12f52160e11b8152600490fd5b815115806115bb575b611599575090565b604051639996b31560e01b81526001600160a01b039091166004820152602490fd5b50803b15611591565b60ff7ff0c57e16840df040f15088dc2f81fe391c3923bec73e23a9662efc9c229c6a005460401c16156115f357565b604051631afcd79f60e31b8152600490fd5b600080516020611db783398151915260028154146116235760029055565b604051633ee5aeb560e01b8152600490fd5b8181029291811591840414171561164857565b634e487b7160e01b600052601160045260246000fd5b6003549295946000939192916001600160a01b031680611a2a575b5082845260056020526040842096600488015463ffffffff811615611a115760201c60ff16156119f8576305f5e10083106119df57600188019764e8d4a510006116e06116d56116ca8c5488611635565b600285015490611635565b600384015490611635565b049182156119d6575b86546040516323b872dd60e01b60208201526001600160a01b0386811660248301523060448301526064808301879052825290911667ffffffffffffffff60a08301908111908311176119c257906117479160a08201604052611b42565b865460025460405163095ea7b360e01b602082018181526001600160a01b039384166024840181905260448085018a90528452929493909316929091908b9081906117936064886113f9565b86519082875af16117a2611531565b81611993575b5080611989575b15611925575b50506002546001600160a01b0316915050803b156119215787809160246040518094819363071817bf60e21b83528960048401525af1801561191657611902575b5060209060c463ffffffff600460018060a01b0360015416950154169989604051958694859363ea3486c160e01b85528c600486015260018060a01b03169d8e60248601528b6044860152896064860152608485015260a48401525af19586156118f657956118bb575b50916080917f91cfa99023ecc812b766a5362df9b4731f2febd3e93dd8bb6e9891c182758b4393612710611896889b5485611635565b60408051958652602086019390935204908301526001600160a01b03166060820152a4565b91929094506020823d6020116118ee575b816118d9602093836113f9565b81010312610241579051939091906080611860565b3d91506118cc565b604051903d90823e3d90fd5b9661190f602092986113e5565b96906117f6565b6040513d8a823e3d90fd5b8780fd5b6040519160208301526024820152896044820152604481526080810181811067ffffffffffffffff8211176119755761196c9392916119679160405282611b42565b611b42565b388080806117b5565b634e487b7160e01b8b52604160045260248bfd5b50823b15156117af565b80518015925082156119a8575b5050386117a8565b6119bb9250602080918301019101611b2a565b38806119a0565b634e487b7160e01b89526041600452602489fd5b600192506116e9565b6040516311a0661d60e11b815260048101849052602490fd5b604051635d042eb960e01b815260048101859052602490fd5b604051631b505fa960e21b815260048101869052602490fd5b60075460ff1615611b185760046020661c6bf526340000925b604051634d9ad68760e11b815292839182905afa908115611b0d578691611adc575b5010611a715738611679565b60405162461bcd60e51b815260206004820152603960248201527f50726f746f636f6c206175746f2d7061757365643a204c554d494e412070726960448201527f63652062656c6f7720736166657479207468726573686f6c64000000000000006064820152608490fd5b90506020813d8211611b05575b81611af6602093836113f9565b81010312610771575138611a65565b3d9150611ae9565b6040513d88823e3d90fd5b600460206611c37937e0800092611a43565b90816020910312610241575180151581036102415790565b600080611b6b9260018060a01b03169360208151910182865af1611b64611531565b9083611561565b8051908115159182611b99575b5050611b815750565b60249060405190635274afe760e01b82526004820152fd5b611bac9250602080918301019101611b2a565b153880611b78565b15611bbb57565b606460405162461bcd60e51b81526020600482015260046024820152635a65726f60e01b6044820152fd5b6003546001600160a01b03168015611c855760075460ff1615611c735760046020661c6bf526340000925b604051634d9ad68760e11b815292839182905afa908115611c6757600091611c3857501090565b906020823d8211611c5f575b81611c51602093836113f9565b810103126101bd5750511090565b3d9150611c44565b6040513d6000823e3d90fd5b600460206611c37937e0800092611c11565b50600090565b6003546001600160a01b03168015611d93576040518091634d9ad68760e11b825281600460209384935afa918215611c6757600092611d64575b5060075460ff811615611d1b5750661c6bf526340000821015611ce6575050565b7f8e962b52f76dd73f96884d4f602c91d615b7b139d3c3f8917e22b27a81b3c8ae9160ff1960075416600755604051908152a1565b916611c37937e080008110611d2f57505050565b60017fe08810fbef9f3b45ba19f596f6d03301bae6307614f9dea57581c5c01cdd2ba19360ff191617600755604051908152a1565b90918282813d8311611d8c575b611d7b81836113f9565b810103126101bd5750519038611cc5565b503d611d71565b5056fe9016d09d72d40fdae2fd8ceac6b6234c7706214fd39c1cd1e609a0528c1993009b779b17422d0df92223018b32b4d1fa46e071723d6817e2486d003becc55f00a26469706673582212206952f146ee642f9f99e9fce721d4edd7fb7322959197333fe8fcc0e18b511e1e64736f6c63430008140033","linkReferences":{}},"methodIdentifiers":{"MIN_PRICE_FOR_NEW_POLICIES()":"d5e38a4b","RESET_PRICE_FOR_NEW_POLICIES()":"d3de49ae","UPGRADE_INTERFACE_VERSION()":"ad3cb1cc","authorizedRelayers(address)":"29e295c5","autoPausedOnce()":"eadb3079","capacityOracle()":"51abb0c2","configureProduct(bytes32,uint256,uint256,uint256,uint32,bool)":"b41fe121","getProductConfig(bytes32)":"0e27e635","getProductCount()":"4a348da9","initialize(address,address,address)":"c0c53b8b","isProtocolAutoPaused()":"3fe3fd8e","owner()":"8da5cb5b","paused()":"5c975abb","policyManager()":"ab3dbf3b","productList(uint256)":"528c87d2","products(bytes32)":"79054391","proxiableUUID()":"52d1902d","purchasePolicy(bytes32,uint256,bytes32)":"28e01961","purchasePolicyFor(bytes32,uint256,bytes32,address)":"bb0bec2a","quotePremium(bytes32,uint256)":"9fe8af40","recoverToken(address,uint256,address)":"d04323c5","renounceOwnership()":"715018a6","setCapacityOracle(address)":"2919b815","setPaused(bool)":"16c38b3c","setPolicyManager(address)":"adde41e1","setRelayer(address,bool)":"ecd8dc3a","setTwapBurner(address)":"45e48f55","submitTrigger(bytes32,uint256,bytes)":"d3ff498c","syncCircuitBreaker()":"8899c492","transferOwnership(address)":"f2fde38b","twapBurner()":"b5a54188","upgradeToAndCall(address,bytes)":"4f1ef286","usdc()":"3e413bee"},"id":76}