{"abi":[{"type":"constructor","inputs":[],"stateMutability":"nonpayable"},{"type":"function","name":"BURNER_ROLE","inputs":[],"outputs":[{"name":"","type":"bytes32","internalType":"bytes32"}],"stateMutability":"view"},{"type":"function","name":"DEFAULT_ADMIN_ROLE","inputs":[],"outputs":[{"name":"","type":"bytes32","internalType":"bytes32"}],"stateMutability":"view"},{"type":"function","name":"MAX_SUPPLY","inputs":[],"outputs":[{"name":"","type":"uint256","internalType":"uint256"}],"stateMutability":"view"},{"type":"function","name":"UPGRADE_INTERFACE_VERSION","inputs":[],"outputs":[{"name":"","type":"string","internalType":"string"}],"stateMutability":"view"},{"type":"function","name":"allowance","inputs":[{"name":"owner","type":"address","internalType":"address"},{"name":"spender","type":"address","internalType":"address"}],"outputs":[{"name":"","type":"uint256","internalType":"uint256"}],"stateMutability":"view"},{"type":"function","name":"approve","inputs":[{"name":"spender","type":"address","internalType":"address"},{"name":"value","type":"uint256","internalType":"uint256"}],"outputs":[{"name":"","type":"bool","internalType":"bool"}],"stateMutability":"nonpayable"},{"type":"function","name":"balanceOf","inputs":[{"name":"account","type":"address","internalType":"address"}],"outputs":[{"name":"","type":"uint256","internalType":"uint256"}],"stateMutability":"view"},{"type":"function","name":"burn","inputs":[{"name":"value","type":"uint256","internalType":"uint256"}],"outputs":[],"stateMutability":"nonpayable"},{"type":"function","name":"burnFrom","inputs":[{"name":"account","type":"address","internalType":"address"},{"name":"amount","type":"uint256","internalType":"uint256"}],"outputs":[],"stateMutability":"nonpayable"},{"type":"function","name":"decimals","inputs":[],"outputs":[{"name":"","type":"uint8","internalType":"uint8"}],"stateMutability":"view"},{"type":"function","name":"getRoleAdmin","inputs":[{"name":"role","type":"bytes32","internalType":"bytes32"}],"outputs":[{"name":"","type":"bytes32","internalType":"bytes32"}],"stateMutability":"view"},{"type":"function","name":"grantRole","inputs":[{"name":"role","type":"bytes32","internalType":"bytes32"},{"name":"account","type":"address","internalType":"address"}],"outputs":[],"stateMutability":"nonpayable"},{"type":"function","name":"hasRole","inputs":[{"name":"role","type":"bytes32","internalType":"bytes32"},{"name":"account","type":"address","internalType":"address"}],"outputs":[{"name":"","type":"bool","internalType":"bool"}],"stateMutability":"view"},{"type":"function","name":"initialize","inputs":[{"name":"bondVault","type":"address","internalType":"address"},{"name":"cexLiquidityReserve","type":"address","internalType":"address"},{"name":"founderVesting","type":"address","internalType":"address"},{"name":"lbpDeposit","type":"address","internalType":"address"},{"name":"treasuryVesting","type":"address","internalType":"address"}],"outputs":[],"stateMutability":"nonpayable"},{"type":"function","name":"name","inputs":[],"outputs":[{"name":"","type":"string","internalType":"string"}],"stateMutability":"view"},{"type":"function","name":"proxiableUUID","inputs":[],"outputs":[{"name":"","type":"bytes32","internalType":"bytes32"}],"stateMutability":"view"},{"type":"function","name":"renounceRole","inputs":[{"name":"role","type":"bytes32","internalType":"bytes32"},{"name":"callerConfirmation","type":"address","internalType":"address"}],"outputs":[],"stateMutability":"nonpayable"},{"type":"function","name":"revokeRole","inputs":[{"name":"role","type":"bytes32","internalType":"bytes32"},{"name":"account","type":"address","internalType":"address"}],"outputs":[],"stateMutability":"nonpayable"},{"type":"function","name":"supportsInterface","inputs":[{"name":"interfaceId","type":"bytes4","internalType":"bytes4"}],"outputs":[{"name":"","type":"bool","internalType":"bool"}],"stateMutability":"view"},{"type":"function","name":"symbol","inputs":[],"outputs":[{"name":"","type":"string","internalType":"string"}],"stateMutability":"view"},{"type":"function","name":"totalBurned","inputs":[],"outputs":[{"name":"","type":"uint256","internalType":"uint256"}],"stateMutability":"view"},{"type":"function","name":"totalSupply","inputs":[],"outputs":[{"name":"","type":"uint256","internalType":"uint256"}],"stateMutability":"view"},{"type":"function","name":"transfer","inputs":[{"name":"to","type":"address","internalType":"address"},{"name":"value","type":"uint256","internalType":"uint256"}],"outputs":[{"name":"","type":"bool","internalType":"bool"}],"stateMutability":"nonpayable"},{"type":"function","name":"transferFrom","inputs":[{"name":"from","type":"address","internalType":"address"},{"name":"to","type":"address","internalType":"address"},{"name":"value","type":"uint256","internalType":"uint256"}],"outputs":[{"name":"","type":"bool","internalType":"bool"}],"stateMutability":"nonpayable"},{"type":"function","name":"upgradeToAndCall","inputs":[{"name":"newImplementation","type":"address","internalType":"address"},{"name":"data","type":"bytes","internalType":"bytes"}],"outputs":[],"stateMutability":"payable"},{"type":"event","name":"Approval","inputs":[{"name":"owner","type":"address","indexed":true,"internalType":"address"},{"name":"spender","type":"address","indexed":true,"internalType":"address"},{"name":"value","type":"uint256","indexed":false,"internalType":"uint256"}],"anonymous":false},{"type":"event","name":"Initialized","inputs":[{"name":"version","type":"uint64","indexed":false,"internalType":"uint64"}],"anonymous":false},{"type":"event","name":"RoleAdminChanged","inputs":[{"name":"role","type":"bytes32","indexed":true,"internalType":"bytes32"},{"name":"previousAdminRole","type":"bytes32","indexed":true,"internalType":"bytes32"},{"name":"newAdminRole","type":"bytes32","indexed":true,"internalType":"bytes32"}],"anonymous":false},{"type":"event","name":"RoleGranted","inputs":[{"name":"role","type":"bytes32","indexed":true,"internalType":"bytes32"},{"name":"account","type":"address","indexed":true,"internalType":"address"},{"name":"sender","type":"address","indexed":true,"internalType":"address"}],"anonymous":false},{"type":"event","name":"RoleRevoked","inputs":[{"name":"role","type":"bytes32","indexed":true,"internalType":"bytes32"},{"name":"account","type":"address","indexed":true,"internalType":"address"},{"name":"sender","type":"address","indexed":true,"internalType":"address"}],"anonymous":false},{"type":"event","name":"Transfer","inputs":[{"name":"from","type":"address","indexed":true,"internalType":"address"},{"name":"to","type":"address","indexed":true,"internalType":"address"},{"name":"value","type":"uint256","indexed":false,"internalType":"uint256"}],"anonymous":false},{"type":"event","name":"Upgraded","inputs":[{"name":"implementation","type":"address","indexed":true,"internalType":"address"}],"anonymous":false},{"type":"error","name":"AccessControlBadConfirmation","inputs":[]},{"type":"error","name":"AccessControlUnauthorizedAccount","inputs":[{"name":"account","type":"address","internalType":"address"},{"name":"neededRole","type":"bytes32","internalType":"bytes32"}]},{"type":"error","name":"AddressEmptyCode","inputs":[{"name":"target","type":"address","internalType":"address"}]},{"type":"error","name":"ERC1967InvalidImplementation","inputs":[{"name":"implementation","type":"address","internalType":"address"}]},{"type":"error","name":"ERC1967NonPayable","inputs":[]},{"type":"error","name":"ERC20InsufficientAllowance","inputs":[{"name":"spender","type":"address","internalType":"address"},{"name":"allowance","type":"uint256","internalType":"uint256"},{"name":"needed","type":"uint256","internalType":"uint256"}]},{"type":"error","name":"ERC20InsufficientBalance","inputs":[{"name":"sender","type":"address","internalType":"address"},{"name":"balance","type":"uint256","internalType":"uint256"},{"name":"needed","type":"uint256","internalType":"uint256"}]},{"type":"error","name":"ERC20InvalidApprover","inputs":[{"name":"approver","type":"address","internalType":"address"}]},{"type":"error","name":"ERC20InvalidReceiver","inputs":[{"name":"receiver","type":"address","internalType":"address"}]},{"type":"error","name":"ERC20InvalidSender","inputs":[{"name":"sender","type":"address","internalType":"address"}]},{"type":"error","name":"ERC20InvalidSpender","inputs":[{"name":"spender","type":"address","internalType":"address"}]},{"type":"error","name":"FailedInnerCall","inputs":[]},{"type":"error","name":"InvalidInitialization","inputs":[]},{"type":"error","name":"NotInitializing","inputs":[]},{"type":"error","name":"UUPSUnauthorizedCallContext","inputs":[]},{"type":"error","name":"UUPSUnsupportedProxiableUUID","inputs":[{"name":"slot","type":"bytes32","internalType":"bytes32"}]}],"bytecode":{"object":"0x60a080604052346100cc57306080527ff0c57e16840df040f15088dc2f81fe391c3923bec73e23a9662efc9c229c6a009081549060ff8260401c166100bd57506001600160401b036002600160401b031982821601610078575b604051611e3390816100d282396080518181816104df01526105c50152f35b6001600160401b031990911681179091556040519081527fc7f505b2f371ae2175ee4913f4499e1f2633a7b5936321eed1cdaeb6115181d290602090a1388080610059565b63f92ee8a960e01b8152600490fd5b600080fdfe608080604052600436101561001357600080fd5b60003560e01c90816301ffc9a7146117485750806306fdde03146116a5578063095ea7b3146116245780631459457a14610a5657806318160ddd14610a2b57806323b872dd14610946578063248a9ca31461090a578063282c51f3146108cf5780632f2ff15d14610883578063313ce5671461086757806332cb6b0c1461084157806336568abe146107fa57806342966c68146107dd5780634f1ef2861461054957806352d1902d146104cc57806370a082311461048557806379cc6790146103e957806391d148541461038f57806395d89b41146102b5578063a217fddf14610299578063a9059cbb14610268578063ad3cb1cc14610226578063d547741f146101d8578063d89135cd146101805763dd62ed3e1461013257600080fd5b3461017b57604036600319011261017b5761014b6117e4565b61015c6101566117fa565b9161186a565b9060018060a01b03166000526020526020604060002054604051908152f35b600080fd5b3461017b57600036600319011261017b57600080516020611d7e833981519152546a52b7d2dcc80cd2e40000009081039081116101c257602090604051908152f35b634e487b7160e01b600052601160045260246000fd5b3461017b57604036600319011261017b576102246004356101f76117fa565b9080600052600080516020611d9e83398151915260205261021f6001604060002001546118a3565b611a03565b005b3461017b57600036600319011261017b5761026460405161024681611810565b60058152640352e302e360dc1b60208201526040519182918261179b565b0390f35b3461017b57604036600319011261017b5761028e6102846117e4565b6024359033611ac0565b602060405160018152f35b3461017b57600036600319011261017b57602060405160008152f35b3461017b57600036600319011261017b576040516000600080516020611d5e83398151915280546102e581611a86565b80855291600191808316908115610365575060011461031b575b6102648561030f8187038261182c565b6040519182918261179b565b60009081529250600080516020611dbe8339815191525b82841061034d57505050810160200161030f826102646102ff565b80546020858701810191909152909301928101610332565b8695506102649693506020925061030f94915060ff191682840152151560051b82010192936102ff565b3461017b57604036600319011261017b576103a86117fa565b600435600052600080516020611d9e83398151915260205260406000209060018060a01b0316600052602052602060ff604060002054166040519015158152f35b3461017b57604036600319011261017b576104026117e4565b3360009081527ffcf1b2032b1187d9f2a29150c4a608b3b6f0bdf8dd007801f86a276af50cad9260205260409020547f3c11d16cbaffd01df69ce1c404f6340ee057498f5f00246190ea54220576a8489060ff16156104675761022460243583611bae565b6044906040519063e2517d3f60e01b82523360048301526024820152fd5b3461017b57602036600319011261017b576001600160a01b036104a66117e4565b16600052600080516020611d3e8339815191526020526020604060002054604051908152f35b3461017b57600036600319011261017b577f00000000000000000000000000000000000000000000000000000000000000006001600160a01b031630036105375760206040517f360894a13ba1a3210667c828492db98dca3e2076cc3735a920a3ca505d382bbc8152f35b60405163703e46dd60e11b8152600490fd5b604036600319011261017b5761055d6117e4565b602490813567ffffffffffffffff811161017b573660238201121561017b57806004013561058a8161184e565b92610598604051948561182c565b818452602091828501933687838301011161017b5781600092888693018737860101526001600160a01b037f000000000000000000000000000000000000000000000000000000000000000081163081149081156107af575b506105375760008052600080516020611d9e8339815191528352604060002033600052835260ff6040600020541615610791578116936040516352d1902d60e01b81528381600481895afa60009181610762575b5061066257604051634c9c8ce360e01b8152600481018790528790fd5b8590877f360894a13ba1a3210667c828492db98dca3e2076cc3735a920a3ca505d382bbc9182810361074d5750843b15610737575080546001600160a01b03191682179055604051907fbc7cd75a20ee27fd9adebab32041f755214dbc6bffa90cc0225b39da2e5c2d3b600080a281511561071c575060006102249481925190845af4903d15610713573d6106f68161184e565b90610704604051928361182c565b8152600081943d92013e611c6b565b60609250611c6b565b93505050503461072857005b63b398979f60e01b8152600490fd5b604051634c9c8ce360e01b815260048101849052fd5b60405190632a87526960e21b82526004820152fd5b9091508481813d831161078a575b61077a818361182c565b8101031261017b57519088610645565b503d610770565b60405163e2517d3f60e01b8152336004820152600081880152604490fd5b9050817f360894a13ba1a3210667c828492db98dca3e2076cc3735a920a3ca505d382bbc54161415876105f1565b3461017b57602036600319011261017b5761022460043533611bae565b3461017b57604036600319011261017b576108136117fa565b336001600160a01b0382160361082f5761022490600435611a03565b60405163334bd91960e11b8152600490fd5b3461017b57600036600319011261017b5760206040516a52b7d2dcc80cd2e40000008152f35b3461017b57600036600319011261017b57602060405160128152f35b3461017b57604036600319011261017b576102246004356108a26117fa565b9080600052600080516020611d9e8339815191526020526108ca6001604060002001546118a3565b611976565b3461017b57600036600319011261017b5760206040517f3c11d16cbaffd01df69ce1c404f6340ee057498f5f00246190ea54220576a8488152f35b3461017b57602036600319011261017b57600435600052600080516020611d9e8339815191526020526020600160406000200154604051908152f35b3461017b57606036600319011261017b5761095f6117e4565b6109676117fa565b604435906109748361186a565b33600052602052604060002054926000198403610996575b61028e9350611ac0565b828410610a05576001600160a01b038116156109ec5733156109d3578261028e946109c08361186a565b336000526020520360406000205561098c565b604051634a1406b160e11b815260006004820152602490fd5b60405163e602df0560e01b815260006004820152602490fd5b604051637dc7a0d960e11b81523360048201526024810185905260448101849052606490fd5b3461017b57600036600319011261017b576020600080516020611d7e83398151915254604051908152f35b3461017b5760a036600319011261017b57610a6f6117e4565b610a776117fa565b6044356001600160a01b038116810361017b576064356001600160a01b038116810361017b57608435926001600160a01b038416840361017b57600080516020611dde833981519152549467ffffffffffffffff861680159081611614575b600114908161160a575b159081611601575b506115ef57600167ffffffffffffffff19871617600080516020611dde8339815191525560ff8660401c16156115c2575b604051610b2581611810565b600f81526e131d5b5a5b9848141c9bdd1bd8dbdb608a1b602082015260405190610b4e82611810565b60068252654c554d494e4160d01b6020830152610b69611cce565b610b71611cce565b80519067ffffffffffffffff821161148e578190610b9d600080516020611d1e83398151915254611a86565b601f8111611541575b50602090601f83116001146114af576000926114a4575b50508160011b916000199060031b1c191617600080516020611d1e833981519152555b80519067ffffffffffffffff821161148e578190610c0c600080516020611d5e83398151915254611a86565b601f811161140d575b50602090601f831160011461137b57600092611370575b50508160011b916000199060031b1c191617600080516020611d5e833981519152555b610c57611cce565b610c5f611cce565b610c67611cce565b6001600160a01b0316908115611332576001600160a01b03169182156112ed576001600160a01b038416156112a8576001600160a01b03811615611263576001600160a01b0385161561121e578282146111d9576001600160a01b0384168214611194576001600160a01b038116821461114f576001600160a01b038516821461110a576001600160a01b03841683146110c5576001600160a01b0381168314611080576001600160a01b038516831461103b576001600160a01b0384811690821614610ffd576001600160a01b0384811690861614610fb8576001600160a01b0381811690861614610f7357600080516020611d7e833981519152938454936a39e7139a8c08fa06000000938486018096116101c2576020958755806000526000600080516020611d3e83398151915295868852604082208181540190556040519081527fddf252ad1be2c89b69c2b068fc378daa952ba7f163c4a11628f55a4df523b3ef978891a385546a0b949d854f34fece0000008082018092116101c257602087916000938a5584845287825260408420818154019055604051908152a384546a069e10de76676d08000000918282018092116101c2579086556001600160a01b031660008181526020858152604080832080548601905551938452919290918691a383546a0422ca8b0a00a425000000918282018092116101c2579085556001600160a01b031660008181526020848152604080832080548601905551938452919290918591a38254916a027b46536c66c8e3000000928381018091116101c25784556001600160a01b03909416600081815260209283526040808220805486019055519384526a52b7d2dcc80cd2e4000000959193909290a35403610f5d5760ff90610ef8336118d6565b5060401c1615610f0457005b68ff000000000000000019600080516020611dde8339815191525416600080516020611dde833981519152557fc7f505b2f371ae2175ee4913f4499e1f2633a7b5936321eed1cdaeb6115181d2602060405160018152a1005b634e487b7160e01b600052600160045260246000fd5b60405162461bcd60e51b815260206004820152601760248201527f4475706c69636174653a206c62702f74726561737572790000000000000000006044820152606490fd5b60405162461bcd60e51b815260206004820152601b60248201527f4475706c69636174653a20666f756e6465722f747265617375727900000000006044820152606490fd5b60405162461bcd60e51b815260206004820152601660248201527504475706c69636174653a20666f756e6465722f6c62760541b6044820152606490fd5b60405162461bcd60e51b815260206004820152601e60248201527f4475706c69636174653a20636578526573657276652f747265617375727900006044820152606490fd5b60405162461bcd60e51b815260206004820152601960248201527f4475706c69636174653a20636578526573657276652f6c6270000000000000006044820152606490fd5b60405162461bcd60e51b815260206004820152601d60248201527f4475706c69636174653a20636578526573657276652f666f756e6465720000006044820152606490fd5b60405162461bcd60e51b815260206004820152601d60248201527f4475706c69636174653a20626f6e645661756c742f74726561737572790000006044820152606490fd5b60405162461bcd60e51b815260206004820152601860248201527f4475706c69636174653a20626f6e645661756c742f6c627000000000000000006044820152606490fd5b60405162461bcd60e51b815260206004820152601c60248201527f4475706c69636174653a20626f6e645661756c742f666f756e646572000000006044820152606490fd5b60405162461bcd60e51b815260206004820152601f60248201527f4475706c69636174653a20626f6e645661756c742f63657852657365727665006044820152606490fd5b60405162461bcd60e51b815260206004820152601c60248201527f547265617375727956657374696e67207a65726f2061646472657373000000006044820152606490fd5b60405162461bcd60e51b815260206004820152601760248201527f4c42504465706f736974207a65726f20616464726573730000000000000000006044820152606490fd5b60405162461bcd60e51b815260206004820152601b60248201527f466f756e64657256657374696e67207a65726f206164647265737300000000006044820152606490fd5b60405162461bcd60e51b815260206004820152601760248201527f43455852657365727665207a65726f20616464726573730000000000000000006044820152606490fd5b60405162461bcd60e51b8152602060048201526016602482015275426f6e645661756c74207a65726f206164647265737360501b6044820152606490fd5b015190508880610c2c565b9250600080516020611d5e833981519152600052600080516020611dbe833981519152906000935b601f19841685106113f2576001945083601f198116106113d9575b505050811b01600080516020611d5e83398151915255610c4f565b015160001960f88460031b161c191690558880806113be565b818101518355602094850194600190930192909101906113a3565b909150600080516020611d5e833981519152600052601f830160051c600080516020611dbe8339815191520160208410611479575b908392915b601f820160051c600080516020611dbe83398151915201811061146a5750610c15565b60008155849350600101611447565b50600080516020611dbe833981519152611442565b634e487b7160e01b600052604160045260246000fd5b015190508980610bbd565b9250600080516020611d1e833981519152600052600080516020611cfe833981519152906000935b601f1984168510611526576001945083601f1981161061150d575b505050811b01600080516020611d1e83398151915255610be0565b015160001960f88460031b161c191690558980806114f2565b818101518355602094850194600190930192909101906114d7565b909150600080516020611d1e833981519152600052601f830160051c600080516020611cfe83398151915201602084106115ad575b908392915b601f820160051c600080516020611cfe83398151915201811061159e5750610ba6565b6000815584935060010161157b565b50600080516020611cfe833981519152611576565b68ffffffffffffffffff1986166801000000000000000117600080516020611dde83398151915255610b19565b60405163f92ee8a960e01b8152600490fd5b90501587610ae8565b303b159150610ae0565b604088901c60ff16159150610ad6565b3461017b57604036600319011261017b5761163d6117e4565b6024359033156109ec576001600160a01b03169081156109d3576116603361186a565b82600052602052806040600020556040519081527f8c5be1e5ebec7d5bd14f71427d1e84f3dd0314c0f7b2291e5b200ac8c7c3b92560203392a3602060405160018152f35b3461017b57600036600319011261017b576040516000600080516020611d1e83398151915280546116d581611a86565b8085529160019180831690811561036557506001146116fe576102648561030f8187038261182c565b60009081529250600080516020611cfe8339815191525b82841061173057505050810160200161030f826102646102ff565b80546020858701810191909152909301928101611715565b3461017b57602036600319011261017b576004359063ffffffff60e01b821680920361017b57602091637965db0b60e01b811490811561178a575b5015158152f35b6301ffc9a760e01b14905083611783565b6020808252825181830181905290939260005b8281106117d057505060409293506000838284010152601f8019910116010190565b8181018601518482016040015285016117ae565b600435906001600160a01b038216820361017b57565b602435906001600160a01b038216820361017b57565b6040810190811067ffffffffffffffff82111761148e57604052565b90601f8019910116810190811067ffffffffffffffff82111761148e57604052565b67ffffffffffffffff811161148e57601f01601f191660200190565b6001600160a01b031660009081527f52c63247e1f47db19d5ce0460030c497f067ca4cebf71ba98eeadabe20bace016020526040902090565b80600052600080516020611d9e83398151915260205260406000203360005260205260ff60406000205416156104675750565b6001600160a01b031660008181527fb7db2dd08fcb62d0c9e08c51941cae53c267786a0b75803fb7960902fc8ef97d6020526040812054909190600080516020611d9e8339815191529060ff16611971578280526020526040822081835260205260408220600160ff1982541617905533917f2f8788117e7eff1d82e926ec794901d17c78024a50270940304540a733656f0d8180a4600190565b505090565b90600091808352600080516020611d9e83398151915280602052604084209260018060a01b03169283855260205260ff604085205416156000146119fd578184526020526040832082845260205260408320600160ff198254161790557f2f8788117e7eff1d82e926ec794901d17c78024a50270940304540a733656f0d339380a4600190565b50505090565b90600091808352600080516020611d9e83398151915280602052604084209260018060a01b03169283855260205260ff6040852054166000146119fd57818452602052604083208284526020526040832060ff1981541690557ff6391f5c32d9c69d2a47ea670b442974b53935d1edc7fd64eb21e047a839171b339380a4600190565b90600182811c92168015611ab6575b6020831014611aa057565b634e487b7160e01b600052602260045260246000fd5b91607f1691611a95565b916001600160a01b03808416928315611b955716928315611b7c57600090838252600080516020611d3e83398151915280602052604083205491848310611b49575082847fddf252ad1be2c89b69c2b068fc378daa952ba7f163c4a11628f55a4df523b3ef959360409388602097528652038282205586815220818154019055604051908152a3565b60405163391434e360e21b81526001600160a01b0391909116600482015260248101929092525060448101839052606490fd5b60405163ec442f0560e01b815260006004820152602490fd5b604051634b637e8f60e11b815260006004820152602490fd5b91906001600160a01b038316908115611b955781600052600080516020611d3e8339815191528060205260406000205494828610611c3a5750817fddf252ad1be2c89b69c2b068fc378daa952ba7f163c4a11628f55a4df523b3ef92600095966020938688528452036040862055600080516020611d7e833981519152818154039055604051908152a3565b60405163391434e360e21b81526001600160a01b039190911660048201526024810186905260448101839052606490fd5b90611c925750805115611c8057805190602001fd5b604051630a12f52160e11b8152600490fd5b81511580611cc5575b611ca3575090565b604051639996b31560e01b81526001600160a01b039091166004820152602490fd5b50803b15611c9b565b60ff600080516020611dde8339815191525460401c1615611ceb57565b604051631afcd79f60e31b8152600490fdfe2ae08a8e29253f69ac5d979a101956ab8f8d9d7ded63fa7a83b16fc47648eab052c63247e1f47db19d5ce0460030c497f067ca4cebf71ba98eeadabe20bace0352c63247e1f47db19d5ce0460030c497f067ca4cebf71ba98eeadabe20bace0052c63247e1f47db19d5ce0460030c497f067ca4cebf71ba98eeadabe20bace0452c63247e1f47db19d5ce0460030c497f067ca4cebf71ba98eeadabe20bace0202dd7bc7dec4dceedda775e58dd541e08a116c6c53815c0bd028192f7b62680046a2803e59a4de4e7a4c574b1243f25977ac4c77d5a1a4a609b5394cebb4a2aaf0c57e16840df040f15088dc2f81fe391c3923bec73e23a9662efc9c229c6a00a264697066735822122030dfbf1425110ad249ef2141cf0c35d0fee82f562034643ce7bafeef730f2c6064736f6c63430008140033","linkReferences":{}},"methodIdentifiers":{"BURNER_ROLE()":"282c51f3","DEFAULT_ADMIN_ROLE()":"a217fddf","MAX_SUPPLY()":"32cb6b0c","UPGRADE_INTERFACE_VERSION()":"ad3cb1cc","allowance(address,address)":"dd62ed3e","approve(address,uint256)":"095ea7b3","balanceOf(address)":"70a08231","burn(uint256)":"42966c68","burnFrom(address,uint256)":"79cc6790","decimals()":"313ce567","getRoleAdmin(bytes32)":"248a9ca3","grantRole(bytes32,address)":"2f2ff15d","hasRole(bytes32,address)":"91d14854","initialize(address,address,address,address,address)":"1459457a","name()":"06fdde03","proxiableUUID()":"52d1902d","renounceRole(bytes32,address)":"36568abe","revokeRole(bytes32,address)":"d547741f","supportsInterface(bytes4)":"01ffc9a7","symbol()":"95d89b41","totalBurned()":"d89135cd","totalSupply()":"18160ddd","transfer(address,uint256)":"a9059cbb","transferFrom(address,address,uint256)":"23b872dd","upgradeToAndCall(address,bytes)":"4f1ef286"},"id":100}