{"abi":[{"type":"constructor","inputs":[],"stateMutability":"nonpayable"},{"type":"function","name":"UPGRADE_INTERFACE_VERSION","inputs":[],"outputs":[{"name":"","type":"string","internalType":"string"}],"stateMutability":"view"},{"type":"function","name":"activePolicies","inputs":[],"outputs":[{"name":"","type":"uint256","internalType":"uint256"}],"stateMutability":"view"},{"type":"function","name":"bondVault","inputs":[],"outputs":[{"name":"","type":"address","internalType":"contract IBondVault"}],"stateMutability":"view"},{"type":"function","name":"deactivateProduct","inputs":[{"name":"_productId","type":"bytes32","internalType":"bytes32"}],"outputs":[],"stateMutability":"nonpayable"},{"type":"function","name":"getActivePolicyIds","inputs":[{"name":"productId","type":"bytes32","internalType":"bytes32"},{"name":"maxResults","type":"uint256","internalType":"uint256"}],"outputs":[{"name":"policyIds_","type":"uint256[]","internalType":"uint256[]"}],"stateMutability":"view"},{"type":"function","name":"getPolicy","inputs":[{"name":"productId","type":"bytes32","internalType":"bytes32"},{"name":"policyId","type":"uint256","internalType":"uint256"}],"outputs":[{"name":"","type":"tuple","internalType":"struct PolicyManagerV2.PolicyRecord","components":[{"name":"productId","type":"bytes32","internalType":"bytes32"},{"name":"shield","type":"address","internalType":"address"},{"name":"buyer","type":"address","internalType":"address"},{"name":"coverageAmount","type":"uint256","internalType":"uint256"},{"name":"payoutAmount","type":"uint256","internalType":"uint256"},{"name":"premiumPaid","type":"uint256","internalType":"uint256"},{"name":"createdAt","type":"uint256","internalType":"uint256"},{"name":"expiresAt","type":"uint256","internalType":"uint256"},{"name":"triggered","type":"bool","internalType":"bool"},{"name":"expired","type":"bool","internalType":"bool"}]}],"stateMutability":"view"},{"type":"function","name":"getProductCount","inputs":[],"outputs":[{"name":"","type":"uint256","internalType":"uint256"}],"stateMutability":"view"},{"type":"function","name":"getStats","inputs":[],"outputs":[{"name":"_totalPolicies","type":"uint256","internalType":"uint256"},{"name":"_activePolicies","type":"uint256","internalType":"uint256"},{"name":"_totalTriggers","type":"uint256","internalType":"uint256"},{"name":"_totalBondsIssuedUSD","type":"uint256","internalType":"uint256"},{"name":"_availableCapacity","type":"uint256","internalType":"uint256"}],"stateMutability":"view"},{"type":"function","name":"initialize","inputs":[{"name":"_bondVault","type":"address","internalType":"address"}],"outputs":[],"stateMutability":"nonpayable"},{"type":"function","name":"markExpired","inputs":[{"name":"productId","type":"bytes32","internalType":"bytes32"},{"name":"policyId","type":"uint256","internalType":"uint256"}],"outputs":[],"stateMutability":"nonpayable"},{"type":"function","name":"owner","inputs":[],"outputs":[{"name":"","type":"address","internalType":"address"}],"stateMutability":"view"},{"type":"function","name":"policies","inputs":[{"name":"","type":"bytes32","internalType":"bytes32"},{"name":"","type":"uint256","internalType":"uint256"}],"outputs":[{"name":"productId","type":"bytes32","internalType":"bytes32"},{"name":"shield","type":"address","internalType":"address"},{"name":"buyer","type":"address","internalType":"address"},{"name":"coverageAmount","type":"uint256","internalType":"uint256"},{"name":"payoutAmount","type":"uint256","internalType":"uint256"},{"name":"premiumPaid","type":"uint256","internalType":"uint256"},{"name":"createdAt","type":"uint256","internalType":"uint256"},{"name":"expiresAt","type":"uint256","internalType":"uint256"},{"name":"triggered","type":"bool","internalType":"bool"},{"name":"expired","type":"bool","internalType":"bool"}],"stateMutability":"view"},{"type":"function","name":"policyReservedUSD","inputs":[{"name":"","type":"bytes32","internalType":"bytes32"},{"name":"","type":"uint256","internalType":"uint256"}],"outputs":[{"name":"","type":"uint256","internalType":"uint256"}],"stateMutability":"view"},{"type":"function","name":"productActive","inputs":[{"name":"","type":"bytes32","internalType":"bytes32"}],"outputs":[{"name":"","type":"bool","internalType":"bool"}],"stateMutability":"view"},{"type":"function","name":"productIds","inputs":[{"name":"","type":"uint256","internalType":"uint256"}],"outputs":[{"name":"","type":"bytes32","internalType":"bytes32"}],"stateMutability":"view"},{"type":"function","name":"productShield","inputs":[{"name":"","type":"bytes32","internalType":"bytes32"}],"outputs":[{"name":"","type":"address","internalType":"address"}],"stateMutability":"view"},{"type":"function","name":"proxiableUUID","inputs":[],"outputs":[{"name":"","type":"bytes32","internalType":"bytes32"}],"stateMutability":"view"},{"type":"function","name":"recordPolicy","inputs":[{"name":"productId","type":"bytes32","internalType":"bytes32"},{"name":"buyer","type":"address","internalType":"address"},{"name":"coverageAmount","type":"uint256","internalType":"uint256"},{"name":"premiumAmount","type":"uint256","internalType":"uint256"},{"name":"durationSeconds","type":"uint32","internalType":"uint32"},{"name":"asset","type":"bytes32","internalType":"bytes32"}],"outputs":[{"name":"policyId","type":"uint256","internalType":"uint256"}],"stateMutability":"nonpayable"},{"type":"function","name":"registerProduct","inputs":[{"name":"_productId","type":"bytes32","internalType":"bytes32"},{"name":"_shield","type":"address","internalType":"address"}],"outputs":[],"stateMutability":"nonpayable"},{"type":"function","name":"renounceOwnership","inputs":[],"outputs":[],"stateMutability":"nonpayable"},{"type":"function","name":"router","inputs":[],"outputs":[{"name":"","type":"address","internalType":"address"}],"stateMutability":"view"},{"type":"function","name":"setRouter","inputs":[{"name":"_router","type":"address","internalType":"address"}],"outputs":[],"stateMutability":"nonpayable"},{"type":"function","name":"settlePolicy","inputs":[{"name":"productId","type":"bytes32","internalType":"bytes32"},{"name":"policyId","type":"uint256","internalType":"uint256"},{"name":"triggered","type":"bool","internalType":"bool"}],"outputs":[],"stateMutability":"nonpayable"},{"type":"function","name":"totalBondsIssuedUSD","inputs":[],"outputs":[{"name":"","type":"uint256","internalType":"uint256"}],"stateMutability":"view"},{"type":"function","name":"totalPolicies","inputs":[],"outputs":[{"name":"","type":"uint256","internalType":"uint256"}],"stateMutability":"view"},{"type":"function","name":"totalTriggers","inputs":[],"outputs":[{"name":"","type":"uint256","internalType":"uint256"}],"stateMutability":"view"},{"type":"function","name":"transferOwnership","inputs":[{"name":"newOwner","type":"address","internalType":"address"}],"outputs":[],"stateMutability":"nonpayable"},{"type":"function","name":"triggerPayout","inputs":[{"name":"productId","type":"bytes32","internalType":"bytes32"},{"name":"policyId","type":"uint256","internalType":"uint256"},{"name":"oracleProof","type":"bytes","internalType":"bytes"}],"outputs":[],"stateMutability":"nonpayable"},{"type":"function","name":"upgradeToAndCall","inputs":[{"name":"newImplementation","type":"address","internalType":"address"},{"name":"data","type":"bytes","internalType":"bytes"}],"outputs":[],"stateMutability":"payable"},{"type":"event","name":"Initialized","inputs":[{"name":"version","type":"uint64","indexed":false,"internalType":"uint64"}],"anonymous":false},{"type":"event","name":"OwnershipTransferred","inputs":[{"name":"previousOwner","type":"address","indexed":true,"internalType":"address"},{"name":"newOwner","type":"address","indexed":true,"internalType":"address"}],"anonymous":false},{"type":"event","name":"PolicyCreated","inputs":[{"name":"productId","type":"bytes32","indexed":true,"internalType":"bytes32"},{"name":"policyId","type":"uint256","indexed":true,"internalType":"uint256"},{"name":"buyer","type":"address","indexed":false,"internalType":"address"},{"name":"coverage","type":"uint256","indexed":false,"internalType":"uint256"},{"name":"premium","type":"uint256","indexed":false,"internalType":"uint256"},{"name":"payout","type":"uint256","indexed":false,"internalType":"uint256"}],"anonymous":false},{"type":"event","name":"PolicyExpired","inputs":[{"name":"productId","type":"bytes32","indexed":true,"internalType":"bytes32"},{"name":"policyId","type":"uint256","indexed":true,"internalType":"uint256"}],"anonymous":false},{"type":"event","name":"PolicyTriggered","inputs":[{"name":"productId","type":"bytes32","indexed":true,"internalType":"bytes32"},{"name":"policyId","type":"uint256","indexed":true,"internalType":"uint256"},{"name":"buyer","type":"address","indexed":false,"internalType":"address"},{"name":"bondAmount","type":"uint256","indexed":false,"internalType":"uint256"},{"name":"reason","type":"bytes32","indexed":false,"internalType":"bytes32"}],"anonymous":false},{"type":"event","name":"ProductDeactivated","inputs":[{"name":"productId","type":"bytes32","indexed":true,"internalType":"bytes32"}],"anonymous":false},{"type":"event","name":"ProductRegistered","inputs":[{"name":"productId","type":"bytes32","indexed":true,"internalType":"bytes32"},{"name":"shield","type":"address","indexed":false,"internalType":"address"}],"anonymous":false},{"type":"event","name":"RouterUpdated","inputs":[{"name":"oldRouter","type":"address","indexed":true,"internalType":"address"},{"name":"newRouter","type":"address","indexed":true,"internalType":"address"}],"anonymous":false},{"type":"event","name":"Upgraded","inputs":[{"name":"implementation","type":"address","indexed":true,"internalType":"address"}],"anonymous":false},{"type":"error","name":"AddressEmptyCode","inputs":[{"name":"target","type":"address","internalType":"address"}]},{"type":"error","name":"ERC1967InvalidImplementation","inputs":[{"name":"implementation","type":"address","internalType":"address"}]},{"type":"error","name":"ERC1967NonPayable","inputs":[]},{"type":"error","name":"FailedInnerCall","inputs":[]},{"type":"error","name":"InsufficientCapacity","inputs":[{"name":"required","type":"uint256","internalType":"uint256"},{"name":"available","type":"uint256","internalType":"uint256"}]},{"type":"error","name":"InvalidInitialization","inputs":[]},{"type":"error","name":"NotInitializing","inputs":[]},{"type":"error","name":"OnlyRouter","inputs":[]},{"type":"error","name":"OwnableInvalidOwner","inputs":[{"name":"owner","type":"address","internalType":"address"}]},{"type":"error","name":"OwnableUnauthorizedAccount","inputs":[{"name":"account","type":"address","internalType":"address"}]},{"type":"error","name":"ProductNotActive","inputs":[{"name":"productId","type":"bytes32","internalType":"bytes32"}]},{"type":"error","name":"ProductNotFound","inputs":[{"name":"productId","type":"bytes32","internalType":"bytes32"}]},{"type":"error","name":"UUPSUnauthorizedCallContext","inputs":[]},{"type":"error","name":"UUPSUnsupportedProxiableUUID","inputs":[{"name":"slot","type":"bytes32","internalType":"bytes32"}]}],"bytecode":{"object":"0x60a080604052346100cc57306080527ff0c57e16840df040f15088dc2f81fe391c3923bec73e23a9662efc9c229c6a009081549060ff8260401c166100bd57506001600160401b036002600160401b031982821601610078575b6040516120f290816100d2823960805181818161178401526118690152f35b6001600160401b031990911681179091556040519081527fc7f505b2f371ae2175ee4913f4499e1f2633a7b5936321eed1cdaeb6115181d290602090a1388080610059565b63f92ee8a960e01b8152600490fd5b600080fdfe608080604052600436101561001357600080fd5b600090813560e01c9081630729380314611c2f575080630a8377cf14611c115780630bbedebd14611bf35780632c68087d14611a925780632faf3c4814611a635780634a348da914611a455780634f1ef286146117ee57806352d1902d146117715780635e862564146117195780636635c0bb146115ac57806368149fa514611507578063715018a61461149c5780638da5cb5b1461146657806392cfce5e146110bd578063990826b3146110965780639c070ce414610f82578063a90a3e1714610f64578063ad3cb1cc14610f08578063b785cbc614610bf7578063bcbd730314610a93578063c0d78655146109ef578063c4d66de81461085e578063c59d4847146107aa578063cb51bba914610771578063d77f744514610744578063ea3486c1146101d6578063f059d78e146101b8578063f2fde38b1461018b5763f887ea401461016057600080fd5b346101885780600319360112610188576001546040516001600160a01b039091168152602090f35b80fd5b5034610188576020366003190112610188576101b56101a8611c77565b6101b0611d9b565b611dd4565b80f35b50346101885780600319360112610188576020600554604051908152f35b50346101885760c0366003190112610188576101f0611c8d565b6084359063ffffffff8216820361066a576001546001600160a01b03163303610732576004358352600260205260408320546001600160a01b031615610719576004358352600360205260ff6040842054161561070057611f40928360443502936044358504146044351517156106ec578054604051630b33c0c960e01b81526001600160a01b0390911690602081600481855afa9081156106e15783916106af575b50620f4240612710870404908181106106915750670de0b6b3a764000091818381020483148215171561067d57803b1561067957838091602460405180948193633bba374960e01b835288880260048401525af1801561066e57908491610656575b5050610302600554611eec565b600555610310600654611eec565b6006556004358352600260205260018060a01b0360408420541660405195866101008101106001600160401b036101008901111761064057610100870160405260018060a01b03861687526044356020880152606435604088015263ffffffff8116606088015260a4356080880152635553444360e01b60a08801528460c0880152604051968760208101106001600160401b0360208a0111176106405760208881016040908152878a5260e08301998a52805163aafbdf4760e01b81526004810183905283516001600160a01b039081166024830152848401516044830152918401516064820152606084015163ffffffff166084820152608084015160a482015260a084015160c482015260c0909301511660e483015297516101006101048301529097908890819061044a90610124830190611d0e565b038188865af19687156106355785976105ea575b5061271093602098938897969361047d63ffffffff6040951642611f11565b84519161048983611cb6565b60043583528c83015260018060a01b038916858301526044356060830152878704608083015260643560a08301524260c083015260e08201528461010082015284610120820152600435855260098b528385208986528b526008848620825181556001810160018060a01b038e85015116906001600160601b0360a01b9182825416179055600282019060018060a01b03888601511690825416179055606083015160038201556080830151600482015560a0830151600582015560c0830151600682015560e08301516007820155019061010081015115159060ff61ff006101208554930151151560081b1692169061ffff1916171790556004358452600a8a528284208885528a52029120556040519260018060a01b031683526044358684015260643560408401520460608201527f449aa1336e4b993fb6cd85824c2ae4ef1f6914cd71cb7095700ba0ab84bac96f608060043592a3604051908152f35b9095949193979296506020813d60201161062d575b8161060c60209383611cd2565b810103126106285751919691959394909391929061271061045e565b600080fd5b3d91506105ff565b6040513d87823e3d90fd5b634e487b7160e01b600052604160045260246000fd5b61065f90611ca3565b61066a5782386102f5565b8280fd5b6040513d86823e3d90fd5b8380fd5b634e487b7160e01b84526011600452602484fd5b6044925060405191631040f08960e01b835260048301526024820152fd5b90506020813d6020116106d9575b816106ca60209383611cd2565b81010312610628575138610293565b3d91506106bd565b6040513d85823e3d90fd5b634e487b7160e01b81526011600452602490fd5b60246040516355315f0d60e11b81526004356004820152fd5b602460405163b9780c7f60e01b81526004356004820152fd5b604051639e41bdd760e01b8152600490fd5b503461018857604060209161075836611c61565b908252600a845282822090825283522054604051908152f35b5034610188576020366003190112610188576004359060045482101561018857602061079c83611d4e565b90546040519160031b1c8152f35b50346101885780600319360112610188576005546006546007546008548454604051630b33c0c960e01b8152959391929190602090879060049082906001600160a01b03165afa938415610852579361081e575b60a095506040519485526020850152604084015260608301526080820152f35b92506020853d821161084a575b8161083860209383611cd2565b810103126106285760a09451926107fe565b3d915061082b565b604051903d90823e3d90fd5b503461018857602036600319011261018857610878611c77565b7ff0c57e16840df040f15088dc2f81fe391c3923bec73e23a9662efc9c229c6a009081549060ff8260401c1615916001600160401b038116801590816109e7575b60011490816109dd575b1590816109d4575b506109c25767ffffffffffffffff1981166001178455826109a3575b506108f0611eab565b6108f8611eab565b61090133611dd4565b610909611eab565b6001600160a01b0316801561096d5783546001600160a01b03191617835561092f575080f35b68ff00000000000000001981541690557fc7f505b2f371ae2175ee4913f4499e1f2633a7b5936321eed1cdaeb6115181d2602060405160018152a180f35b60405162461bcd60e51b815260206004820152600e60248201526d16995c9bc8189bdb9915985d5b1d60921b6044820152606490fd5b68ffffffffffffffffff191668010000000000000001178355386108e7565b60405163f92ee8a960e01b8152600490fd5b905015386108cb565b303b1591506108c3565b8491506108b9565b503461018857602036600319011261018857610a09611c77565b610a11611d9b565b6001600160a01b03908116908115610a6057600154826001600160601b0360a01b821617600155167f02dc5c233404867c793b749c6d644beb2277536d18a7e7974d3f238e4c6f16848380a380f35b60405162461bcd60e51b815260206004820152600b60248201526a2d32b937903937baba32b960a91b6044820152606490fd5b503461018857610140906101206040610aab36611c61565b82519491610ab886611cb6565b82865282602087015282848701528260608701528260808701528260a08701528260c08701528260e08701528285610100978289820152015282526009602052828220908252602052209160405190610b1082611cb6565b60ff600885549586855260018060a01b03600182015416602086015260018060a01b0360028201541660408601526003810154606086015260048101546080860152600581015460a0860152600681015460c0860152600781015460e0860152015481811615158385015260081c1615158383015260405193845260018060a01b03602083015116602085015260018060a01b036040830151166040850152606082015160608501526080820151608085015260a082015160a085015260c082015160c085015260e082015160e08501528082015115159084015201511515610120820152f35b503461018857606036600319011261018857602435600435604435801515810361067957818452600960209081526040808620858752825285206002810180546001600160a01b03949290610c4f9086161515611f1e565b600881018054610c6260ff821615611f5d565b610c7260ff8260081c1615611f9d565b866001840154163303610ed55790899291888452600a8752604084208a85528752604084205495600014610e1e5750620f424091600491600160ff19825416179055610cbf600654611fdb565b600655610ccd600754611eec565b60075501540492610cdf841515611fe8565b610ceb84600854611f11565b60085580610dbe575b50848154168583541690803b1561066a576040516335ad3fef60e11b81526001600160a01b039290921660048301526024820185905282908290604490829084905af18015610db357610d95575b5050907f3f5f7ac4178c4c6f8cb01ece34f42982c03c510d6d005802802da9e8887bcbc793606093925416916040519283528201527029a2aa2a2622a22fa12cafa5a2a2a822a960791b6040820152a380f35b610da29094939294611ca3565b610daf5790918638610d42565b8680fd5b6040513d84823e3d90fd5b868252600a85526040822088835285528160408120558582541690813b1561066a5782916024839260405194859384926305f1140360e51b845260048401525af18015610db35715610cf457610e1390611ca3565b610daf578638610cf4565b61ff00191661010017905550600654909492939150610e3c90611fdb565b60065582610e6f575b505050807f5ff9b85ee91fe7892bc6de1aec875d7d63f4b2f18ebb3c612ec39b6745014cdb91a380f35b848452600a815260408420908685525282604081205582541690813b1561066a57829160248392604051948593849263186c72ab60e01b845260048401525af18015610db357610ec1575b8080610e45565b610eca90611ca3565b61066a578238610eba565b60405162461bcd60e51b815260048101879052600b60248201526a13db9b1e481cda1a595b1960aa1b6044820152606490fd5b503461018857806003193601126101885760405160408101908082106001600160401b0383111761064057610f609160405260058152640352e302e360dc1b6020820152604051918291602083526020830190611d0e565b0390f35b50346101885780600319360112610188576020600754604051908152f35b503461018857604036600319011261018857600435610f9f611c8d565b610fa7611d9b565b6001600160a01b0316801561106357818352600260205260408320816001600160601b0360a01b825416179055600360205260408320600160ff198254161790556004546801000000000000000081101561104f577fc9484fe818367891478f62bbffa32d87f515bbcb8e28e2106e62c73335747baa9161103082600160209401600455611d4e565b81549060031b9086821b91600019901b1916179055604051908152a280f35b634e487b7160e01b84526041600452602484fd5b60405162461bcd60e51b815260206004820152600b60248201526a16995c9bc81cda1a595b1960aa1b6044820152606490fd5b5034610188578060031936011261018857546040516001600160a01b039091168152602090f35b5034610188576060366003190112610188576001600160401b036044351161018857366023604435011215610188576001600160401b0360443560040135116101885736602460443560040135604435010111610188576001546001600160a01b0316330361073257600435815260096020526040812060243582526020526040812061115760018060a01b036002830154161515611f1e565b600881016001815461116c60ff821615611f5d565b61117c60ff8260081c1615611f9d565b60ff191617905561118e600654611fdb565b60065561119c600754611eec565b600755620f42406004820154046111b4811515611fe8565b6111c081600854611f11565b6008556004358352600a602052604083206024358452602052826040812054806113fa575b505060018060a01b0360018301541691608060405180946340db982560e11b825260243560048301526040602483015260443560040135604483015260443560040135602460443501606484013786606460443560040135840101528187606482601f19601f60443560040135011681010301925af192831561066e57849361136b575b50825115611334578354600282015485916001600160a01b039182169116803b1561066a576040516335ad3fef60e11b81526001600160a01b039290921660048301526024820185905282908290604490829084905af18015610db357611320575b5050606090600260018060a01b03910154169201519060405192835260208301526040820152602435907f3f5f7ac4178c4c6f8cb01ece34f42982c03c510d6d005802802da9e8887bcbc7606060043592a380f35b61132990611ca3565b6106795783386112cb565b60405162461bcd60e51b815260206004820152600f60248201526e151c9a59d9d95c881b9bdd081b595d608a1b6044820152606490fd5b9092506080813d82116113f2575b8161138660809383611cd2565b810103126106795760405190608082018281106001600160401b0382111761064057604052805180151581036113ee578252602081810151908301526040810151906001600160a01b03821682036113ee576060916040840152015160608201529138611269565b8580fd5b3d9150611379565b6004358252600a60205260408220602435835260205281604081205560018060a01b0382541690813b1561066a5782916024839260405194859384926305f1140360e51b845260048401525af18015610db357156111e55761145b90611ca3565b61066a5782386111e5565b503461018857806003193601126101885760008051602061209d833981519152546040516001600160a01b039091168152602090f35b50346101885780600319360112610188576114b5611d9b565b60008051602061209d83398151915280546001600160a01b031981169091556000906001600160a01b03167f8be0079c531659141344cd1fd0a4f28419497f9722a3daafe3b4186f6b6457e08280a380f35b50346101885760406101409161151c36611c61565b90825260096020528282209082526020522060ff81549160018060a01b03908160018201541691600282015416600382015460048301546005840154916006850154936008600787015496015496604051998a5260208a015260408901526060880152608087015260a086015260c085015260e0840152818116151561010084015260081c161515610120820152f35b5034610188576115bb36611c61565b908083526020600981526040842083855281526040842060018060a01b03906115eb826002830154161515611f1e565b6008810190600782549161160260ff841615611f5d565b61161260ff8460081c1615611f9d565b01544211156116e25761ff0019166101001790556006548592919061163690611fdb565b600655838352600a82526040832085845282526040832054918261167e57505050807f5ff9b85ee91fe7892bc6de1aec875d7d63f4b2f18ebb3c612ec39b6745014cdb91a380f35b848452600a8152604084209086855252826040812055825416803b1561066a5760248392604051948593849263186c72ab60e01b845260048401525af1801561066e576116cf575b80808592610e45565b6116db90939193611ca3565b91386116c6565b60405162461bcd60e51b815260048101859052600f60248201526e139bdd08195e1c1a5c9959081e595d608a1b6044820152606490fd5b503461018857602036600319011261018857600435611736611d9b565b808252600360205260408220805460ff191690557fd1a08bc6f6fd987abbdce838e1ad6e4827b2aa77fec917ded7b01f6f14c310cf8280a280f35b50346101885780600319360112610188577f00000000000000000000000000000000000000000000000000000000000000006001600160a01b031630036117dc5760206040517f360894a13ba1a3210667c828492db98dca3e2076cc3735a920a3ca505d382bbc8152f35b60405163703e46dd60e11b8152600490fd5b50604036600319011261018857611803611c77565b60249182356001600160401b038111611a415736602382011215611a4157806004013561182f81611cf3565b9361183d6040519586611cd2565b81855260209182860193368883830101116113ee57818692898693018737870101526001600160a01b037f00000000000000000000000000000000000000000000000000000000000000008116308114908115611a13575b506117dc576118a2611d9b565b8116946040516352d1902d60e01b815283816004818a5afa8691816119e4575b506118df57604051634c9c8ce360e01b8152600481018890528890fd5b8690887f360894a13ba1a3210667c828492db98dca3e2076cc3735a920a3ca505d382bbc918281036119cf5750843b156119b9575080546001600160a01b031916821790556040518692917fbc7cd75a20ee27fd9adebab32041f755214dbc6bffa90cc0225b39da2e5c2d3b8480a281511561199b575061198e9482915190845af4903d15611992573d61197281611cf3565b906119806040519283611cd2565b81528581943d92013e611e48565b5080f35b60609250611e48565b945050505050346119aa575080f35b63b398979f60e01b8152600490fd5b604051634c9c8ce360e01b815260048101849052fd5b60405190632a87526960e21b82526004820152fd5b9091508481813d8311611a0c575b6119fc8183611cd2565b81010312610daf575190386118c2565b503d6119f2565b9050817f360894a13ba1a3210667c828492db98dca3e2076cc3735a920a3ca505d382bbc5416141538611895565b5080fd5b50346101885780600319360112610188576020600454604051908152f35b50346101885760203660031901126101885760ff60406020926004358152600384522054166040519015158152f35b503461018857611aa136611c61565b60059291925490611ab181612056565b93839160019384805b611b3e575b50505050611acc81612056565b93835b828110611b145750505060405191602080840190808552855180925280604086019601925b828110611b015785870386f35b8351875295810195928101928401611af4565b80611b25611b369284989698612088565b51611b308287612088565b52611eec565b949294611acf565b908181879997959493111580611bea575b15611be157838852600960209081526040808a20838b52909152882060028101546001600160a01b031615159081611bd1575b81611bbd575b50611ba2575b611b9790611eec565b909192939597611aba565b94611bb58187611b30611b97948b612088565b959050611b8e565b60ff9150600880910154901c161538611b88565b600881015460ff16159150611b82565b50969496611abf565b50828610611b4f565b50346101885780600319360112610188576020600854604051908152f35b50346101885780600319360112610188576020600654604051908152f35b905034611a41576020366003190112611a41576004358252600260209081526040909220546001600160a01b03168152f35b6040906003190112610628576004359060243590565b600435906001600160a01b038216820361062857565b602435906001600160a01b038216820361062857565b6001600160401b03811161064057604052565b61014081019081106001600160401b0382111761064057604052565b90601f801991011681019081106001600160401b0382111761064057604052565b6001600160401b03811161064057601f01601f191660200190565b919082519283825260005b848110611d3a575050826000602080949584010152601f8019910116010190565b602081830181015184830182015201611d19565b600454811015611d855760046000527f8a35acfbc15ff81a39ae7d344fd709f28e8600b4aa8c65c6b64bfe7fe36bd19b0190600090565b634e487b7160e01b600052603260045260246000fd5b60008051602061209d833981519152546001600160a01b03163303611dbc57565b60405163118cdaa760e01b8152336004820152602490fd5b6001600160a01b03908116908115611e2f5760008051602061209d83398151915280546001600160a01b031981168417909155167f8be0079c531659141344cd1fd0a4f28419497f9722a3daafe3b4186f6b6457e0600080a3565b604051631e4fbdf760e01b815260006004820152602490fd5b90611e6f5750805115611e5d57805190602001fd5b604051630a12f52160e11b8152600490fd5b81511580611ea2575b611e80575090565b604051639996b31560e01b81526001600160a01b039091166004820152602490fd5b50803b15611e78565b60ff7ff0c57e16840df040f15088dc2f81fe391c3923bec73e23a9662efc9c229c6a005460401c1615611eda57565b604051631afcd79f60e31b8152600490fd5b6000198114611efb5760010190565b634e487b7160e01b600052601160045260246000fd5b91908201809211611efb57565b15611f2557565b60405162461bcd60e51b815260206004820152601060248201526f141bdb1a58de481b9bdd08199bdd5b9960821b6044820152606490fd5b15611f6457565b60405162461bcd60e51b8152602060048201526011602482015270105b1c9958591e481d1c9a59d9d95c9959607a1b6044820152606490fd5b15611fa457565b60405162461bcd60e51b815260206004820152600f60248201526e105b1c9958591e48195e1c1a5c9959608a1b6044820152606490fd5b8015611efb576000190190565b15611fef57565b60405162461bcd60e51b815260206004820152602260248201527f5061796f757420746f6f20736d616c6c20666f7220626f6e642069737375616e604482015261636560f01b6064820152608490fd5b6001600160401b0381116106405760051b60200190565b906120608261203f565b61206d6040519182611cd2565b828152809261207e601f199161203f565b0190602036910137565b8051821015611d855760209160051b01019056fe9016d09d72d40fdae2fd8ceac6b6234c7706214fd39c1cd1e609a0528c199300a264697066735822122038b3505f4f6f486cb54e821cf6bfed7c4c641769f1c51cffe1f45ac889600a4f64736f6c63430008140033","linkReferences":{}},"methodIdentifiers":{"UPGRADE_INTERFACE_VERSION()":"ad3cb1cc","activePolicies()":"0a8377cf","bondVault()":"990826b3","deactivateProduct(bytes32)":"5e862564","getActivePolicyIds(bytes32,uint256)":"2c68087d","getPolicy(bytes32,uint256)":"bcbd7303","getProductCount()":"4a348da9","getStats()":"c59d4847","initialize(address)":"c4d66de8","markExpired(bytes32,uint256)":"6635c0bb","owner()":"8da5cb5b","policies(bytes32,uint256)":"68149fa5","policyReservedUSD(bytes32,uint256)":"d77f7445","productActive(bytes32)":"2faf3c48","productIds(uint256)":"cb51bba9","productShield(bytes32)":"07293803","proxiableUUID()":"52d1902d","recordPolicy(bytes32,address,uint256,uint256,uint32,bytes32)":"ea3486c1","registerProduct(bytes32,address)":"9c070ce4","renounceOwnership()":"715018a6","router()":"f887ea40","setRouter(address)":"c0d78655","settlePolicy(bytes32,uint256,bool)":"b785cbc6","totalBondsIssuedUSD()":"0bbedebd","totalPolicies()":"f059d78e","totalTriggers()":"a90a3e17","transferOwnership(address)":"f2fde38b","triggerPayout(bytes32,uint256,bytes)":"92cfce5e","upgradeToAndCall(address,bytes)":"4f1ef286"},"id":77}