{"abi":[{"type":"function","name":"UPGRADE_INTERFACE_VERSION","inputs":[],"outputs":[{"name":"","type":"string","internalType":"string"}],"stateMutability":"view"},{"type":"function","name":"authorizedOperators","inputs":[{"name":"","type":"address","internalType":"address"}],"outputs":[{"name":"","type":"bool","internalType":"bool"}],"stateMutability":"view"},{"type":"function","name":"balanceOf","inputs":[{"name":"account","type":"address","internalType":"address"},{"name":"id","type":"uint256","internalType":"uint256"}],"outputs":[{"name":"","type":"uint256","internalType":"uint256"}],"stateMutability":"view"},{"type":"function","name":"balanceOfBatch","inputs":[{"name":"accounts","type":"address[]","internalType":"address[]"},{"name":"ids","type":"uint256[]","internalType":"uint256[]"}],"outputs":[{"name":"","type":"uint256[]","internalType":"uint256[]"}],"stateMutability":"view"},{"type":"function","name":"bondVault","inputs":[],"outputs":[{"name":"","type":"address","internalType":"address"}],"stateMutability":"view"},{"type":"function","name":"burn","inputs":[{"name":"from","type":"address","internalType":"address"},{"name":"epochId","type":"uint256","internalType":"uint256"},{"name":"usdAmount","type":"uint256","internalType":"uint256"}],"outputs":[],"stateMutability":"nonpayable"},{"type":"function","name":"burnByHolder","inputs":[{"name":"account","type":"address","internalType":"address"},{"name":"epochId","type":"uint256","internalType":"uint256"},{"name":"amount","type":"uint256","internalType":"uint256"}],"outputs":[],"stateMutability":"nonpayable"},{"type":"function","name":"epochExists","inputs":[{"name":"","type":"uint256","internalType":"uint256"}],"outputs":[{"name":"","type":"bool","internalType":"bool"}],"stateMutability":"view"},{"type":"function","name":"exists","inputs":[{"name":"id","type":"uint256","internalType":"uint256"}],"outputs":[{"name":"","type":"bool","internalType":"bool"}],"stateMutability":"view"},{"type":"function","name":"getEpochInfo","inputs":[{"name":"epochId","type":"uint256","internalType":"uint256"}],"outputs":[{"name":"exists","type":"bool","internalType":"bool"},{"name":"maturity","type":"uint256","internalType":"uint256"},{"name":"totalSupply_","type":"uint256","internalType":"uint256"},{"name":"matured","type":"bool","internalType":"bool"}],"stateMutability":"view"},{"type":"function","name":"getFaceValue","inputs":[{"name":"epochId","type":"uint256","internalType":"uint256"}],"outputs":[{"name":"","type":"uint256","internalType":"uint256"}],"stateMutability":"view"},{"type":"function","name":"getHolderFaceValue","inputs":[{"name":"holder","type":"address","internalType":"address"},{"name":"epochId","type":"uint256","internalType":"uint256"}],"outputs":[{"name":"","type":"uint256","internalType":"uint256"}],"stateMutability":"view"},{"type":"function","name":"initialize","inputs":[],"outputs":[],"stateMutability":"nonpayable"},{"type":"function","name":"isApprovedForAll","inputs":[{"name":"account","type":"address","internalType":"address"},{"name":"operator","type":"address","internalType":"address"}],"outputs":[{"name":"","type":"bool","internalType":"bool"}],"stateMutability":"view"},{"type":"function","name":"isMatured","inputs":[{"name":"epochId","type":"uint256","internalType":"uint256"}],"outputs":[{"name":"","type":"bool","internalType":"bool"}],"stateMutability":"view"},{"type":"function","name":"maturityDate","inputs":[{"name":"","type":"uint256","internalType":"uint256"}],"outputs":[{"name":"","type":"uint256","internalType":"uint256"}],"stateMutability":"view"},{"type":"function","name":"mint","inputs":[{"name":"to","type":"address","internalType":"address"},{"name":"epochId","type":"uint256","internalType":"uint256"},{"name":"usdAmount","type":"uint256","internalType":"uint256"}],"outputs":[],"stateMutability":"nonpayable"},{"type":"function","name":"name","inputs":[],"outputs":[{"name":"","type":"string","internalType":"string"}],"stateMutability":"pure"},{"type":"function","name":"owner","inputs":[],"outputs":[{"name":"","type":"address","internalType":"address"}],"stateMutability":"view"},{"type":"function","name":"proxiableUUID","inputs":[],"outputs":[{"name":"","type":"bytes32","internalType":"bytes32"}],"stateMutability":"view"},{"type":"function","name":"reinitializeURI","inputs":[{"name":"version","type":"uint64","internalType":"uint64"}],"outputs":[],"stateMutability":"nonpayable"},{"type":"function","name":"renounceOwnership","inputs":[],"outputs":[],"stateMutability":"nonpayable"},{"type":"function","name":"safeBatchTransferFrom","inputs":[{"name":"from","type":"address","internalType":"address"},{"name":"to","type":"address","internalType":"address"},{"name":"ids","type":"uint256[]","internalType":"uint256[]"},{"name":"values","type":"uint256[]","internalType":"uint256[]"},{"name":"data","type":"bytes","internalType":"bytes"}],"outputs":[],"stateMutability":"nonpayable"},{"type":"function","name":"safeTransferFrom","inputs":[{"name":"from","type":"address","internalType":"address"},{"name":"to","type":"address","internalType":"address"},{"name":"id","type":"uint256","internalType":"uint256"},{"name":"value","type":"uint256","internalType":"uint256"},{"name":"data","type":"bytes","internalType":"bytes"}],"outputs":[],"stateMutability":"nonpayable"},{"type":"function","name":"setApprovalForAll","inputs":[{"name":"operator","type":"address","internalType":"address"},{"name":"approved","type":"bool","internalType":"bool"}],"outputs":[],"stateMutability":"nonpayable"},{"type":"function","name":"setAuthorizedOperator","inputs":[{"name":"operator","type":"address","internalType":"address"},{"name":"authorized","type":"bool","internalType":"bool"}],"outputs":[],"stateMutability":"nonpayable"},{"type":"function","name":"setBaseURI","inputs":[{"name":"newBaseURI","type":"string","internalType":"string"}],"outputs":[],"stateMutability":"nonpayable"},{"type":"function","name":"setBondVault","inputs":[{"name":"_bondVault","type":"address","internalType":"address"}],"outputs":[],"stateMutability":"nonpayable"},{"type":"function","name":"supportsInterface","inputs":[{"name":"interfaceId","type":"bytes4","internalType":"bytes4"}],"outputs":[{"name":"","type":"bool","internalType":"bool"}],"stateMutability":"view"},{"type":"function","name":"symbol","inputs":[],"outputs":[{"name":"","type":"string","internalType":"string"}],"stateMutability":"pure"},{"type":"function","name":"totalSupply","inputs":[],"outputs":[{"name":"","type":"uint256","internalType":"uint256"}],"stateMutability":"view"},{"type":"function","name":"totalSupply","inputs":[{"name":"id","type":"uint256","internalType":"uint256"}],"outputs":[{"name":"","type":"uint256","internalType":"uint256"}],"stateMutability":"view"},{"type":"function","name":"transferOwnership","inputs":[{"name":"newOwner","type":"address","internalType":"address"}],"outputs":[],"stateMutability":"nonpayable"},{"type":"function","name":"upgradeToAndCall","inputs":[{"name":"newImplementation","type":"address","internalType":"address"},{"name":"data","type":"bytes","internalType":"bytes"}],"outputs":[],"stateMutability":"payable"},{"type":"function","name":"uri","inputs":[{"name":"epochId","type":"uint256","internalType":"uint256"}],"outputs":[{"name":"","type":"string","internalType":"string"}],"stateMutability":"view"},{"type":"event","name":"ApprovalForAll","inputs":[{"name":"account","type":"address","indexed":true,"internalType":"address"},{"name":"operator","type":"address","indexed":true,"internalType":"address"},{"name":"approved","type":"bool","indexed":false,"internalType":"bool"}],"anonymous":false},{"type":"event","name":"BaseURIUpdated","inputs":[{"name":"oldBaseURI","type":"string","indexed":false,"internalType":"string"},{"name":"newBaseURI","type":"string","indexed":false,"internalType":"string"}],"anonymous":false},{"type":"event","name":"BondVaultSet","inputs":[{"name":"vault","type":"address","indexed":false,"internalType":"address"}],"anonymous":false},{"type":"event","name":"BondsBurned","inputs":[{"name":"epochId","type":"uint256","indexed":true,"internalType":"uint256"},{"name":"from","type":"address","indexed":true,"internalType":"address"},{"name":"usdAmount","type":"uint256","indexed":false,"internalType":"uint256"}],"anonymous":false},{"type":"event","name":"BondsBurnedByHolder","inputs":[{"name":"holder","type":"address","indexed":true,"internalType":"address"},{"name":"epochId","type":"uint256","indexed":true,"internalType":"uint256"},{"name":"amount","type":"uint256","indexed":false,"internalType":"uint256"}],"anonymous":false},{"type":"event","name":"BondsMinted","inputs":[{"name":"epochId","type":"uint256","indexed":true,"internalType":"uint256"},{"name":"to","type":"address","indexed":true,"internalType":"address"},{"name":"usdAmount","type":"uint256","indexed":false,"internalType":"uint256"}],"anonymous":false},{"type":"event","name":"EpochCreated","inputs":[{"name":"epochId","type":"uint256","indexed":true,"internalType":"uint256"},{"name":"maturityDate","type":"uint256","indexed":false,"internalType":"uint256"}],"anonymous":false},{"type":"event","name":"Initialized","inputs":[{"name":"version","type":"uint64","indexed":false,"internalType":"uint64"}],"anonymous":false},{"type":"event","name":"OperatorAuthorized","inputs":[{"name":"operator","type":"address","indexed":true,"internalType":"address"},{"name":"authorized","type":"bool","indexed":false,"internalType":"bool"}],"anonymous":false},{"type":"event","name":"OwnershipTransferred","inputs":[{"name":"previousOwner","type":"address","indexed":true,"internalType":"address"},{"name":"newOwner","type":"address","indexed":true,"internalType":"address"}],"anonymous":false},{"type":"event","name":"TransferBatch","inputs":[{"name":"operator","type":"address","indexed":true,"internalType":"address"},{"name":"from","type":"address","indexed":true,"internalType":"address"},{"name":"to","type":"address","indexed":true,"internalType":"address"},{"name":"ids","type":"uint256[]","indexed":false,"internalType":"uint256[]"},{"name":"values","type":"uint256[]","indexed":false,"internalType":"uint256[]"}],"anonymous":false},{"type":"event","name":"TransferSingle","inputs":[{"name":"operator","type":"address","indexed":true,"internalType":"address"},{"name":"from","type":"address","indexed":true,"internalType":"address"},{"name":"to","type":"address","indexed":true,"internalType":"address"},{"name":"id","type":"uint256","indexed":false,"internalType":"uint256"},{"name":"value","type":"uint256","indexed":false,"internalType":"uint256"}],"anonymous":false},{"type":"event","name":"URI","inputs":[{"name":"value","type":"string","indexed":false,"internalType":"string"},{"name":"id","type":"uint256","indexed":true,"internalType":"uint256"}],"anonymous":false},{"type":"event","name":"Upgraded","inputs":[{"name":"implementation","type":"address","indexed":true,"internalType":"address"}],"anonymous":false},{"type":"error","name":"AddressEmptyCode","inputs":[{"name":"target","type":"address","internalType":"address"}]},{"type":"error","name":"ERC1155InsufficientBalance","inputs":[{"name":"sender","type":"address","internalType":"address"},{"name":"balance","type":"uint256","internalType":"uint256"},{"name":"needed","type":"uint256","internalType":"uint256"},{"name":"tokenId","type":"uint256","internalType":"uint256"}]},{"type":"error","name":"ERC1155InvalidApprover","inputs":[{"name":"approver","type":"address","internalType":"address"}]},{"type":"error","name":"ERC1155InvalidArrayLength","inputs":[{"name":"idsLength","type":"uint256","internalType":"uint256"},{"name":"valuesLength","type":"uint256","internalType":"uint256"}]},{"type":"error","name":"ERC1155InvalidOperator","inputs":[{"name":"operator","type":"address","internalType":"address"}]},{"type":"error","name":"ERC1155InvalidReceiver","inputs":[{"name":"receiver","type":"address","internalType":"address"}]},{"type":"error","name":"ERC1155InvalidSender","inputs":[{"name":"sender","type":"address","internalType":"address"}]},{"type":"error","name":"ERC1155MissingApprovalForAll","inputs":[{"name":"operator","type":"address","internalType":"address"},{"name":"owner","type":"address","internalType":"address"}]},{"type":"error","name":"ERC1967InvalidImplementation","inputs":[{"name":"implementation","type":"address","internalType":"address"}]},{"type":"error","name":"ERC1967NonPayable","inputs":[]},{"type":"error","name":"FailedInnerCall","inputs":[]},{"type":"error","name":"InvalidInitialization","inputs":[]},{"type":"error","name":"NotInitializing","inputs":[]},{"type":"error","name":"OwnableInvalidOwner","inputs":[{"name":"owner","type":"address","internalType":"address"}]},{"type":"error","name":"OwnableUnauthorizedAccount","inputs":[{"name":"account","type":"address","internalType":"address"}]},{"type":"error","name":"UUPSUnauthorizedCallContext","inputs":[]},{"type":"error","name":"UUPSUnsupportedProxiableUUID","inputs":[{"name":"slot","type":"bytes32","internalType":"bytes32"}]}],"bytecode":{"object":"0x60a080604052346100cd57306080527ff0c57e16840df040f15088dc2f81fe391c3923bec73e23a9662efc9c229c6a009081549060ff8260401c166100be57506001600160401b036002600160401b031982821601610079575b6040516130fe9081620000d38239608051818181610d830152610f630152f35b6001600160401b031990911681179091556040519081527fc7f505b2f371ae2175ee4913f4499e1f2633a7b5936321eed1cdaeb6115181d290602090a1388080610059565b63f92ee8a960e01b8152600490fd5b600080fdfe6080604052600436101561001257600080fd5b60003560e01c8062fdd58e1461024657806301ffc9a71461024157806306fdde031461023c5780630c6d2ce7146102375780630e89341c14610232578063135022c21461022d578063156e29f61461022857806318160ddd14610223578063181d989b1461021e57806324940917146102195780632eb2c2d6146102145780634211e8471461020f5780634e1273f41461020a5780634f1ef286146102055780634f558e791461020057806351a56893146101fb57806352d1902d146101f657806355f804b3146101f157806363108990146101ec578063715018a6146101e7578063788f737d146101e25780638129fc1c146101dd5780638da5cb5b146101d857806395d89b41146101d357806396ec87cb146101ce578063990826b3146101c9578063a22cb465146101c4578063ad3cb1cc146101bf578063b078bf8e146101ba578063bd85b039146101b5578063cf1f9f9a146101b0578063e985e9c5146101ab578063f242432a146101a6578063f2fde38b146101a15763f5298aca1461019c57600080fd5b61188b565b611862565b611751565b611714565b6116e3565b6116aa565b611634565b6115ee565b611552565b611529565b611434565b6113ee565b6113b8565b611291565b6111d4565b611137565b61110f565b610fa9565b610f50565b610ed8565b610e9d565b610d44565b610c8b565b610c1a565b610ae1565b6108b8565b610879565b610815565b61066a565b6105c4565b6104ed565b610417565b6103c6565b6102fc565b610290565b600435906001600160a01b038216820361026157565b600080fd5b602435906001600160a01b038216820361026157565b35906001600160a01b038216820361026157565b346102615760403660031901126102615760206102e16102ae61024b565b602435600052600080516020613049833981519152835260406000209060018060a01b0316600052602052604060002090565b54604051908152f35b6001600160e01b031981160361026157565b3461026157602036600319011261026157602060043561031b816102ea565b63ffffffff60e01b16636cdb3d1360e11b8114908115610359575b8115610348575b506040519015158152f35b6301ffc9a760e01b1490503861033d565b6303a24d0760e21b81149150610336565b60005b83811061037d5750506000910152565b818101518382015260200161036d565b906020916103a68151809281855285808601910161036a565b601f01601f1916010190565b9060206103c392818152019061038d565b90565b34610261576000366003190112610261576104136040516103e6816109ae565b600c81526b4c554d494e4120426f6e647360a01b602082015260405191829160208352602083019061038d565b0390f35b346102615760203660031901126102615761043061024b565b610438611900565b60ff60005460a01c166104ba577f3d8c7a122c0f2910a002286c3749523b1c2d43c89189cd277742444a09c96433906104b59061047f6001600160a01b0382161515612389565b600080546001600160a01b03929092166001600160a81b03199092168217600160a01b1790556040519081529081906020820190565b0390a1005b60405162461bcd60e51b815260206004820152600b60248201526a105b1c9958591e481cd95d60aa1b6044820152606490fd5b346102615760203660031901126102615760043560405161050d816109ae565b6006815260203681830137600691825b6105705760405161041390610564816105566105458761053f60208501612894565b90612911565b64173539b7b760d91b815260050190565b03601f1981018352826109e9565b604051918291826103b2565b600a9061059460ff610583848406612aee565b1660f81b6001600160f81b03191690565b6105ab6105a086612adf565b9160001a9185612bb4565b53049180156105bf5760001901918261051d565b6119f5565b34610261576020806003193601126102615760809060043560005260028152604060ff81600020541691829160018252806000205460008051602061306983398151915283528160002054928461062c575b8251951515865285015283015215156060820152f35b935060018452816000205442101593610616565b6060906003190112610261576004356001600160a01b038116810361026157906024359060443590565b34610261577f4a8ea61d540be620282057d7bb47cb0b25ac76a58db473ba68d03ae0356308fe61075f61069c36610640565b61074f6000959395949294546106b760ff8260a01c166123c4565b6001600160a01b03906106cd9082163314612404565b8616956106db871515612389565b6106e6831515612441565b6203176886101580610808575b6106fc9061247b565b606486066001811015806107fd575b610714906124b7565b61073961073561072e896000526002602052604060002090565b5460ff1690565b1590565b610764575b5082866107496115db565b926124f3565b6040519081529081906020820190565b0390a3005b6107719060648804612b1b565b610785876000526001602052604060002090565b556107aa61079d876000526002602052604060002090565b805460ff19166001179055565b857f8ec3778c70816b98eca52742fc31690184a27bdbe390ba8b49b16ea22ff5320b6107f46107e3836000526001602052604060002090565b546040519081529081906020820190565b0390a23861073e565b50600c81111561070b565b506203345c8611156106f3565b3461026157600036600319011261026157602060008051602061308983398151915254604051908152f35b6001600160a01b031660009081527f88be536d5240c274a3b1d3a1be54482fd9caa294f08c62a7cde569f49a3c45016020526040902090565b34610261576020366003190112610261576001600160a01b0361089a61024b565b166000526004602052602060ff604060002054166040519015158152f35b34610261576108c636610640565b90916001600160a01b03811691903383148015610981575b15610943578161074f81868461093e7fd24362c290764624fb3e277945e558e87dfaafe563345a20b3b2a21345c3ec8d9761093661075f9861091f86610bfd565b9060018060a01b0316600052602052604060002090565b54101561280d565b6125fe565b60405162461bcd60e51b8152602060048201526016602482015275139bdd081a1bdb19195c881bdc88185c1c1c9bdd995960521b6044820152606490fd5b5060ff6109913361091f84610840565b54166108de565b634e487b7160e01b600052604160045260246000fd5b604081019081106001600160401b038211176109c957604052565b610998565b602081019081106001600160401b038211176109c957604052565b90601f801991011681019081106001600160401b038211176109c957604052565b6001600160401b0381116109c95760051b60200190565b81601f8201121561026157803591610a3883610a0a565b92610a4660405194856109e9565b808452602092838086019260051b820101928311610261578301905b828210610a70575050505090565b81358152908301908301610a62565b6001600160401b0381116109c957601f01601f191660200190565b81601f8201121561026157803590610ab182610a7f565b92610abf60405194856109e9565b8284526020838301011161026157816000926020809301838601378301015290565b346102615760a036600319011261026157610afa61024b565b610b02610266565b90604435916001600160401b039081841161026157610b2660049436908601610a21565b9060643583811161026157610b3e9036908701610a21565b9260843590811161026157610b569036908701610a9a565b936001600160a01b03808216903382141580610be5575b610bb857831615610ba05715610b8957610b879550611af4565b005b604051626a0d4560e21b8152600081880152602490fd5b604051632bfa23e760e11b8152600081890152602490fd5b6040805163711bec9160e11b815233818b019081526001600160a01b038616602082015290918291010390fd5b5060ff610bf53361091f86610840565b541615610b6d565b600052600080516020613049833981519152602052604060002090565b346102615760203660031901126102615760043560005260016020526020604060002054604051908152f35b90815180825260208080930193019160005b828110610c66575050505090565b835185529381019392810192600101610c58565b9060206103c3928181520190610c46565b34610261576040366003190112610261576004356001600160401b038082116102615736602383011215610261578160040135610cc781610a0a565b92610cd560405194856109e9565b81845260209160248386019160051b8301019136831161026157602401905b828210610d2d57856024358681116102615761041391610d1b610d21923690600401610a21565b90611a49565b60405191829182610c7a565b838091610d398461027c565b815201910190610cf4565b604036600319011261026157610d5861024b565b6024356001600160401b03811161026157610d77903690600401610a9a565b6001600160a01b0391907f00000000000000000000000000000000000000000000000000000000000000008316308114908115610e81575b50610e6f576020600493610dc1611900565b6040516352d1902d60e01b8152948591829086165afa60009381610e3f575b50610e0657604051634c9c8ce360e01b81526001600160a01b0383166004820152602490fd5b906000805160206130298339815191528303610e2657610b879250611ed2565b604051632a87526960e21b815260048101849052602490fd5b610e6191945060203d8111610e68575b610e5981836109e9565b8101906119ad565b9238610de0565b503d610e4f565b60405163703e46dd60e11b8152600490fd5b9050836000805160206130298339815191525416141538610daf565b346102615760203660031901126102615760043560005260008051602061306983398151915260205260206040600020541515604051908152f35b3461026157602036600319011261026157600435600052600260205260ff6040600020541615610f14576020604051670de0b6b3a76400008152f35b60405162461bcd60e51b8152602060048201526014602482015273115c1bd8da08191bd95cc81b9bdd08195e1a5cdd60621b6044820152606490fd5b34610261576000366003190112610261577f00000000000000000000000000000000000000000000000000000000000000006001600160a01b03163003610e6f5760206040516000805160206130298339815191528152f35b3461026157602080600319360112610261576004356001600160401b038082116102615736602383011215610261578160040135908111610261576024820191602482369201011161026157610ffd611900565b6040519060009360035461101081611ff5565b808552906001908181169081156110f157506001146110aa575b5050506110749061105e837f309b29ded109b9e28fb9885757b3e0096eb75c51d23aa4635d68bcd569f6adc19603846109e9565b61106881856129d9565b60405193849384612aa4565b0390a160007f6bb7ff708619ba0610cba295a58592e0451dee2622938c8755667688daf3529b6110a5610564612928565b0390a2005b60036000908152929650600080516020612fe98339815191525b8284106110de575050508201909301928061105e8361102a565b80548685018901529287019281016110c4565b60ff1916848701525050151560051b83010193508061105e8361102a565b3461026157602036600319011261026157602061112d600435612868565b6040519015158152f35b34610261576000806003193601126111a257611151611900565b60008051602061300983398151915280546001600160a01b0319811690915581906001600160a01b03167f8be0079c531659141344cd1fd0a4f28419497f9722a3daafe3b4186f6b6457e08280a380f35b80fd5b6040906003190112610261576004356001600160a01b0381168103610261579060243580151581036102615790565b34610261576111e2366111a5565b906111eb611900565b6001600160a01b031690811561124c5760207fc176fcf7d48a6aca0d96d3b3201f7add47c4af04ce9a51f5f4eb15d528c46e219183600052600482526112418160406000209060ff801983541691151516179055565b6040519015158152a2005b60405162461bcd60e51b815260206004820152601760248201527f436c61696d426f6e643a207a65726f20616464726573730000000000000000006044820152606490fd5b34610261576000366003190112610261576000805160206130a9833981519152546001600160401b0360ff8260401c16159116801590816113b0575b60011490816113a6575b15908161139d575b5061138b576000805160206130a9833981519152805467ffffffffffffffff1916600117905580611366575b6113136121de565b61131957005b6000805160206130a9833981519152805460ff60401b19169055604051600181527fc7f505b2f371ae2175ee4913f4499e1f2633a7b5936321eed1cdaeb6115181d29080602081016104b5565b6000805160206130a9833981519152805460ff60401b1916600160401b17905561130b565b60405163f92ee8a960e01b8152600490fd5b905015386112df565b303b1591506112d7565b8291506112cd565b3461026157600036600319011261026157600080516020613009833981519152546040516001600160a01b039091168152602090f35b346102615760003660031901126102615761041360405161140e816109ae565b6005815264131093d39160da1b602082015260405191829160208352602083019061038d565b34610261576020366003190112610261576004356001600160401b0380821691828103610261576000805160206130a98339815191528054928460ff8560401c1691821561151c575b505061138b577fc7f505b2f371ae2175ee4913f4499e1f2633a7b5936321eed1cdaeb6115181d2936104b5936001600160401b0319161790556114e06000805160206130a9833981519152600160401b68ff000000000000000019825416179055565b6114e861210c565b6000805160206130a9833981519152805460ff60401b191690556040516001600160401b0390911681529081906020820190565b851610159050843861147d565b34610261576000366003190112610261576000546040516001600160a01b039091168152602090f35b3461026157611560366111a5565b6001600160a01b0382169182156115c357816115826115939261091f33610840565b9060ff801983541691151516179055565b60405190151581527f17307eab39ab6107e8899845ad3d59bd9653f200f220920489ca2b5937696c3160203392a3005b60405162ced3e160e81b815260006004820152602490fd5b604051906115e8826109ce565b60008252565b346102615760003660031901126102615761041360405161160e816109ae565b60058152640352e302e360dc1b602082015260405191829160208352602083019061038d565b346102615760403660031901126102615761168461165061024b565b60243560005260008051602061304983398151915260205260406000209060018060a01b0316600052602052604060002090565b54670de0b6b3a7640000908181029181830414901517156105bf57602090604051908152f35b34610261576020366003190112610261576004356000526000805160206130698339815191526020526020604060002054604051908152f35b34610261576020366003190112610261576004356000526002602052602060ff604060002054166040519015158152f35b3461026157604036600319011261026157602060ff61174561173461024b565b61091f61173f610266565b91610840565b54166040519015158152f35b346102615760a03660031901126102615761176a61024b565b611772610266565b6084356001600160401b03811161026157611791903690600401610a9a565b906001600160a01b0383811690338214158061184a575b6118235782161561180a57156117f257610b87926117ea6064356044359160405192600184526020840152604083019160018352606084015260808301604052565b929091611af4565b604051626a0d4560e21b815260006004820152602490fd5b604051632bfa23e760e11b815260006004820152602490fd5b60405163711bec9160e11b81523360048201526001600160a01b0386166024820152604490fd5b5060ff61185a3361091f88610840565b5416156117a8565b3461026157602036600319011261026157610b8761187e61024b565b611886611900565b611939565b34610261577f4e1e34e7bde54ddbf4c5591d652888449e3ed3cfd6a153d8c8f3b182b2bc0e8460206118bc36610640565b9391600093919354906118d460ff8360a01c166123c4565b6001600160a01b03916118ea9083163314612404565b6118f58686836125fe565b6040519586521693a3005b600080516020613009833981519152546001600160a01b0316330361192157565b60405163118cdaa760e01b8152336004820152602490fd5b6001600160a01b039081169081156119945760008051602061300983398151915280546001600160a01b031981168417909155167f8be0079c531659141344cd1fd0a4f28419497f9722a3daafe3b4186f6b6457e0600080a3565b604051631e4fbdf760e01b815260006004820152602490fd5b90816020910312610261575190565b6119f19160005260008051602061304983398151915260205260406000209060018060a01b0316600052602052604060002090565b5490565b634e487b7160e01b600052601160045260246000fd5b60001981146105bf5760010190565b634e487b7160e01b600052603260045260246000fd5b8051821015611a445760209160051b010190565b611a1a565b91909180518351808203611ad2575050805190611a6582610a0a565b91611a7360405193846109e9565b808352611a82601f1991610a0a565b0190602091368385013760005b8151811015611aca5780611ab5611ac59260051b85808287010151918a010151906119bc565b611abf8287611a30565b52611a0b565b611a8f565b509193505050565b604051635b05999160e01b815260048101919091526024810191909152604490fd5b919392906001600160a01b0380841680151580611ba1575b611b63575b50611b1e83878487612c2c565b8116611b2c575b5050505050565b8451600103611b5257602080611b489601519201519233611d4f565b3880808080611b25565b611b5e94919233611e9b565b611b48565b33600052600460205260ff604060002054168015611b8c575b611b869150612bc5565b38611b11565b50600052611b8660ff60406000205416611b7c565b508183161515611b0c565b9081602091031261026157516103c3816102ea565b909260a0926103c39594600180861b031683526000602084015260408301526060820152816080820152019061038d565b91926103c395949160a094600180871b03809216855216602084015260408301526060820152816080820152019061038d565b3d15611c50573d90611c3682610a7f565b91611c4460405193846109e9565b82523d6000602084013e565b606090565b9293919093843b611c67575050505050565b602091611c8a604051948593849363f23a6e6160e01b9889865260048601611bc1565b038160006001600160a01b0388165af160009181611d1f575b50611ce25782611cb1611c25565b8051919082611cdb57604051632bfa23e760e11b81526001600160a01b0383166004820152602490fd5b9050602001fd5b6001600160e01b03191603611cfc57503880808080611b25565b604051632bfa23e760e11b81526001600160a01b03919091166004820152602490fd5b611d4191925060203d8111611d48575b611d3981836109e9565b810190611bac565b9038611ca3565b503d611d2f565b939290949194853b611d64575b505050505050565b611d87602093604051958694859463f23a6e6160e01b998a875260048701611bf2565b038160006001600160a01b0388165af160009181611dc9575b50611dae5782611cb1611c25565b6001600160e01b03191603611cfc5750388080808080611d5c565b611de291925060203d8111611d4857611d3981836109e9565b9038611da0565b92611e186103c39593611e269360018060a01b031686526000602087015260a0604087015260a0860190610c46565b908482036060860152610c46565b91608081840391015261038d565b93906103c39593611e1891611e269460018060a01b03809216885216602087015260a0604087015260a0860190610c46565b9293919093843b611e78575050505050565b602091611c8a604051948593849363bc197c8160e01b9889865260048601611de9565b939290949194853b611eaf57505050505050565b611d87602093604051958694859463bc197c8160e01b998a875260048701611e34565b90813b15611f585760008051602061302983398151915280546001600160a01b0319166001600160a01b0384169081179091557fbc7cd75a20ee27fd9adebab32041f755214dbc6bffa90cc0225b39da2e5c2d3b600080a2805115611f3d57611f3a91611f79565b50565b505034611f4657565b60405163b398979f60e01b8152600490fd5b604051634c9c8ce360e01b81526001600160a01b0383166004820152602490fd5b6000806103c393602081519101845af4611f91611c25565b9190611fb95750805115611fa757805190602001fd5b604051630a12f52160e11b8152600490fd5b81511580611fec575b611fca575090565b604051639996b31560e01b81526001600160a01b039091166004820152602490fd5b50803b15611fc2565b90600182811c92168015612025575b602083101461200f57565b634e487b7160e01b600052602260045260246000fd5b91607f1691612004565b81811061203a575050565b6000815560010161202f565b90601f8211612053575050565b6120bc917f88be536d5240c274a3b1d3a1be54482fd9caa294f08c62a7cde569f49a3c45026000527ff429cb5e2ec84cbb765e76b31964a56ccde03e7a6122d6cc4afb19edc55edeed906020601f840160051c830193106120be575b601f0160051c019061202f565b565b90915081906120af565b90601f82116120d5575050565b6120bc916003600052600080516020612fe9833981519152906020601f840160051c830193106120be57601f0160051c019061202f565b612117600354611ff5565b601f811161218d575b50605360035560036000527f68747470733a2f2f6170692e6c756d696e612d6f72672e636f6d2f6d65746164600080516020612fe983398151915255686174612f626f6e642f60b81b7fc2575a0e9e593c00f959f8c92f12db2869c3395a3b0502d05e2516446f71f85c55565b601f0160051c600080516020612fe9833981519152017fc2575a0e9e593c00f959f8c92f12db2869c3395a3b0502d05e2516446f71f85d5b8181106121d25750612120565b600081556001016121c5565b604051906121eb826109ce565b600082526121f761235a565b6121ff61235a565b81516001600160401b0381116109c9577f88be536d5240c274a3b1d3a1be54482fd9caa294f08c62a7cde569f49a3c4502906122448161223f8454611ff5565b612046565b602080601f83116001146122a0575081929394600092612295575b50508160011b916000199060031b1c19161790555b61227c61235a565b6122853361234a565b61228d61235a565b6120bc61210c565b01519050388061225f565b90601f198316956122f27f88be536d5240c274a3b1d3a1be54482fd9caa294f08c62a7cde569f49a3c45026000527ff429cb5e2ec84cbb765e76b31964a56ccde03e7a6122d6cc4afb19edc55edeed90565b926000905b88821061233257505083600195969710612319575b505050811b019055612274565b015160001960f88460031b161c1916905538808061230c565b806001859682949686015181550195019301906122f7565b6120bc9061235661235a565b6118865b60ff6000805160206130a98339815191525460401c161561237757565b604051631afcd79f60e31b8152600490fd5b1561239057565b60405162461bcd60e51b815260206004820152600c60248201526b5a65726f206164647265737360a01b6044820152606490fd5b156123cb57565b60405162461bcd60e51b8152602060048201526011602482015270109bdb9915985d5b1d081b9bdd081cd95d607a1b6044820152606490fd5b1561240b57565b60405162461bcd60e51b815260206004820152600e60248201526d13db9b1e48109bdb9915985d5b1d60921b6044820152606490fd5b1561244857565b60405162461bcd60e51b815260206004820152600b60248201526a16995c9bc8185b5bdd5b9d60aa1b6044820152606490fd5b1561248257565b60405162461bcd60e51b815260206004820152600d60248201526c092dcecc2d8d2c840cae0dec6d609b1b6044820152606490fd5b156124be57565b60405162461bcd60e51b815260206004820152600d60248201526c092dcecc2d8d2c840dadedce8d609b1b6044820152606490fd5b93916001600160a01b0385161561180a5761252b60405192600184526020840152604083019160018352606084015260808301604052565b9091612538828487612d48565b600094855b84518710156125a25761259661259c916125578987611a30565b51906125846125668b8a611a30565b51600052600080516020613069833981519152602052604060002090565b61258f838254612b0e565b9055612b0e565b96611a0b565b9561253d565b6125d69195949296506125c49060008051602061308983398151915254612b0e565b60008051602061308983398151915255565b80516001036125f457906020806120bc959301519101519133611c55565b6120bc9333611e66565b6001600160a01b0381169290919083156117f25761263960405192600184526020840152604083019160018352606084015260808301604052565b91906040948551612649816109ce565b600080915282518551908181036127ec575050805b83518110156126e3578060051b602080828701015191880101516126858761091f84610bfd565b548181106126ad578761091f6126a89594936126a2930393610bfd565b55611a0b565b61265e565b8a516303dee4c560e01b81526001600160a01b038916600482015260248101919091526044810182905260648101839052608490fd5b5093959250938390600193848451146000146127b2576020848101518982015192519081529081019190915233907fc3d58168c5ae7397731d063d5bbf3d657854427343f4c083240f7aacaa2d0f6290604090a481905b83925b61276e575b5050506120bc919250600080516020613089833981519152540360008051602061308983398151915255565b90919281518410156127ac576127a4906127888588611a30565b51906127976125668786611a30565b8281540390550193611a0b565b91908161273d565b92612742565b517f4a39dc06d4c0dbc64b70af90fd698a233a518aa5d07e595d983b8c0526c8f7fb3391806127e28b8883612d23565b0390a4819061273a565b8851635b05999160e01b815260048101919091526024810191909152604490fd5b1561281457565b60405162461bcd60e51b8152602060048201526014602482015273496e73756666696369656e742062616c616e636560601b6044820152606490fd5b9062282072918281029281840414901517156105bf57565b600052600260205260ff604060002054161561288f57600160205260406000205442101590565b600090565b600354600092916128a482611ff5565b916001908181169081156128fe57506001146128bf57505050565b90919293506003600052600080516020612fe9833981519152906000915b8483106128eb575050500190565b81816020925485870152019201916128dd565b60ff191683525050811515909102019150565b906129246020928281519485920161036a565b0190565b60008060405190612938826109ae565b6006825260208201926020368537600691825b6129945750505060056103c39160405193849161297961296d60208501612894565b9283925193849161036a565b0164173539b7b760d91b815203601a198101845201826109e9565b600a906001600160f81b03196129ab838306612aee565b60f81b166129c56129bb86612adf565b91851a9187612bb4565b53049180156105bf5760001901918261294b565b91906001600160401b0381116109c9576129fd816129f8600354611ff5565b6120c8565b6000601f8211600114612a3757819293600092612a2c575b50508160011b916000199060031b1c191617600355565b013590503880612a15565b6003600052601f19821693600080516020612fe983398151915291805b868110612a8c5750836001959610612a72575b505050811b01600355565b0135600019600384901b60f8161c19169055388080612a67565b90926020600181928686013581550194019101612a54565b9192602093612abc829360408652604086019061038d565b9385818603910152818452848401376000828201840152601f01601f1916010190565b6000198101919082116105bf57565b60300190816030116105bf57565b90636955b9009182018092116105bf57565b919082018092116105bf57565b6107ea81101580612ba8575b15612b6f576107e91981019081116105bf57600c810290808204600c14901517156105bf57612b65612b6a91612b5f6103c394612adf565b90612b0e565b612850565b612afc565b60405162461bcd60e51b815260206004820152601160248201527059656172206f7574206f662072616e676560781b6044820152606490fd5b50610834811115612b27565b908151811015611a44570160200190565b15612bcc57565b60405162461bcd60e51b815260206004820152603260248201527f436c61696d426f6e643a207472616e7366657273206f6e6c792076696120617560448201527174686f72697a6564206f70657261746f727360701b6064820152608490fd5b90939293612c3c85848385612e5d565b6001600160a01b0391821615612cc1575b1615612c5857509050565b6000805b8251821015612c9557612c8f90612c738387611a30565b5190612c826125668587611a30565b8281540390550191611a0b565b90612c5c565b9150506120bc919250600080516020613089833981519152540360008051602061308983398151915255565b92600091825b8451841015612cfc57612cf0612cf691612ce1868a611a30565b5190612584612566888a611a30565b93611a0b565b92612cc7565b612d1e9193506125c49095929560008051602061308983398151915254612b0e565b612c4d565b9091612d3a6103c393604084526040840190610c46565b916020818403910152610c46565b9190918251825190818103611ad257505060005b8351811015612dbd57600581901b8481016020908101519185010151612d96929184906001600160a01b038216612d9b575b505050611a0b565b612d5c565b612db39161091f612dab92610bfd565b918254612b0e565b9055388381612d8e565b50916001815114600014612e1e576020908101519181015160408051938452918301526001600160a01b039092169160009133917fc3d58168c5ae7397731d063d5bbf3d657854427343f4c083240f7aacaa2d0f629190819081015b0390a4565b7f4a39dc06d4c0dbc64b70af90fd698a233a518aa5d07e595d983b8c0526c8f7fb612e196000939460405191829160018060a01b031696339583612d23565b9392918051835190818103611ad257505060005b8151811015612f4357600581901b82810160209081015191860101516001600160a01b0392918590898516612ed2575b612eb3948216612eb857505050611a0b565b612e71565b612ec89161091f612dab92610bfd565b9055388481612d8e565b9192939050612ee48961091f84610bfd565b54838110612f0c5791869184612eb396959403612f048c61091f85610bfd565b559450612ea1565b6040516303dee4c560e01b81526001600160a01b038b16600482015260248101919091526044810184905260648101839052608490fd5b508051939493919291600103612fa5576020908101519181015160408051938452918301526001600160a01b03928316939092169133917fc3d58168c5ae7397731d063d5bbf3d657854427343f4c083240f7aacaa2d0f629181908101612e19565b6040516001600160a01b03938416949093169233927f4a39dc06d4c0dbc64b70af90fd698a233a518aa5d07e595d983b8c0526c8f7fb928291612e199183612d2356fec2575a0e9e593c00f959f8c92f12db2869c3395a3b0502d05e2516446f71f85b9016d09d72d40fdae2fd8ceac6b6234c7706214fd39c1cd1e609a0528c199300360894a13ba1a3210667c828492db98dca3e2076cc3735a920a3ca505d382bbc88be536d5240c274a3b1d3a1be54482fd9caa294f08c62a7cde569f49a3c45004a593662ee04d27b6a00ebb31be7fe0c102c2ade82a7c5d764f2df05dc4e28004a593662ee04d27b6a00ebb31be7fe0c102c2ade82a7c5d764f2df05dc4e2801f0c57e16840df040f15088dc2f81fe391c3923bec73e23a9662efc9c229c6a00a2646970667358221220cde64a7f2585f056b81049f242c1c0d0c7afc4a8af70db5746462ec8fe65aecd64736f6c63430008140033","linkReferences":{}},"methodIdentifiers":{"UPGRADE_INTERFACE_VERSION()":"ad3cb1cc","authorizedOperators(address)":"181d989b","balanceOf(address,uint256)":"00fdd58e","balanceOfBatch(address[],uint256[])":"4e1273f4","bondVault()":"990826b3","burn(address,uint256,uint256)":"f5298aca","burnByHolder(address,uint256,uint256)":"24940917","epochExists(uint256)":"cf1f9f9a","exists(uint256)":"4f558e79","getEpochInfo(uint256)":"135022c2","getFaceValue(uint256)":"51a56893","getHolderFaceValue(address,uint256)":"b078bf8e","initialize()":"8129fc1c","isApprovedForAll(address,address)":"e985e9c5","isMatured(uint256)":"63108990","maturityDate(uint256)":"4211e847","mint(address,uint256,uint256)":"156e29f6","name()":"06fdde03","owner()":"8da5cb5b","proxiableUUID()":"52d1902d","reinitializeURI(uint64)":"96ec87cb","renounceOwnership()":"715018a6","safeBatchTransferFrom(address,address,uint256[],uint256[],bytes)":"2eb2c2d6","safeTransferFrom(address,address,uint256,uint256,bytes)":"f242432a","setApprovalForAll(address,bool)":"a22cb465","setAuthorizedOperator(address,bool)":"788f737d","setBaseURI(string)":"55f804b3","setBondVault(address)":"0c6d2ce7","supportsInterface(bytes4)":"01ffc9a7","symbol()":"95d89b41","totalSupply()":"18160ddd","totalSupply(uint256)":"bd85b039","transferOwnership(address)":"f2fde38b","upgradeToAndCall(address,bytes)":"4f1ef286","uri(uint256)":"0e89341c"},"id":74}