{"abi":[{"type":"constructor","inputs":[{"name":"_oracle","type":"address","internalType":"address"},{"name":"_aavePool","type":"address","internalType":"address"},{"name":"_luminaToken","type":"address","internalType":"address"},{"name":"_usdc","type":"address","internalType":"address"},{"name":"_recipient","type":"address","internalType":"address"}],"stateMutability":"nonpayable"},{"type":"function","name":"BORROW_RATE_THRESHOLD","inputs":[],"outputs":[{"name":"","type":"uint256","internalType":"uint256"}],"stateMutability":"view"},{"type":"function","name":"ETH_BTC_THRESHOLD","inputs":[],"outputs":[{"name":"","type":"uint256","internalType":"uint256"}],"stateMutability":"view"},{"type":"function","name":"ETH_USD_THRESHOLD","inputs":[],"outputs":[{"name":"","type":"int256","internalType":"int256"}],"stateMutability":"view"},{"type":"function","name":"FALLBACK_DURATION","inputs":[],"outputs":[{"name":"","type":"uint256","internalType":"uint256"}],"stateMutability":"view"},{"type":"function","name":"SUSTAINED_DURATION","inputs":[],"outputs":[{"name":"","type":"uint256","internalType":"uint256"}],"stateMutability":"view"},{"type":"function","name":"TOTAL_AMOUNT","inputs":[],"outputs":[{"name":"","type":"uint256","internalType":"uint256"}],"stateMutability":"view"},{"type":"function","name":"TOTAL_TRANCHES","inputs":[],"outputs":[{"name":"","type":"uint256","internalType":"uint256"}],"stateMutability":"view"},{"type":"function","name":"TRANCHE_AMOUNT","inputs":[],"outputs":[{"name":"","type":"uint256","internalType":"uint256"}],"stateMutability":"view"},{"type":"function","name":"TRANCHE_INTERVAL","inputs":[],"outputs":[{"name":"","type":"uint256","internalType":"uint256"}],"stateMutability":"view"},{"type":"function","name":"aavePool","inputs":[],"outputs":[{"name":"","type":"address","internalType":"address"}],"stateMutability":"view"},{"type":"function","name":"altSeasonTriggered","inputs":[],"outputs":[{"name":"","type":"bool","internalType":"bool"}],"stateMutability":"view"},{"type":"function","name":"checkAltSeason","inputs":[],"outputs":[],"stateMutability":"nonpayable"},{"type":"function","name":"conditionsMetSince","inputs":[],"outputs":[{"name":"","type":"uint256","internalType":"uint256"}],"stateMutability":"view"},{"type":"function","name":"deployedAt","inputs":[],"outputs":[{"name":"","type":"uint256","internalType":"uint256"}],"stateMutability":"view"},{"type":"function","name":"getConditions","inputs":[],"outputs":[{"name":"condA","type":"bool","internalType":"bool"},{"name":"condB","type":"bool","internalType":"bool"},{"name":"condC","type":"bool","internalType":"bool"}],"stateMutability":"view"},{"type":"function","name":"getStatus","inputs":[],"outputs":[{"name":"triggered","type":"bool","internalType":"bool"},{"name":"_triggerTimestamp","type":"uint256","internalType":"uint256"},{"name":"_tranchesReleased","type":"uint256","internalType":"uint256"},{"name":"_totalReleased","type":"uint256","internalType":"uint256"},{"name":"_conditionsMetSince","type":"uint256","internalType":"uint256"},{"name":"nextReleaseAt","type":"uint256","internalType":"uint256"},{"name":"fallbackAt","type":"uint256","internalType":"uint256"}],"stateMutability":"view"},{"type":"function","name":"luminaToken","inputs":[],"outputs":[{"name":"","type":"address","internalType":"contract IERC20"}],"stateMutability":"view"},{"type":"function","name":"oracle","inputs":[],"outputs":[{"name":"","type":"address","internalType":"contract ILuminaOracleReader"}],"stateMutability":"view"},{"type":"function","name":"owner","inputs":[],"outputs":[{"name":"","type":"address","internalType":"address"}],"stateMutability":"view"},{"type":"function","name":"recipient","inputs":[],"outputs":[{"name":"","type":"address","internalType":"address"}],"stateMutability":"view"},{"type":"function","name":"releaseTranche","inputs":[],"outputs":[],"stateMutability":"nonpayable"},{"type":"function","name":"renounceOwnership","inputs":[],"outputs":[],"stateMutability":"nonpayable"},{"type":"function","name":"totalReleased","inputs":[],"outputs":[{"name":"","type":"uint256","internalType":"uint256"}],"stateMutability":"view"},{"type":"function","name":"tranchesReleased","inputs":[],"outputs":[{"name":"","type":"uint256","internalType":"uint256"}],"stateMutability":"view"},{"type":"function","name":"transferOwnership","inputs":[{"name":"newOwner","type":"address","internalType":"address"}],"outputs":[],"stateMutability":"nonpayable"},{"type":"function","name":"triggerFallback","inputs":[],"outputs":[],"stateMutability":"nonpayable"},{"type":"function","name":"triggerTimestamp","inputs":[],"outputs":[{"name":"","type":"uint256","internalType":"uint256"}],"stateMutability":"view"},{"type":"function","name":"updateRecipient","inputs":[{"name":"newRecipient","type":"address","internalType":"address"}],"outputs":[],"stateMutability":"nonpayable"},{"type":"function","name":"usdc","inputs":[],"outputs":[{"name":"","type":"address","internalType":"address"}],"stateMutability":"view"},{"type":"event","name":"AltSeasonTriggered","inputs":[{"name":"timestamp","type":"uint256","indexed":false,"internalType":"uint256"}],"anonymous":false},{"type":"event","name":"ConditionsChecked","inputs":[{"name":"condA","type":"bool","indexed":false,"internalType":"bool"},{"name":"condB","type":"bool","indexed":false,"internalType":"bool"},{"name":"condC","type":"bool","indexed":false,"internalType":"bool"},{"name":"metCount","type":"uint256","indexed":false,"internalType":"uint256"},{"name":"timestamp","type":"uint256","indexed":false,"internalType":"uint256"}],"anonymous":false},{"type":"event","name":"FallbackTriggered","inputs":[{"name":"timestamp","type":"uint256","indexed":false,"internalType":"uint256"}],"anonymous":false},{"type":"event","name":"OwnershipTransferred","inputs":[{"name":"previousOwner","type":"address","indexed":true,"internalType":"address"},{"name":"newOwner","type":"address","indexed":true,"internalType":"address"}],"anonymous":false},{"type":"event","name":"RecipientUpdated","inputs":[{"name":"oldRecipient","type":"address","indexed":false,"internalType":"address"},{"name":"newRecipient","type":"address","indexed":false,"internalType":"address"}],"anonymous":false},{"type":"event","name":"SustainedPeriodReset","inputs":[{"name":"timestamp","type":"uint256","indexed":false,"internalType":"uint256"}],"anonymous":false},{"type":"event","name":"SustainedPeriodStarted","inputs":[{"name":"timestamp","type":"uint256","indexed":false,"internalType":"uint256"}],"anonymous":false},{"type":"event","name":"TrancheReleased","inputs":[{"name":"trancheNumber","type":"uint256","indexed":false,"internalType":"uint256"},{"name":"amount","type":"uint256","indexed":false,"internalType":"uint256"},{"name":"recipient","type":"address","indexed":false,"internalType":"address"}],"anonymous":false},{"type":"error","name":"OwnableInvalidOwner","inputs":[{"name":"owner","type":"address","internalType":"address"}]},{"type":"error","name":"OwnableUnauthorizedAccount","inputs":[{"name":"account","type":"address","internalType":"address"}]}],"bytecode":{"object":"0x610120346200029f57601f6200140138819003918201601f191683019291906001600160401b03841183851017620002a4578160a092849260409687528339810103126200029f576200005281620002ba565b60209162000062838201620002ba565b9162000070858301620002ba565b926200008d60806200008560608601620002ba565b9401620002ba565b91331562000287576000549060018060a01b031995338784161760005588519260018060a01b03928391823391167f8be0079c531659141344cd1fd0a4f28419497f9722a3daafe3b4186f6b6457e0600080a3169283156200025757508184161562000223578116938415620001f25781861615620001c257169586156200018e575060805260a05260c05260e052600154161760015561010090428252516111319182620002d0833960805182818161062f0152610dad015260a0518281816105420152610e2a015260c0518281816105850152610723015260e051828181610adc0152610dfc0152518181816102cb01528181610a190152610b500152f35b60649088519062461bcd60e51b82526004820152600e60248201526d16995c9bc81c9958da5c1a595b9d60921b6044820152fd5b885162461bcd60e51b81526004810189905260096024820152685a65726f207573646360b81b6044820152606490fd5b885162461bcd60e51b815260048101899052600a6024820152692d32b937903a37b5b2b760b11b6044820152606490fd5b885162461bcd60e51b815260048101899052600d60248201526c16995c9bc818585d99541bdbdb609a1b6044820152606490fd5b62461bcd60e51b815260048101899052600b60248201526a5a65726f206f7261636c6560a81b6044820152606490fd5b8651631e4fbdf760e01b815260006004820152602490fd5b600080fd5b634e487b7160e01b600052604160045260246000fd5b51906001600160a01b03821682036200029f5756fe60806040908082526004918236101561001757600080fd5b600091823560e01c9081631887b9e914610c4857508063189cf67914610c295780631d71969914610c0b5780632acda0c814610b2c5780632ee1f19614610b0b5780633e413bee14610ac85780634e69d560146109ef578063563acf98146109d157806366d003ac146109a95780636a7fd33f14610984578063715018a61461092757806372476bb2146109095780637c123627146108d45780637ca8a3151461065e5780637dc0d1d01461061b57806383efcd39146105f65780638da5cb5b146105cf57806394434788146105b45780639e471e1414610571578063a03e4bc31461052e578063a2d7f5e314610509578063ad34135c14610364578063cd3e4a7214610347578063cdd555251461032a578063d07caa841461030c578063e33b7de3146102ee578063eae4c19f146102b4578063f2fde38b146102215763feec756c1461016457600080fd5b3461021d57602036600319011261021d576001600160a01b038335818116949085900361021957610193610c69565b84156101e757507f62e69886a5df0ba8ffcacbfc1388754e7abd9bde24b036354c561f1acd4e4593929360015491816bffffffffffffffffffffffff60a01b8416176001558351921682526020820152a180f35b606490602084519162461bcd60e51b8352820152600c60248201526b5a65726f206164647265737360a01b6044820152fd5b8380fd5b5080fd5b508290346102b05760203660031901126102b0576001600160a01b038235818116939192908490036102ac57610255610c69565b831561029657505082546001600160a01b0319811683178455167f8be0079c531659141344cd1fd0a4f28419497f9722a3daafe3b4186f6b6457e08380a380f35b51631e4fbdf760e01b8152908101849052602490fd5b8480fd5b8280fd5b503461021d578160031936011261021d57602090517f00000000000000000000000000000000000000000000000000000000000000008152f35b503461021d578160031936011261021d576020906006549051908152f35b503461021d578160031936011261021d576020906005549051908152f35b503461021d578160031936011261021d576020905162093a808152f35b503461021d578160031936011261021d57602090516228de808152f35b5082346102b057826003193601126102b05761038560ff6003541615610c95565b600260a07f497cfb756bb256c227918d57e9bf676bcb2fa48757103604a5dd7fbe2ffc2ef76103b2610d71565b9093919081156104fb5760ff6103e36103d560015b88156104f457600190610cd5565b83156104ed57600190610cd5565b16948851921515835215156020830152151587820152836060820152426080820152a1106104ad576002548061044557505060207f12de116e9be78a291dd1dd7b2a7cbd7aa58a5ba25f634d6a4c0b7c3252ab5daa914260025551428152a180f35b420342811161049a5762093a80111561045d57505080f35b7f95045727d5412ef372465914b28ca4e769100e9796ca2157bcd08739b6162ca191602091600160ff19600354161760035542905551428152a180f35b634e487b7160e01b845260118252602484fd5b506002546104be575b508060025580f35b60207f2998f4c6bb64e3ddc52dd7004397fe1a4ae79c4d204292245e0e71bb4d32c6af9151428152a1816104b6565b8b90610cd5565b8c90610cd5565b60ff6103e36103d58b6103c7565b503461021d578160031936011261021d57602090516a069e10de76676d080000008152f35b503461021d578160031936011261021d57517f00000000000000000000000000000000000000000000000000000000000000006001600160a01b03168152602090f35b503461021d578160031936011261021d57517f00000000000000000000000000000000000000000000000000000000000000006001600160a01b03168152602090f35b503461021d578160031936011261021d576020905160038152f35b503461021d578160031936011261021d57905490516001600160a01b039091168152602090f35b503461021d578160031936011261021d57602090516a0234b04a2777cf02aaaaaa8152f35b503461021d578160031936011261021d57517f00000000000000000000000000000000000000000000000000000000000000006001600160a01b03168152602090f35b5082346102b057826003193601126102b05760ff60035416156108a25760055460038110156108675781546228de809081830291838304148315171561085457906106a891610cff565b421061082557600019811461049a5760018101600555600203610813576006546a069e10de76676d0800000090810390811161049a57915b6106ec83600654610cff565b600655600154815163a9059cbb60e01b81526001600160a01b0391821681850152602481018590529093602093909184816044818a7f00000000000000000000000000000000000000000000000000000000000000008b165af19081156108095787916107cf575b501561079a5750917f373367ce2f4194082e10064c74e8b5a68feede7828605dfd0247b95ddea844a193916060936005549360015416928251948552840152820152a180f35b825162461bcd60e51b8152908101849052600f60248201526e151c985b9cd9995c8819985a5b1959608a1b6044820152606490fd5b90508481813d8311610802575b6107e68183610d0c565b810103126107fe575180151581036107fe5787610754565b8680fd5b503d6107dc565b84513d89823e3d90fd5b6a0234b04a2777cf02aaaaaa916106e0565b506020606492519162461bcd60e51b83528201526009602482015268546f6f206561726c7960b81b6044820152fd5b634e487b7160e01b865260118452602486fd5b506020606492519162461bcd60e51b83528201526015602482015274105b1b081d1c985b98da195cc81c995b19585cd959605a1b6044820152fd5b6020606492519162461bcd60e51b8352820152600d60248201526c139bdd081d1c9a59d9d95c9959609a1b6044820152fd5b503461021d578160031936011261021d576060906108f0610d71565b9083929351931515845215156020840152151590820152f35b503461021d578160031936011261021d576020906002549051908152f35b8234610981578060031936011261098157610940610c69565b80546001600160a01b03198116825581906001600160a01b03167f8be0079c531659141344cd1fd0a4f28419497f9722a3daafe3b4186f6b6457e08280a380f35b80fd5b503461021d578160031936011261021d57602090516a39e7139a8c08fa060000008152f35b503461021d578160031936011261021d5760015490516001600160a01b039091168152602090f35b503461021d578160031936011261021d5760209051630784ce008152f35b5090346109815780600319360112610981578060ff600354169284549060055460065491600254937f000000000000000000000000000000000000000000000000000000000000000096630784ce008801809811610aab578880610abe575b610a7d575b5060e098508151971515885260208801528601526060850152608084015260a083015260c0820152f35b9095506228de8090818402918483041484151715610aab575060e09850610aa49086610cff565b9438610a53565b634e487b7160e01b815260118a52602490fd5b5060038410610a4e565b503461021d578160031936011261021d57517f00000000000000000000000000000000000000000000000000000000000000006001600160a01b03168152602090f35b503461021d578160031936011261021d576020905166b1a2bc2ec500008152f35b5082346102b057826003193601126102b057600354610b4e60ff821615610c95565b7f0000000000000000000000000000000000000000000000000000000000000000630784ce008101809111610bf8574210610bbe579160209160017fbcb33634347fed469e82cf9af84e72f83d9ae2d510553135fa3b8ea727ac2c3f9460ff19161760035542905551428152a180f35b506020606492519162461bcd60e51b8352820152601460248201527311985b1b189858dac81b9bdd081c995858da195960621b6044820152fd5b634e487b7160e01b855260118352602485fd5b5082346102b057826003193601126102b05760209250549051908152f35b503461021d578160031936011261021d5760209051645d21dba0008152f35b83903461021d578160031936011261021d5760209060ff6003541615158152f35b6000546001600160a01b03163303610c7d57565b60405163118cdaa760e01b8152336004820152602490fd5b15610c9c57565b60405162461bcd60e51b8152602060048201526011602482015270105b1c9958591e481d1c9a59d9d95c9959607a1b6044820152606490fd5b9060ff8091169116019060ff8211610ce957565b634e487b7160e01b600052601160045260246000fd5b91908201809211610ce957565b90601f8019910116810190811067ffffffffffffffff821117610d2e57604052565b634e487b7160e01b600052604160045260246000fd5b51906001600160801b0382168203610d5857565b600080fd5b51906001600160a01b0382168203610d5857565b6040805163b2ee2f0160e01b8082526208aa8960eb1b6004808401919091526000948594859491936024926020926001600160a01b03928892907f0000000000000000000000000000000000000000000000000000000000000000851690869081848a81865afa8694816110c4575b50610fef575b5050505080519384936335ea6a7560e01b8552807f0000000000000000000000000000000000000000000000000000000000000000168886015284876101e09788937f0000000000000000000000000000000000000000000000000000000000000000165afa9687968498610e85575b50505050505050610e645750565b6a39e7139a8c08fa0600000091925060806001600160801b03910151161190565b9091929394958097985086813d8311610fe8575b610ea38183610d0c565b810103126102ac5783519687019187831067ffffffffffffffff841117610fd7575050825283518552610ed7818501610d44565b90850152610ee6818401610d44565b90840152610ef660608301610d44565b6060840152610f0760808301610d44565b6080840152610f1860a08301610d44565b60a084015260c082015164ffffffffff8116810361021d5760c084015260e08201519061ffff82168203610981575060e0830152610100610f5a818301610d5d565b90830152610120610f6c818301610d5d565b90830152610140610f7e818301610d5d565b90830152610160610f90818301610d5d565b90830152610180610fa2818301610d44565b908301526101a0610fb4818301610d44565b90830152610fc66101c0809201610d44565b908201529038808080808080610e56565b634e487b7160e01b86526041905284fd5b503d610e99565b8885518094819382526242544360e81b8d8301525afa849181611095575b5061101a575b8581610de6565b8382138061108c575b15611013579199509950670de0b6b3a7640000808b02908b8204148b15171561107a57811561106857645d21dba0009166b1a2bc2ec500009104119913973880611013565b634e487b7160e01b8352601287528583fd5b634e487b7160e01b8352601187528583fd5b50838113611023565b9091508681813d83116110bd575b6110ad8183610d0c565b810103126102ac5751903861100d565b503d6110a3565b838193949296503d83116110f4575b6110dd8183610d0c565b810103126110f057908791519338610de0565b8580fd5b503d6110d356fea2646970667358221220804f9b93c22b5a8a1a9b1a8eb7fd2755ea73858c30cee669fe6f859109a320b464736f6c63430008140033","linkReferences":{}},"methodIdentifiers":{"BORROW_RATE_THRESHOLD()":"6a7fd33f","ETH_BTC_THRESHOLD()":"2ee1f196","ETH_USD_THRESHOLD()":"189cf679","FALLBACK_DURATION()":"563acf98","SUSTAINED_DURATION()":"cdd55525","TOTAL_AMOUNT()":"a2d7f5e3","TOTAL_TRANCHES()":"94434788","TRANCHE_AMOUNT()":"83efcd39","TRANCHE_INTERVAL()":"cd3e4a72","aavePool()":"a03e4bc3","altSeasonTriggered()":"1887b9e9","checkAltSeason()":"ad34135c","conditionsMetSince()":"72476bb2","deployedAt()":"eae4c19f","getConditions()":"7c123627","getStatus()":"4e69d560","luminaToken()":"9e471e14","oracle()":"7dc0d1d0","owner()":"8da5cb5b","recipient()":"66d003ac","releaseTranche()":"7ca8a315","renounceOwnership()":"715018a6","totalReleased()":"e33b7de3","tranchesReleased()":"d07caa84","transferOwnership(address)":"f2fde38b","triggerFallback()":"2acda0c8","triggerTimestamp()":"1d719699","updateRecipient(address)":"feec756c","usdc()":"3e413bee"},"id":107}