{"abi":[{"type":"receive","stateMutability":"payable"},{"type":"function","name":"FALLBACK_BURN_BPS","inputs":[],"outputs":[{"name":"","type":"uint256","internalType":"uint256"}],"stateMutability":"view"},{"type":"function","name":"FALLBACK_BUYBACK_BPS","inputs":[],"outputs":[{"name":"","type":"uint256","internalType":"uint256"}],"stateMutability":"view"},{"type":"function","name":"FALLBACK_MAINTENANCE_BPS","inputs":[],"outputs":[{"name":"","type":"uint256","internalType":"uint256"}],"stateMutability":"view"},{"type":"function","name":"FALLBACK_OPS_BPS","inputs":[],"outputs":[{"name":"","type":"uint256","internalType":"uint256"}],"stateMutability":"view"},{"type":"function","name":"UPGRADE_INTERFACE_VERSION","inputs":[],"outputs":[{"name":"","type":"string","internalType":"string"}],"stateMutability":"view"},{"type":"function","name":"_executeBurnExternal","inputs":[{"name":"amount","type":"uint256","internalType":"uint256"}],"outputs":[],"stateMutability":"nonpayable"},{"type":"function","name":"accumulatedUSDCSinceBurn","inputs":[],"outputs":[{"name":"","type":"uint256","internalType":"uint256"}],"stateMutability":"view"},{"type":"function","name":"adaptiveModeEnabled","inputs":[],"outputs":[{"name":"","type":"bool","internalType":"bool"}],"stateMutability":"view"},{"type":"function","name":"addDexRouter","inputs":[{"name":"_router","type":"address","internalType":"address"}],"outputs":[],"stateMutability":"nonpayable"},{"type":"function","name":"authorizedSenders","inputs":[{"name":"","type":"address","internalType":"address"}],"outputs":[{"name":"","type":"bool","internalType":"bool"}],"stateMutability":"view"},{"type":"function","name":"burnCooldown","inputs":[],"outputs":[{"name":"","type":"uint256","internalType":"uint256"}],"stateMutability":"view"},{"type":"function","name":"buybackReserve","inputs":[],"outputs":[{"name":"","type":"address","internalType":"address"}],"stateMutability":"view"},{"type":"function","name":"canBurn","inputs":[],"outputs":[{"name":"","type":"bool","internalType":"bool"}],"stateMutability":"view"},{"type":"function","name":"capacityOracle","inputs":[],"outputs":[{"name":"","type":"address","internalType":"address"}],"stateMutability":"view"},{"type":"function","name":"dexRouterCount","inputs":[],"outputs":[{"name":"","type":"uint256","internalType":"uint256"}],"stateMutability":"view"},{"type":"function","name":"dexRouters","inputs":[{"name":"","type":"uint256","internalType":"uint256"}],"outputs":[{"name":"","type":"address","internalType":"contract IDexRouter"}],"stateMutability":"view"},{"type":"function","name":"executeBurn","inputs":[],"outputs":[],"stateMutability":"nonpayable"},{"type":"function","name":"feeDistributor","inputs":[],"outputs":[{"name":"","type":"address","internalType":"address"}],"stateMutability":"view"},{"type":"function","name":"gasRefundCap","inputs":[],"outputs":[{"name":"","type":"uint256","internalType":"uint256"}],"stateMutability":"view"},{"type":"function","name":"gasRefundEnabled","inputs":[],"outputs":[{"name":"","type":"bool","internalType":"bool"}],"stateMutability":"view"},{"type":"function","name":"gasRefundTreasury","inputs":[],"outputs":[{"name":"","type":"address","internalType":"address"}],"stateMutability":"view"},{"type":"function","name":"getStats","inputs":[],"outputs":[{"name":"_totalUSDCReceived","type":"uint256","internalType":"uint256"},{"name":"_totalUSDCBurned","type":"uint256","internalType":"uint256"},{"name":"_totalLUMINABurned","type":"uint256","internalType":"uint256"},{"name":"_pendingUSDC","type":"uint256","internalType":"uint256"},{"name":"_lastBurnTimestamp","type":"uint256","internalType":"uint256"},{"name":"_canBurn","type":"bool","internalType":"bool"}],"stateMutability":"view"},{"type":"function","name":"initialize","inputs":[{"name":"_usdc","type":"address","internalType":"address"},{"name":"_lumina","type":"address","internalType":"address"},{"name":"_initialDexRouter","type":"address","internalType":"address"}],"outputs":[],"stateMutability":"nonpayable"},{"type":"function","name":"initializeV2","inputs":[{"name":"_maxPurchases","type":"uint256","internalType":"uint256"},{"name":"_maxAccumulatedUSDC","type":"uint256","internalType":"uint256"},{"name":"_gasRefundEnabled","type":"bool","internalType":"bool"},{"name":"_gasRefundCap","type":"uint256","internalType":"uint256"},{"name":"_gasRefundTreasury","type":"address","internalType":"address"}],"outputs":[],"stateMutability":"nonpayable"},{"type":"function","name":"lastBurnTimestamp","inputs":[],"outputs":[{"name":"","type":"uint256","internalType":"uint256"}],"stateMutability":"view"},{"type":"function","name":"lumina","inputs":[],"outputs":[{"name":"","type":"address","internalType":"contract IERC20"}],"stateMutability":"view"},{"type":"function","name":"maintenanceReserve","inputs":[],"outputs":[{"name":"","type":"address","internalType":"address"}],"stateMutability":"view"},{"type":"function","name":"maxAccumulatedUSDCBeforeBurn","inputs":[],"outputs":[{"name":"","type":"uint256","internalType":"uint256"}],"stateMutability":"view"},{"type":"function","name":"maxBurnAmount","inputs":[],"outputs":[{"name":"","type":"uint256","internalType":"uint256"}],"stateMutability":"view"},{"type":"function","name":"maxPurchasesBeforeBurn","inputs":[],"outputs":[{"name":"","type":"uint256","internalType":"uint256"}],"stateMutability":"view"},{"type":"function","name":"maxSlippageBps","inputs":[],"outputs":[{"name":"","type":"uint256","internalType":"uint256"}],"stateMutability":"view"},{"type":"function","name":"minBurnAmount","inputs":[],"outputs":[{"name":"","type":"uint256","internalType":"uint256"}],"stateMutability":"view"},{"type":"function","name":"opsReserve","inputs":[],"outputs":[{"name":"","type":"address","internalType":"address"}],"stateMutability":"view"},{"type":"function","name":"owner","inputs":[],"outputs":[{"name":"","type":"address","internalType":"address"}],"stateMutability":"view"},{"type":"function","name":"pendingUSDC","inputs":[],"outputs":[{"name":"","type":"uint256","internalType":"uint256"}],"stateMutability":"view"},{"type":"function","name":"poolFee","inputs":[],"outputs":[{"name":"","type":"uint24","internalType":"uint24"}],"stateMutability":"view"},{"type":"function","name":"proxiableUUID","inputs":[],"outputs":[{"name":"","type":"bytes32","internalType":"bytes32"}],"stateMutability":"view"},{"type":"function","name":"purchaseCounter","inputs":[],"outputs":[{"name":"","type":"uint256","internalType":"uint256"}],"stateMutability":"view"},{"type":"function","name":"receiveMarketplaceFee","inputs":[{"name":"amount","type":"uint256","internalType":"uint256"}],"outputs":[],"stateMutability":"nonpayable"},{"type":"function","name":"receivePremium","inputs":[{"name":"amount","type":"uint256","internalType":"uint256"}],"outputs":[],"stateMutability":"nonpayable"},{"type":"function","name":"recoverToken","inputs":[{"name":"token","type":"address","internalType":"address"},{"name":"amount","type":"uint256","internalType":"uint256"}],"outputs":[],"stateMutability":"nonpayable"},{"type":"function","name":"renounceOwnership","inputs":[],"outputs":[],"stateMutability":"nonpayable"},{"type":"function","name":"setAdaptiveMode","inputs":[{"name":"enabled","type":"bool","internalType":"bool"}],"outputs":[],"stateMutability":"nonpayable"},{"type":"function","name":"setAuthorizedSender","inputs":[{"name":"sender","type":"address","internalType":"address"},{"name":"authorized","type":"bool","internalType":"bool"}],"outputs":[],"stateMutability":"nonpayable"},{"type":"function","name":"setAutoBurnConfig","inputs":[{"name":"_maxPurchases","type":"uint256","internalType":"uint256"},{"name":"_maxAccumulatedUSDC","type":"uint256","internalType":"uint256"}],"outputs":[],"stateMutability":"nonpayable"},{"type":"function","name":"setBurnCooldown","inputs":[{"name":"_cooldown","type":"uint256","internalType":"uint256"}],"outputs":[],"stateMutability":"nonpayable"},{"type":"function","name":"setCapacityOracle","inputs":[{"name":"_oracle","type":"address","internalType":"address"}],"outputs":[],"stateMutability":"nonpayable"},{"type":"function","name":"setDexRouters","inputs":[{"name":"_routers","type":"address[]","internalType":"address[]"}],"outputs":[],"stateMutability":"nonpayable"},{"type":"function","name":"setFeeDistributor","inputs":[{"name":"_feeDistributor","type":"address","internalType":"address"}],"outputs":[],"stateMutability":"nonpayable"},{"type":"function","name":"setGasRefundConfig","inputs":[{"name":"_enabled","type":"bool","internalType":"bool"},{"name":"_cap","type":"uint256","internalType":"uint256"},{"name":"_treasury","type":"address","internalType":"address"}],"outputs":[],"stateMutability":"nonpayable"},{"type":"function","name":"setMaintenanceReserve","inputs":[{"name":"_maintenanceReserve","type":"address","internalType":"address"}],"outputs":[],"stateMutability":"nonpayable"},{"type":"function","name":"setMaxBurnAmount","inputs":[{"name":"_max","type":"uint256","internalType":"uint256"}],"outputs":[],"stateMutability":"nonpayable"},{"type":"function","name":"setMaxSlippageBps","inputs":[{"name":"_bps","type":"uint256","internalType":"uint256"}],"outputs":[],"stateMutability":"nonpayable"},{"type":"function","name":"setMinBurnAmount","inputs":[{"name":"_min","type":"uint256","internalType":"uint256"}],"outputs":[],"stateMutability":"nonpayable"},{"type":"function","name":"setPoolFee","inputs":[{"name":"_fee","type":"uint24","internalType":"uint24"}],"outputs":[],"stateMutability":"nonpayable"},{"type":"function","name":"setReserves","inputs":[{"name":"_buybackReserve","type":"address","internalType":"address"},{"name":"_opsReserve","type":"address","internalType":"address"},{"name":"_maintenanceReserve","type":"address","internalType":"address"}],"outputs":[],"stateMutability":"nonpayable"},{"type":"function","name":"totalLUMINABurned","inputs":[],"outputs":[{"name":"","type":"uint256","internalType":"uint256"}],"stateMutability":"view"},{"type":"function","name":"totalUSDCBurned","inputs":[],"outputs":[{"name":"","type":"uint256","internalType":"uint256"}],"stateMutability":"view"},{"type":"function","name":"totalUSDCReceived","inputs":[],"outputs":[{"name":"","type":"uint256","internalType":"uint256"}],"stateMutability":"view"},{"type":"function","name":"transferOwnership","inputs":[{"name":"newOwner","type":"address","internalType":"address"}],"outputs":[],"stateMutability":"nonpayable"},{"type":"function","name":"upgradeToAndCall","inputs":[{"name":"newImplementation","type":"address","internalType":"address"},{"name":"data","type":"bytes","internalType":"bytes"}],"outputs":[],"stateMutability":"payable"},{"type":"function","name":"usdc","inputs":[],"outputs":[{"name":"","type":"address","internalType":"contract IERC20"}],"stateMutability":"view"},{"type":"event","name":"AdaptiveDistributionExecuted","inputs":[{"name":"total","type":"uint256","indexed":false,"internalType":"uint256"},{"name":"burned","type":"uint256","indexed":false,"internalType":"uint256"},{"name":"toBuyback","type":"uint256","indexed":false,"internalType":"uint256"},{"name":"toOps","type":"uint256","indexed":false,"internalType":"uint256"},{"name":"toMaintenance","type":"uint256","indexed":false,"internalType":"uint256"}],"anonymous":false},{"type":"event","name":"AdaptiveModeUpdated","inputs":[{"name":"enabled","type":"bool","indexed":false,"internalType":"bool"}],"anonymous":false},{"type":"event","name":"AuthorizedSenderUpdated","inputs":[{"name":"sender","type":"address","indexed":true,"internalType":"address"},{"name":"authorized","type":"bool","indexed":false,"internalType":"bool"}],"anonymous":false},{"type":"event","name":"AutoBurnConfigUpdated","inputs":[{"name":"maxPurchases","type":"uint256","indexed":false,"internalType":"uint256"},{"name":"maxAccumulatedUSDC","type":"uint256","indexed":false,"internalType":"uint256"}],"anonymous":false},{"type":"event","name":"AutoBurnFailed","inputs":[{"name":"amount","type":"uint256","indexed":false,"internalType":"uint256"},{"name":"reason","type":"bytes","indexed":false,"internalType":"bytes"}],"anonymous":false},{"type":"event","name":"AutoBurnTriggered","inputs":[{"name":"amount","type":"uint256","indexed":false,"internalType":"uint256"},{"name":"router","type":"address","indexed":true,"internalType":"address"},{"name":"gasRecipient","type":"address","indexed":true,"internalType":"address"}],"anonymous":false},{"type":"event","name":"BurnExecuted","inputs":[{"name":"usdcSpent","type":"uint256","indexed":false,"internalType":"uint256"},{"name":"luminaBurned","type":"uint256","indexed":false,"internalType":"uint256"},{"name":"effectivePrice","type":"uint256","indexed":false,"internalType":"uint256"},{"name":"timestamp","type":"uint256","indexed":false,"internalType":"uint256"}],"anonymous":false},{"type":"event","name":"ConfigUpdated","inputs":[{"name":"param","type":"string","indexed":false,"internalType":"string"},{"name":"value","type":"uint256","indexed":false,"internalType":"uint256"}],"anonymous":false},{"type":"event","name":"GasRefundConfigUpdated","inputs":[{"name":"enabled","type":"bool","indexed":false,"internalType":"bool"},{"name":"cap","type":"uint256","indexed":false,"internalType":"uint256"},{"name":"treasury","type":"address","indexed":true,"internalType":"address"}],"anonymous":false},{"type":"event","name":"GasRefunded","inputs":[{"name":"recipient","type":"address","indexed":true,"internalType":"address"},{"name":"amount","type":"uint256","indexed":false,"internalType":"uint256"}],"anonymous":false},{"type":"event","name":"Initialized","inputs":[{"name":"version","type":"uint64","indexed":false,"internalType":"uint64"}],"anonymous":false},{"type":"event","name":"LegacyBurnExecuted","inputs":[{"name":"amount","type":"uint256","indexed":false,"internalType":"uint256"}],"anonymous":false},{"type":"event","name":"MaintenanceReserveUpdated","inputs":[{"name":"newReserve","type":"address","indexed":true,"internalType":"address"}],"anonymous":false},{"type":"event","name":"MarketplaceFeeReceived","inputs":[{"name":"from","type":"address","indexed":true,"internalType":"address"},{"name":"usdcAmount","type":"uint256","indexed":false,"internalType":"uint256"}],"anonymous":false},{"type":"event","name":"OwnershipTransferred","inputs":[{"name":"previousOwner","type":"address","indexed":true,"internalType":"address"},{"name":"newOwner","type":"address","indexed":true,"internalType":"address"}],"anonymous":false},{"type":"event","name":"PremiumReceived","inputs":[{"name":"from","type":"address","indexed":true,"internalType":"address"},{"name":"usdcAmount","type":"uint256","indexed":false,"internalType":"uint256"}],"anonymous":false},{"type":"event","name":"ReservesUpdated","inputs":[{"name":"buybackReserve","type":"address","indexed":true,"internalType":"address"},{"name":"opsReserve","type":"address","indexed":true,"internalType":"address"},{"name":"maintenanceReserve","type":"address","indexed":true,"internalType":"address"}],"anonymous":false},{"type":"event","name":"TokenRecovered","inputs":[{"name":"token","type":"address","indexed":true,"internalType":"address"},{"name":"amount","type":"uint256","indexed":false,"internalType":"uint256"},{"name":"to","type":"address","indexed":true,"internalType":"address"}],"anonymous":false},{"type":"event","name":"Upgraded","inputs":[{"name":"implementation","type":"address","indexed":true,"internalType":"address"}],"anonymous":false},{"type":"error","name":"AddressEmptyCode","inputs":[{"name":"target","type":"address","internalType":"address"}]},{"type":"error","name":"AddressInsufficientBalance","inputs":[{"name":"account","type":"address","internalType":"address"}]},{"type":"error","name":"ERC1967InvalidImplementation","inputs":[{"name":"implementation","type":"address","internalType":"address"}]},{"type":"error","name":"ERC1967NonPayable","inputs":[]},{"type":"error","name":"FailedInnerCall","inputs":[]},{"type":"error","name":"InvalidInitialization","inputs":[]},{"type":"error","name":"NotInitializing","inputs":[]},{"type":"error","name":"OwnableInvalidOwner","inputs":[{"name":"owner","type":"address","internalType":"address"}]},{"type":"error","name":"OwnableUnauthorizedAccount","inputs":[{"name":"account","type":"address","internalType":"address"}]},{"type":"error","name":"ReentrancyGuardReentrantCall","inputs":[]},{"type":"error","name":"SafeERC20FailedOperation","inputs":[{"name":"token","type":"address","internalType":"address"}]},{"type":"error","name":"UUPSUnauthorizedCallContext","inputs":[]},{"type":"error","name":"UUPSUnsupportedProxiableUUID","inputs":[{"name":"slot","type":"bytes32","internalType":"bytes32"}]}],"bytecode":{"object":"0x60a080604052346100cd57306080527ff0c57e16840df040f15088dc2f81fe391c3923bec73e23a9662efc9c229c6a009081549060ff8260401c166100be57506001600160401b036002600160401b031982821601610079575b6040516132469081620000d382396080518181816116c001526118200152f35b6001600160401b031990911681179091556040519081527fc7f505b2f371ae2175ee4913f4499e1f2633a7b5936321eed1cdaeb6115181d290602090a1388080610059565b63f92ee8a960e01b8152600490fd5b600080fdfe6080604081815260049182361015610022575b505050361561002057600080fd5b005b600092833560e01c918263020d481b14612159575081630466fb7e146120e3578163055680f0146120c4578163089fe6aa1461209d5781630d43e8ad1461207457816317a5693e14611fbf5781631c605efc14611eb45781631eec903514611d2157816325fc1b3d14611c6e5781632919b81514611bb75781632a5ffadf14611b98578163332c7e7b14611b6f57816339402b2e14611b50578163396c5ae414611ae15781633d3d937d14611ac25781633e413bee14611a9a5781634acd87d514611a025781634cff83f8146119e35781634f1ef286146117a45781634f8053cf1461174d57816351abb0c21461172457816352d1902d146116ab57816363624d471461168c57816363dc80ab1461166d578163697e62f5146116495781636f3249671461160b5781636f527aaf146115ec578163715018a61461158257816373dd250c1461149b57816374886e8c1461147457816376b2a285146113dd578163839975bb146113be57816383ee6a6f1461127257816388ff45c014611231578163893fc019146111145781638984986c146110f75781638da5cb5b146110c157816395cfbb9514610f4b57816395e0d78b14610f2e5781639ab8e6d214610e93578163ababe71b14610e74578163ad3cb1cc14610e05578163b29a814014610cf9578163b3869cc414610c7a578163b586589814610bd6578163b74bf85014610bad578163bc4a914a14610b8e578163c0c53b8b1461093d578163c1eb184014610876578163c4aa739514610858578163c59d48471461070c578163ccfc2e8d14610690578163cd6b8e4d14610667578163d3dfa8b5146105cc578163d6ccd58f146105a3578163db7c017a14610584578163eab0fd0914610565578163ebc5c94b146103d357508063f2fde38b146103a3578063f3dfc2a914610322578063fbcba272146103075763ff909560146102dc5780610012565b3461030357816003193601126103035760095490516001600160a01b039091168152602090f35b5080fd5b50346103035781600319360112610303576020905160c88152f35b503461030357806003193601126103035761033b612175565b6024359081151580920361039f577f9316df45c3226259b8d7f2d32687edb5a88141d5f47d0d6b67b927f3030c66d1916020916103766122c0565b6001600160a01b031680865260108352848620805460ff191660ff84161790559351908152a280f35b8380fd5b82346103d05760203660031901126103d0576103cd6103c0612175565b6103c86122c0565b6122f9565b80f35b80fd5b9050346105615760a0366003190112610561578035602435604435918215159283810361055d576084356001600160a01b038116936064359391859003610559577ff0c57e16840df040f15088dc2f81fe391c3923bec73e23a9662efc9c229c6a009687549060ff828b1c168015610544575b6105365750938896937fcd66d8d5d88092fa8d06ea55259ac0bd823ac1c6346387240648656ce90c03077fc7f505b2f371ae2175ee4913f4499e1f2633a7b5936321eed1cdaeb6115181d29a60209a98957f40d9615c9cb739e484af2f149af08a874e97f84a67991cacf50219c9134f42c19560029968ffffffffffffffffff191698680100000000000000028a178c556104df6122c0565b826011558160125560ff80196015541691161760155585601655876001600160601b0360a01b601754161760175582519182528c820152a1875190151581526020810191909152604090a21790555160028152a180f35b895163f92ee8a960e01b8152fd5b50600267ffffffffffffffff83161015610446565b8880fd5b8680fd5b8280fd5b5050346103035781600319360112610303576020906002549051908152f35b5050346103035781600319360112610303576020906014549051908152f35b505034610303578160031936011261030357600a5490516001600160a01b039091168152602090f35b9190503461056157602036600319011261056157813591303303610639575060085460a01c60ff161561060357506103cd9061265a565b816020916106317fc172717b3ad6086f14dce198fbf709bd73dbfdab2fdab5d67984ca441584e7a694612973565b51908152a180f35b6020606492519162461bcd60e51b8352820152600960248201526827b7363c9039b2b63360b91b6044820152fd5b50503461030357816003193601126103035760015490516001600160a01b039091168152602090f35b5050346103035760203660031901126103035760806000805160206131d1833981519152916106bd612175565b6106c56122c0565b60018060a01b0316806001600160601b0360a01b6008541617600855600e8251928084528301526d3332b2a234b9ba3934b13aba37b960911b60608301526020820152a180f35b91905034610561578260031936011261056157600d54600e54600f54855484516370a0823160e01b808252308289015294969495909390916020906001600160a01b03168186602481845afa95861561084e578a9661081b575b50600c5496610777600754896124f7565b42101598896107a6575b50505060c09850825197885287015285015260608401526080830152151560a0820152f35b83995060249086949394519485938492835230908301525afa9081156108115789916107e0575b5060c09850600554111595388080610781565b90508681813d831161080a575b6107f781836121e6565b810103126105595760c0985051386107cd565b503d6107ed565b83513d8b823e3d90fd5b9095508181813d8311610847575b61083381836121e6565b8101031261084357519438610766565b8980fd5b503d610829565b84513d8c823e3d90fd5b90503461056157826003193601126105615760209250549051908152f35b91905034610561578260031936011261056157610898600c54600754906124f7565b42101591826108ae575b60208383519015158152f35b835482516370a0823160e01b8152309281019290925291925090602090829060249082906001600160a01b03165afa9081156109315783916108fc575b5060209250600554111590386108a2565b90506020813d8211610929575b81610916602093836121e6565b81010312610561576020925051386108eb565b3d9150610909565b505051903d90823e3d90fd5b90503461056157606036600319011261056157610958612175565b90610961612190565b9161096a6121a6565b917ff0c57e16840df040f15088dc2f81fe391c3923bec73e23a9662efc9c229c6a009384549360ff85881c16159367ffffffffffffffff861695861580610b87575b60018098149081610b7d575b159081610b74575b50610b645767ffffffffffffffff1981168717885585610b45575b506109e461247c565b6109ec61247c565b6109f5336122f9565b6109fd61247c565b610a0561247c565b856000805160206131f183398151915255610a1e61247c565b6001600160a01b03908116928315610b16578116918215610ae557916101f4949391610a6f931691610a51831515612400565b6001600160601b0360a01b90818c5416178b5587541617865561243a565b6003805462ffffff60a01b191661027160a41b17905555620f42406005556402540be400600655610384600755610aa4578380f35b7fc7f505b2f371ae2175ee4913f4499e1f2633a7b5936321eed1cdaeb6115181d29260209268ff000000000000000019815416905551908152a13880808380f35b885162461bcd60e51b8152602081870152600b60248201526a5a65726f204c554d494e4160a81b6044820152606490fd5b885162461bcd60e51b815260208187015260096024820152685a65726f205553444360b81b6044820152606490fd5b68ffffffffffffffffff191668010000000000000001178755386109db565b885163f92ee8a960e01b81528590fd5b905015386109c0565b303b1591506109b8565b50856109ac565b5050346103035781600319360112610303576020906011549051908152f35b50503461030357816003193601126103035760175490516001600160a01b039091168152602090f35b505034610303576060366003190112610303577f40d9615c9cb739e484af2f149af08a874e97f84a67991cacf50219c9134f42c1610c12612224565b60243590610c74610c216121a6565b610c296122c0565b60ff196015541660ff84151516176015558360165560018060a01b031694856001600160601b0360a01b60175416176017555192839283602090939291936040810194151581520152565b0390a280f35b5050346103035760203660031901126103035760806000805160206131d183398151915291610ccb610caa612175565b610cb26122c0565b6001600160a01b0316610cc6811515612400565b61243a565b600254600e8251928084528301526d19195e149bdd5d195c905919195960921b60608301526020820152a180f35b905034610561578160031936011261056157610d13612175565b9060243590610d206122c0565b84546001600160a01b0393841693919082168414610dcc5781600154168414610d9157507f25cf8d26509ef33d03d7d79115a9acdd514856bbe6793a7af3f42f635e1e1124916020916000805160206131b1833981519152610d86838383541688612803565b54169451908152a380f35b606490602086519162461bcd60e51b8352820152601560248201527443616e6e6f74207265636f766572204c554d494e4160581b6044820152fd5b606490602086519162461bcd60e51b8352820152601360248201527243616e6e6f74207265636f766572205553444360681b6044820152fd5b8383346103035781600319360112610303578051918183019083821067ffffffffffffffff831117610e615750610e5d9350815260058252640352e302e360dc1b602083015251918291602083526020830190612280565b0390f35b634e487b7160e01b815260418552602490fd5b5050346103035781600319360112610303576020906012549051908152f35b90503461056157602036600319011261056157803590610eb16122c0565b620186a08210610efd57506000805160206131d18339815191529181608092600555600d8251928084528301526c1b5a5b909d5c9b905b5bdd5b9d609a1b60608301526020820152a180f35b606490602084519162461bcd60e51b8352820152600b60248201526a4d696e20746f6f206c6f7760a81b6044820152fd5b505034610303578160031936011261030357602090516103208152f35b90503461056157602036600319011261056157803567ffffffffffffffff918282116110bd57366023830112156110bd57818101359283116110bd576024820191602436918560051b0101116110bd57610fa36122c0565b821561108a57506002548460025580611048575b50835b828110610ffc57846000805160206131d183398151915260808686600a82519280845283015269646578526f757465727360b01b60608301526020820152a180f35b6110439061103e6001600160a01b0361102a8161102261101d868a8a612f18565b612f28565b161515612400565b61103861101d848888612f18565b1661243a565b612964565b610fba565b600285527f405787fa12a823e0f2b7631cc41b3ba8828b3321ca811111fa75cd3aa3bb5ace908101905b81811061107f5750610fb7565b858155600101611072565b606490602085519162461bcd60e51b8352820152600d60248201526c456d70747920726f757465727360981b6044820152fd5b8480fd5b5050346103035781600319360112610303576000805160206131b18339815191525490516001600160a01b039091168152602090f35b505034610303578160031936011261030357602090516101f48152f35b9190503461056157606036600319011261056157611130612175565b611138612190565b926111416121a6565b9061114a6122c0565b6001600160a01b039283169485156111f85783169384156111c35750501691611174831515612f3c565b826001600160601b0360a01b828160095416176009558381600a541617600a55600b541617600b557f26ae974c7efc45601b4a00609fc82fd91d28dbe9a3abbf4b17957dbf35346ebf8480a480f35b906020606492519162461bcd60e51b8352820152600f60248201526e4f707352657365727665207a65726f60881b6044820152fd5b845162461bcd60e51b815260208184015260136024820152724275796261636b52657365727665207a65726f60681b6044820152606490fd5b9050346105615760203660031901126105615735916002548310156103d0575061125c602092612233565b905491519160018060a01b039160031b1c168152f35b919050346105615760203660031901126105615761128e612224565b6112966122c0565b158015929080846113aa575b1561136e578361132e575b156112f957506008805460ff60a01b191660a084901b60ff60a01b16179055519081527f56ccff54b882996ed6e24e264f1b5a183df8e3852b85a2c6799a7934243e48e490602090a180f35b6020606492519162461bcd60e51b8352820152601060248201526f14995cd95c9d995cc81b9bdd081cd95d60821b6044820152fd5b506009546001600160a01b0390811615159081611360575b81611352575b506112ad565b9050600b541615153861134c565b600a54811615159150611346565b506020606492519162461bcd60e51b83528201526016602482015275119959511a5cdd1c9a589d5d1bdc881b9bdd081cd95d60521b6044820152fd5b506008546001600160a01b031615156112a2565b5050346103035781600319360112610303576020906005549051908152f35b91905034610561578260031936011261056157825481516370a0823160e01b81523093810193909352602090839060249082906001600160a01b03165afa91821561146a578392611433575b6020838351908152f35b9091506020813d8211611462575b8161144e602093836121e6565b810103126105615760209250519038611429565b3d9150611441565b81513d85823e3d90fd5b50503461030357816003193601126103035760209060ff60085460a01c1690519015158152f35b8391503461030357602036600319011261030357803562ffffff81169182820361039f576114c76122c0565b6101f483148015611577575b801561156c575b156115365750836000805160206131d1833981519152926080926003549062ffffff60a01b9060a01b169062ffffff60a01b191617600355600782519280845283015266706f6f6c46656560c81b60608301526020820152a180f35b606490602086519162461bcd60e51b8352820152601060248201526f24b73b30b634b2103332b2903a34b2b960811b6044820152fd5b5061271083146114da565b50610bb883146114d3565b83346103d057806003193601126103d05761159b6122c0565b6000805160206131b183398151915280546001600160a01b0319811690915581906001600160a01b03167f8be0079c531659141344cd1fd0a4f28419497f9722a3daafe3b4186f6b6457e08280a380f35b5050346103035781600319360112610303576020906006549051908152f35b5050346103035760203660031901126103035760209160ff9082906001600160a01b03611636612175565b1681526010855220541690519015158152f35b50503461030357816003193601126103035760209060ff6015541690519015158152f35b5050346103035781600319360112610303576020906007549051908152f35b5050346103035781600319360112610303576020906016549051908152f35b8284346103d057806003193601126103d057507f00000000000000000000000000000000000000000000000000000000000000006001600160a01b0316300361171757602090517f360894a13ba1a3210667c828492db98dca3e2076cc3735a920a3ca505d382bbc8152f35b5163703e46dd60e11b8152fd5b50503461030357816003193601126103035760035490516001600160a01b039091168152602090f35b919050346105615780600319360112610561577fcd66d8d5d88092fa8d06ea55259ac0bd823ac1c6346387240648656ce90c0307913560243561178e6122c0565b816011558060125582519182526020820152a180f35b91809150600319360112610561576117ba612175565b90602493843567ffffffffffffffff811161030357366023820112156103035780850135936117e885612208565b6117f4855191826121e6565b85815260209586820193368a838301011161199a578186928b8a93018737830101526001600160a01b037f000000000000000000000000000000000000000000000000000000000000000081163081149081156119b5575b506119a5576118596122c0565b85516352d1902d60e01b81529083169680828a818b5afa9182918793611971575b50506118965750505050505191634c9c8ce360e01b8352820152fd5b86899689927f360894a13ba1a3210667c828492db98dca3e2076cc3735a920a3ca505d382bbc9081810361195c5750853b156119475780546001600160a01b0319168317905551869392917fbc7cd75a20ee27fd9adebab32041f755214dbc6bffa90cc0225b39da2e5c2d3b8580a282511561192b5750506119279382915190845af461192161236d565b9161239d565b5080f35b9350935050503461193b57505080f35b63b398979f60e01b8152fd5b5051634c9c8ce360e01b815291820152859150fd5b848a91845191632a87526960e21b8352820152fd5b9080929350813d831161199e575b61198981836121e6565b8101031261199a575190388061187a565b8580fd5b503d61197f565b855163703e46dd60e11b81528890fd5b9050817f360894a13ba1a3210667c828492db98dca3e2076cc3735a920a3ca505d382bbc541614153861184c565b505034610303578160031936011261030357602090600f549051908152f35b90503461056157602036600319011261056157803590611a206122c0565b6005548210611a6b57506000805160206131d18339815191529181608092600655600d8251928084528301526c1b585e109d5c9b905b5bdd5b9d609a1b60608301526020820152a180f35b606490602084519162461bcd60e51b8352820152600960248201526826b0bc101e1036b4b760b91b6044820152fd5b505034610303578160031936011261030357905490516001600160a01b039091168152602090f35b505034610303578160031936011261030357602090600c549051908152f35b83346103d05760203660031901126103d057611afb612175565b611b036122c0565b6001600160a01b0316611b17811515612f3c565b600b80546001600160a01b031916821790557f02926a5179a4e789dca0670eac04f2ac2febb058fdebec64c0bb2e19c3bc539c8280a280f35b505034610303578160031936011261030357602090600d549051908152f35b505034610303578160031936011261030357600b5490516001600160a01b039091168152602090f35b505034610303578160031936011261030357602090600e549051908152f35b90503461056157602036600319011261056157611bd2612175565b611bda6122c0565b6001600160a01b0316908115611c3d57506000805160206131d183398151915291816080926001600160601b0360a01b6003541617600355600e8251928084528301526d63617061636974794f7261636c6560901b60608301526020820152a180f35b606490602084519162461bcd60e51b8352820152600b60248201526a5a65726f206f7261636c6560a81b6044820152fd5b90503461056157602036600319011261056157803590611c8c6122c0565b603282101580611d15575b15611cdd5791816080926000805160206131d18339815191529455600e8251928084528301526d6d6178536c69707061676542707360901b60608301526020820152a180f35b606490602084519162461bcd60e51b83528201526012602482015271536c6970706167653a20302e35252d31302560701b6044820152fd5b506103e8821115611c97565b905034610561578260031936011261056157611d3b61251a565b611d4a600c54600754906124f7565b4210611e8057825482516370a0823160e01b8152308382015260209290918390839060249082906001600160a01b03165afa918215611e76578592611e47575b506005548210611e1457506006549081811115611e0c5750915b42600c5560085460a01c60ff1615611dd6575050611dc19061265a565b60016000805160206131f18339815191525580f35b917fc172717b3ad6086f14dce198fbf709bd73dbfdab2fdab5d67984ca441584e7a692611e0282612973565b51908152a1611dc1565b905091611da4565b835162461bcd60e51b8152908101839052600d60248201526c42656c6f77206d696e696d756d60981b6044820152606490fd5b9091508281813d8311611e6f575b611e5f81836121e6565b810103126110bd57519038611d8a565b503d611e55565b84513d87823e3d90fd5b6020606492519162461bcd60e51b8352820152600f60248201526e436f6f6c646f776e2061637469766560881b6044820152fd5b9190503461056157602036600319011261056157813590611ed361251a565b611ede8215156124bd565b8354611ef8908390309033906001600160a01b031661254a565b611f0482600d546124f7565b600d55518181527f9bf27b4e5eb1daa68da6772f8e0b994f96da65aadc40d58b37f58baed878cd0060203392a26013549160018301809311611fac5750611f5190826013556014546124f7565b806014556011548015159283611f8c575b505050611f7e5760016000805160206131f18339815191525580f35b611f8732612f88565b611dc1565b1080159250611f9f575b50388080611f62565b9050601254111538611f96565b634e487b7160e01b845260119052602483fd5b90503461056157602036600319011261056157803590611fdd6122c0565b603c82101580612067575b1561202e57506000805160206131d18339815191529181608092600755600c8251928084528301526b313ab93721b7b7b63237bbb760a11b60608301526020820152a180f35b606490602084519162461bcd60e51b8352820152601360248201527221b7b7b63237bbb71d1018b6b4b716991a343960691b6044820152fd5b5062015180821115611fe8565b50503461030357816003193601126103035760085490516001600160a01b039091168152602090f35b50503461030357816003193601126103035760209062ffffff60035460a01c169051908152f35b5050346103035781600319360112610303576020906013549051908152f35b9050346105615760203660031901126105615735906121038215156124bd565b825461211d908390309033906001600160a01b031661254a565b61212982600d546124f7565b600d55519081527f8cb91bfab24771d7b1a6139f1235ef856d210a5754a94ad66501359577dbf6f660203392a280f35b8490346103035781600319360112610303578061213460209252f35b600435906001600160a01b038216820361218b57565b600080fd5b602435906001600160a01b038216820361218b57565b604435906001600160a01b038216820361218b57565b67ffffffffffffffff81116121d057604052565b634e487b7160e01b600052604160045260246000fd5b90601f8019910116810190811067ffffffffffffffff8211176121d057604052565b67ffffffffffffffff81116121d057601f01601f191660200190565b60043590811515820361218b57565b60025481101561226a5760026000527f405787fa12a823e0f2b7631cc41b3ba8828b3321ca811111fa75cd3aa3bb5ace0190600090565b634e487b7160e01b600052603260045260246000fd5b919082519283825260005b8481106122ac575050826000602080949584010152601f8019910116010190565b60208183018101518483018201520161228b565b6000805160206131b1833981519152546001600160a01b031633036122e157565b60405163118cdaa760e01b8152336004820152602490fd5b6001600160a01b03908116908115612354576000805160206131b183398151915280546001600160a01b031981168417909155167f8be0079c531659141344cd1fd0a4f28419497f9722a3daafe3b4186f6b6457e0600080a3565b604051631e4fbdf760e01b815260006004820152602490fd5b3d15612398573d9061237e82612208565b9161238c60405193846121e6565b82523d6000602084013e565b606090565b906123c457508051156123b257805190602001fd5b604051630a12f52160e11b8152600490fd5b815115806123f7575b6123d5575090565b604051639996b31560e01b81526001600160a01b039091166004820152602490fd5b50803b156123cd565b1561240757565b60405162461bcd60e51b815260206004820152600b60248201526a2d32b937903937baba32b960a91b6044820152606490fd5b600254680100000000000000008110156121d05780600161245e9201600255612233565b819291549060031b9160018060a01b03809116831b921b1916179055565b60ff7ff0c57e16840df040f15088dc2f81fe391c3923bec73e23a9662efc9c229c6a005460401c16156124ab57565b604051631afcd79f60e31b8152600490fd5b156124c457565b60405162461bcd60e51b815260206004820152600b60248201526a16995c9bc8185b5bdd5b9d60aa1b6044820152606490fd5b9190820180921161250457565b634e487b7160e01b600052601160045260246000fd5b6000805160206131f183398151915260028154146125385760029055565b604051633ee5aeb560e01b8152600490fd5b6040516323b872dd60e01b60208201526001600160a01b039283166024820152929091166044830152606482019290925261259b9161259682608481015b03601f1981018452836121e6565b6125b5565b565b9081602091031261218b5751801515810361218b5790565b6000806125de9260018060a01b03169360208151910182865af16125d761236d565b908361239d565b805190811515918261260c575b50506125f45750565b60249060405190635274afe760e01b82526004820152fd5b61261f925060208091830101910161259d565b1538806125eb565b8181029291811591840414171561250457565b8115612644570490565b634e487b7160e01b600052601260045260246000fd5b61266261283c565b612710949291856126808361267b8461267b888b6124f7565b6124f7565b116127c757856126d7816126cf816126c77fb843a3731e2548fbbc4a1a9f2adb7da9a57989e5c69aa6ea271f2f79da0b953e9b6126bf60a09c8c612627565b04988a612627565b049488612627565b049386612627565b0492811515806127b5575b612796575b82151580612784575b612765575b83151580612753575b612734575b80612726575b6040519485526020850152604084015260608301526080820152a1565b61272f81612973565b612709565b61274e84600180891b03806000541690600b541690612803565b612703565b50600180871b03600b541615156126fe565b61277f83600180891b03806000541690600a541690612803565b6126f5565b50600180871b03600a541615156126f0565b6127b082600180891b038060005416906009541690612803565b6126e7565b50600180871b036009541615156126e2565b60405162461bcd60e51b815260206004820152601460248201527324b73b30b634b2103234b9ba3934b13aba34b7b760611b6044820152606490fd5b60405163a9059cbb60e01b60208201526001600160a01b039092166024830152604482019290925261259b916125968260648101612588565b6008546001600160a01b031680612860575b50612134906103209060c8906101f490565b604051633900820160e21b8152602081600481855afa60009181612934575b5061288b575b5061284e565b612896575b80612885565b608060049160405192838092631cced51b60e01b82525afa906000918281819382936128e8575b506128cb575b505050612890565b6127106128e08361267b8661267b89876124f7565b116128c35793565b9450925090506080833d821161292c575b81612906608093836121e6565b810103126103d057508151906020830151606060408501519401519290939291386128bd565b3d91506128f9565b61295691925060203d811161295d575b61294e81836121e6565b81019061259d565b903861287f565b503d612944565b60001981146125045760010190565b9060029081549260009315612ed3578284527f405787fa12a823e0f2b7631cc41b3ba8828b3321ca811111fa75cd3aa3bb5ace546001600160a01b039285918416825b8654811015612aa2578786806129cb84612233565b9054845460015460405163c515ee2360e01b81529185166001600160a01b039081166004840152908516166024820152604481018b905260039590936020938493869360649385939192918b1b9190911c165af19182918d93612a6b575b5050612a41575b505050612a3c90612964565b6129b6565b86811115612a30579550919250612a3c9190612a5c84612233565b9054911b1c1691908638612a30565b819450809293503d8311612a9b575b612a8481836121e6565b81010312612a9757889151903880612a29565b8a80fd5b503d612a7a565b509392945094809180612ead575b50826003541680612dae575b508115612d695782808254169416906040938451958360209788928a8680868501612b1e86612b1063095ea7b360e01b9687855260249e8f840160209093929193604081019460018060a01b031681520152565b03601f1981018852876121e6565b85519082865af1612b2d61236d565b81612d39575b5080612d2f575b15612cce575b505050608483855416858560015416938a51998a958694637f0148ab60e11b865260048601528a8501528d604485015260648401525af1938415612c60578294612c9f575b508315612c6a5760015416803b156103035781809184875180948193630852cd8d60e31b83528960048401525af18015612c6057612c51575b5090612bcc86600e546124f7565b600e55612bdb83600f546124f7565b600f55670de0b6b3a764000091828702928784041487151715612c405750509181612c2b608095937f5cb2c40bfd8dcc76234f54a365ee263967bcaedf1d598ba2d0a022bced4ba748979561263a565b928251948552840152820152426060820152a1565b634e487b7160e01b81526011600452fd5b612c5a906121bc565b38612bbe565b85513d84823e3d90fd5b845162461bcd60e51b815260048101879052600f818501526e0537761702072657475726e6564203608c1b6044820152606490fd5b9093508581813d8311612cc7575b612cb781836121e6565b8101031261030357519238612b85565b503d612cad565b90919293508851908a8201528387820152856044820152604481526080810181811067ffffffffffffffff821117612d1c57916125968b959492612d14948c52826125b5565b388080612b40565b634e487b7160e01b875260416004528787fd5b50813b1515612b3a565b80518015925087908315612d51575b50505038612b33565b612d61935082018101910161259d565b388681612d48565b60405162461bcd60e51b815260206004820152601e60248201527f545741504275726e65723a206d696e4f7574206d757374206265203e203000006044820152606490fd5b602060049160405192838092634d9ad68760e11b82525afa829181612e7a575b50612dd9575b612abc565b8015612abc5764e8d4a51000808702908782041487151715612e66576c0c9f2c9cd04674edea40000000870290808204670de0b6b3a76400001490151715612e665790612e259161263a565b6004549061271091820390828211612e525790612e4191612627565b0482811115612dd457915038612abc565b634e487b7160e01b84526011600452602484fd5b634e487b7160e01b83526011600452602483fd5b9091506020813d8211612ea5575b81612e95602093836121e6565b8101031261056157519038612dce565b3d9150612e88565b60045491925061271091820390828211612e525790612ecb91612627565b049038612ab0565b60405162461bcd60e51b815260206004820152601960248201527f4e6f2044455820726f757465727320636f6e66696775726564000000000000006044820152606490fd5b919081101561226a5760051b0190565b356001600160a01b038116810361218b5790565b15612f4357565b60405162461bcd60e51b815260206004820152601760248201527f4d61696e74656e616e636552657365727665207a65726f0000000000000000006044820152606490fd5b5a9060009160018060a01b038084541692604094855180956370a0823160e01b825230600483015281602460209889935afa9081156131a6578291613179575b5060055481106131705760065490818111156131685750935b42600c558160135581601455838316938488518781527ff8e0e43ae7e43616c58a5ee3f8255532e5e09bf358082e12fc624f73999554ec893392a3303b1561056157875163d3dfa8b560e01b815260048101879052838160248183305af19081613155575b506130965750505050506130917f2daac340910aaa3b546c6766a94e425d758ba52563ddf4c0293c65f343bd68bc9361307d61236d565b908080519586958652850152830190612280565b0390a1565b909192939695945060ff601554169081613147575b506130b9575b505050505050565b5a8103908111612504576130ce903a90612627565b9160165480841161313f575b5082151580613135575b156130b15781808481935af16130f861236d565b50613105575b80806130b1565b7f667ad9c7167aea9bfcff8b321015abb0d8b77cf151a377e09e12b9017f9889fd9251908152a2388080806130fe565b50824710156130e4565b9250386130da565b9050601754161515386130ab565b613161909491946121bc565b9238613046565b905093612fe1565b50505050505050565b90508581813d831161319f575b61319081836121e6565b81010312610303575138612fc8565b503d613186565b87513d84823e3d90fdfe9016d09d72d40fdae2fd8ceac6b6234c7706214fd39c1cd1e609a0528c19930012c9dccd129ff783f1c8228eacdfa8e334ddecb7ec5c9a79ec662a4aed3d012a9b779b17422d0df92223018b32b4d1fa46e071723d6817e2486d003becc55f00a2646970667358221220c2b0ca9d4d462122d1eaf90d6efdf287fa959813649cf910da7e595a06c2a30664736f6c63430008140033","linkReferences":{}},"methodIdentifiers":{"FALLBACK_BURN_BPS()":"020d481b","FALLBACK_BUYBACK_BPS()":"95e0d78b","FALLBACK_MAINTENANCE_BPS()":"8984986c","FALLBACK_OPS_BPS()":"fbcba272","UPGRADE_INTERFACE_VERSION()":"ad3cb1cc","_executeBurnExternal(uint256)":"d3dfa8b5","accumulatedUSDCSinceBurn()":"db7c017a","adaptiveModeEnabled()":"74886e8c","addDexRouter(address)":"b3869cc4","authorizedSenders(address)":"6f324967","burnCooldown()":"63dc80ab","buybackReserve()":"ff909560","canBurn()":"c1eb1840","capacityOracle()":"51abb0c2","dexRouterCount()":"eab0fd09","dexRouters(uint256)":"88ff45c0","executeBurn()":"1eec9035","feeDistributor()":"0d43e8ad","gasRefundCap()":"63624d47","gasRefundEnabled()":"697e62f5","gasRefundTreasury()":"b74bf850","getStats()":"c59d4847","initialize(address,address,address)":"c0c53b8b","initializeV2(uint256,uint256,bool,uint256,address)":"ebc5c94b","lastBurnTimestamp()":"3d3d937d","lumina()":"cd6b8e4d","maintenanceReserve()":"332c7e7b","maxAccumulatedUSDCBeforeBurn()":"ababe71b","maxBurnAmount()":"6f527aaf","maxPurchasesBeforeBurn()":"bc4a914a","maxSlippageBps()":"c4aa7395","minBurnAmount()":"839975bb","opsReserve()":"d6ccd58f","owner()":"8da5cb5b","pendingUSDC()":"76b2a285","poolFee()":"089fe6aa","proxiableUUID()":"52d1902d","purchaseCounter()":"055680f0","receiveMarketplaceFee(uint256)":"0466fb7e","receivePremium(uint256)":"1c605efc","recoverToken(address,uint256)":"b29a8140","renounceOwnership()":"715018a6","setAdaptiveMode(bool)":"83ee6a6f","setAuthorizedSender(address,bool)":"f3dfc2a9","setAutoBurnConfig(uint256,uint256)":"4f8053cf","setBurnCooldown(uint256)":"17a5693e","setCapacityOracle(address)":"2919b815","setDexRouters(address[])":"95cfbb95","setFeeDistributor(address)":"ccfc2e8d","setGasRefundConfig(bool,uint256,address)":"b5865898","setMaintenanceReserve(address)":"396c5ae4","setMaxBurnAmount(uint256)":"4acd87d5","setMaxSlippageBps(uint256)":"25fc1b3d","setMinBurnAmount(uint256)":"9ab8e6d2","setPoolFee(uint24)":"73dd250c","setReserves(address,address,address)":"893fc019","totalLUMINABurned()":"4cff83f8","totalUSDCBurned()":"2a5ffadf","totalUSDCReceived()":"39402b2e","transferOwnership(address)":"f2fde38b","upgradeToAndCall(address,bytes)":"4f1ef286","usdc()":"3e413bee"},"id":82}